S00D00006E6F6465312E7372656340
S11300000C9438000C94F8000C9455000C94550092
S11300100C9455000C9455000C9455000C94550008
S11300200C9455000C9455000C9455000C945500F8
S11300300C9455000C9455000C9455000C945500E8
S11300400C9455000C9455000C9455000C945500D8
S11300500C9455000C9455000C9455000C945500C8
S11300600C9455000C9455000C9455000C945500B8
S113007011241FBECFEFD4E0DEBFCDBF13E0A0E05C
S1130080B1E0E2E3F2E102C005900D92A632B107BD
S1130090D9F723E0A6E2B3E001C01D92A033B20772
S11300A0E1F70E9440020C9417090C94000082E0CE
S11300B090E0909387008093860081B3806181BB38
S11300C0EAE8F0E0808188608083ABE8B0E08C915E
S11300D080648C938081816080838AE091E00E94B7
S11300E078040895E1E0F4E191E090834081908107
S11300F0308120818130C9F028F0823029F08330AA
S113010029F006C0942F11C0932F0FC0922F0DC059
S11301101F928F9385E191E09F938F930E946204D5
S11301200F900F900F900F909FEF892F0895CF930A
S1130130DF930E945201EC0161EC8AE20E941E01ED
S113014069EE89E20E941E0166E088E20E941E01B7
S113015080E00E94B40141E06FEF8BE20E949801BD
S1130160CE01DF91CF9108950F931F93CF93DF9327
S11301708C01FC018281893020F086E391E00E94A9
S11301807804F80160817181769567957695679515
S11301907695679581E30E941E01F801608162955E
S11301A0660F607E82E30E941E01F801628185E38E
S11301B00E941E01C0E0D0E009C0F801EC0FFD1F51
S11301C063818C2F8A5C0E941E012196F801828132
S11301D090E0C817D9078CF380E090E00E946F018B
S11301E08CE20E943401DF91CF911F910F91089509
S11301F01F920F920FB60F9211242F933F934F9398
S11302005F936F937F938F939F93AF93BF93EF937A
S1130210FF9389E891E00E947804FF91EF91BF91E8
S1130220AF919F918F917F916F915F914F913F918A
S11302302F910F900FBE0F901F901895CF93DF93BF
S1130240D82FC62F80E00E94F30282E00E940703A9
S11302508D2F0E9407038C2F0E94070381E00E94C8
S1130260F302DF91CF910895CF93C82F80E00E94CD
S1130270F30283E00E9407038C2F0E9407030E946D
S11302800B03C82F81E00E94F3028C2FCF910895B5
S113029080E00E94F30280EC0E94070381E00E9448
S11302A0F30208950E94FE020E9448012FE986E8A5
S11302B091E0215080409040E1F700C000008EE0C2
S11302C00E943401807E803839F086E991E00E94F2
S11302D078048FEF9FEF089580E090E00895CF9326
S11302E0DF93EC0180E00E94F3022097A1F0C1307B
S11302F0D10599F0C230D10591F0DF93CF938AEC08
S113030091E09F938F930E9462040F900F900F903F
S11303100F9080E005C081E803C082E801C084E852
S11303200E94070381E00E94F302DF91CF910895B8
S11303301F93CF93DF93182FD62FC42F80E00E94F2
S1130340F30285E00E940703812F0E9407038D2F8B
S11303500E9407038C2F0E94070381E00E94F3028E
S1130360DF91CF911F910895482F60EE8FE00E9496
S11303709801089582B3806282BB0895CF92DF9280
S1130380EF92FF92CF93DF9380E00E947200C82F18
S1130390D0E0C05AD1096E0181E00E94720090E061
S11303A0825A91097C012496299710F4C12CD12CEE
S11303B00496099710F4E12CF12C8DE9C8168FEFFF
S11303C0D80634F40F2EFCE9CF2EDD24DA94F02D78
S11303D08DE9E8168FEFF80634F40F2EFCE9EF2EC2
S11303E0FF24FA94F02D8CE5C816D1042CF00F2EBE
S11303F0F4E6CF2ED12CF02D8CE5E816F1042CF088
S11304000F2EF4E6EF2EF12CF02DC701B601DF918B
S1130410CF91FF90EF90DF90CF9008950F931F93AB
S1130420CF93DF93CDB7DEB72B970FB6F894DEBF2B
S11304300FBECDBF0E94BE018E010F5F1F4F8BE028
S1130440F80111928A95E9F781E090E09A83898313
S113045082E08B8380E00E9472008C8381E00E94A2
S113046072008D83C8010E94B4002B960FB6F894D5
S1130470DEBF0FBECDBFDF91CF911F910F910895C5
S11304808FE10E94A3030E94B0030E9457000E94C0
S1130490BA010E94AE020E949700892B29F089E0DC
S11304A092E00E9478040CC00E941203892B29F068
S11304B08BE192E00E94780403C00E940E02FDCFFB
S11304C08FEF9FEF0895809300100895CF93DF93EB
S11304D08038910590F4EC018F700E946302CE0184
S11304E0807F992795958795959587959595879577
S11304F095958795805F0E946302DF91CF9108955F
S1130500282F392F2830310518F480550E946302B2
S113051008958093001208950F931F93CF93DF9350
S113052000E010E013C0C8010E94800280E090E067
S11305300E946602C0E0D0E004C080E00E9489020C
S11305402196C038D105CCF30F5F1F4F0830110539
S113055054F3DF91CF911F910F9108958EEA0E9479
S1130560630281EA0E9463028AED0E94630282E1CF
S11305700E94630288EC0E94630288EA0E9463027C
S11305808FE30E94630285ED0E94630280E80E946B
S1130590630281E80E94630280E50E94630289EDA0
S11305A00E94630281E20E94630280E20E9463026D
S11305B082E00E9463028BED0E94630280E30E944A
S11305C063028DEA0E94630280E00E94630284EA6F
S11305D00E94630286EA0E9463028FEA0E94630219
S11305E00E948C020895813019F498B3906198BBED
S11305F0811103C088B38F7E88BB089587B3806B55
S113060087BB81E58DB981E00E94F30208958FB91B
S1130610779BFECF089580E00E940703779BFECF6F
S11306208FB10895EF92FF920F931F93CF93DF93AF
S11306308DE292E00E9478040E9407047C010E94EB
S11306400C04C0E0D0E000E010E020C00E940704E9
S1130650FE01F85E808320812817B9F099279F93C3
S11306608F931F922F93DF93CF9384E492E09F9311
S11306708F930E9462040F5F1F4F8DB79EB7089639
S11306800FB6F8949EBF0FBE8DBF2196C11598E09A
S1130690D907E0F2C7010E940C04C0E0D0E0E12CCD
S11306A0F12C20C00E940704FE01F85E2081281767
S11306B0C1F099279F938F931F922F93DF93CF932A
S11306C08EE792E09F938F930E9462048FEFE81A63
S11306D0F80A8DB79EB708960FB6F8949EBF0FBE62
S11306E08DBF2196C11598E0D907E0F2E114F10419
S11306F0B1F401151105B1F4FF92EF921F930F931A
S11307008CEB92E09F938F930E9462040F900F9062
S11307100F900F900F900F9080E090E005C081E063
S113072090E002C081E090E0DF91CF911F910F91A2
S1130730FF90EF9008955D9BFECF8CB908955F9B69
S1130740FECF8CB1089510BC89B988E18AB986E8D6
S113075080BD6FE973E08BE993E00E94170408956C
S113076085B7806885BF80B7806280BF89E193E0E8
S11307700E94780408958F929F92AF92BF92CF9275
S1130780DF92EF92FF92CF93DF93EC01688179813E
S11307908A819B81611571058105910521F464E2CB
S11307A079ED8BE597E02DE133EF41E050E00E94D5
S11307B07D0849015A019B01AC01A7EAB1E40E94FA
S11307C09C086B017C01ACEEB4EFA50194010E947E
S11307D0AA08DC01CB018C0D9D1DAE1DBF1DB7FF0A
S11307E003C00197A109B04888839983AA83BB8376
S11307F09F77DF91CF91FF90EF90DF90CF90BF90E4
S1130800AF909F908F9008950E94BB03089580E05D
S113081091E00E94BB030895A0E0B0E08093000142
S113082090930101A0930201B093030108950F93E3
S11308301F93CF93DF93009731F46115710519F479
S113084080E090E03AC08B01EC016EE070E081E062
S113085090E00E948906FC01892B91F380E8838350
S11308600115110571F01387028781E88383809154
S1130870260390912703892B21F4F0932703E09317
S113088026032097C9F0D187C08783818260838340
S11308908091280390912903892B71F4F093290303
S11308A0E093280380912A0390912B03892B21F450
S11308B0F0932B03E0932A03CF01DF91CF911F9193
S11308C00F910895A0E0B0E0E8E6F4E00C94BF08CE
S11308D0AE014B5F5F4FFA0161917191AF0180915D
S11308E02803909129030E94A804E2E00C94DB08F9
S11308F00F931F93CF93DF93E0912803F091290383
S1130900238121FF1BC08C01D0E0C0E0F80181915C
S11309108F016091280370912903DB011896ED91F2
S1130920FC911997882331F00995892B79F3DFEF2E
S1130930CFEFECCF8AE00995892B19F08FEF9FEF69
S113094002C08D2F9C2FDF91CF911F910F9108959D
S1130950ABE0B0E0EEEAF4E00C94AF086C017B018C
S11309608A01FC0117821682838181FFCCC1CE01EA
S113097001963C01F6019381F70193FD859193FF64
S113098081917F01882309F4BAC1853239F493FD3A
S1130990859193FF81917F01853229F4B60190E01E
S11309A00E94E307E7CF912C212C312CFFE1F315B2
S11309B0D8F08B3279F038F4803279F08332A1F4B4
S11309C0232D20611DC08D3261F0803369F4232D05
S11309D0216016C0832D8260382EE32DE4603E2E04
S11309E02AC0F32DF8601DC037FC2DC020ED280F60
S11309F02A3040F08E32B9F436FC81C1232D2064B4
S1130A00322E19C036FE06C08AE0989E200D1124AD
S1130A10922E11C0EAE02E9E200D1124222EF32DD9
S1130A20F0623F2E08C08C3621F4832D8068382E66
S1130A3002C0883641F4F70193FD859193FF8191BB
S1130A407F018111B3CF982F9F7D9554933028F463
S1130A500C5F1F4F9FE399830DC0833631F08337BA
S1130A6071F0833509F059C021C0F8018081898370
S1130A700E5F1F4F88248394912C530113C02801C7
S1130A80F2E04F0E511CF801A080B18036FE03C085
S1130A90692D70E002C06FEF7FEFC5010E94D80797
S1130AA04C018201F32DFF773F2E16C0280122E06E
S1130AB0420E511CF801A080B18036FE03C0692D9E
S1130AC070E002C06FEF7FEFC5010E94C6074C01C2
S1130AD0F32DF0683F2E820133FC1BC0822D90E081
S1130AE088169906B0F4B60180E290E00E94E3070C
S1130AF02A94F4CFF50137FC859137FE81915F018B
S1130B00B60190E00E94E30721102A9421E0821AA2
S1130B1091088114910471F7E8C0843611F0893684
S1130B2041F5F80137FE07C06081718182819381AC
S1130B300C5F1F4F08C060817181072E000C880B69
S1130B40990B0E5F1F4FF32DFF763F2E97FF09C0C1
S1130B5090958095709561957F4F8F4F9F4FF0686A
S1130B603F2E2AE030E0A3010E941F08882E861839
S1130B7045C0853731F4232D2F7EB22E2AE030E094
S1130B8025C0932D997FB92E8F36C1F018F488357E
S1130B9079F0B5C0803719F0883721F0B0C0E92F5B
S1130BA0E061BE2EB4FE0DC0FB2DF460BF2E09C063
S1130BB034FE0AC0292F2660B22E06C028E030E099
S1130BC005C020E130E002C020E132E0F801B7FEC8
S1130BD007C060817181828193810C5F1F4F06C0C1
S1130BE06081718180E090E00E5F1F4FA3010E943D
S1130BF01F08882E8618FB2DFF773F2E36FE0DC06A
S1130C00232D2E7FA22E891458F434FE0BC032FCFF
S1130C1009C0832D8E7EA82E05C0B82CA32C03C03A
S1130C20B82C01C0B92CA4FE0FC0FE01E80DF11DC3
S1130C308081803321F49A2D997EA92E09C0A2FEC9
S1130C4006C0B394B39404C08A2D867809F0B39493
S1130C50A3FC11C0A0FE06C0B21488F4280C922C88
S1130C609B180EC0B21460F4B60180E290E00E94BA
S1130C70E307B394F7CFB21418F42B1802C0982CDE
S1130C80212CA4FE10C0B60180E390E00E94E3078B
S1130C90A2FE17C0A1FC03C088E790E002C088E56B
S1130CA090E0B6010CC08A2D867859F0A1FE02C0EE
S1130CB08BE201C080E2A7FC8DE2B60190E00E94C5
S1130CC0E307891438F4B60180E390E00E94E30757
S1130CD09A94F7CF8A94F301E80DF11D8081B6014F
S1130CE090E00E94E3078110F5CF222009F442CE60
S1130CF0B60180E290E00E94E3072A94F6CFF60161
S1130D008681978102C08FEF9FEF2B96E2E10C94CE
S1130D10CB080F931F93CF93DF93869F8001879F08
S1130D20100D969F100D1124C8010E94A506EC0118
S1130D30009729F0A80160E070E00E94D107CE017D
S1130D40DF91CF911F910F9108950F931F93CF932C
S1130D50DF938230910510F482E090E0E0912E035D
S1130D60F0912F0320E030E0A0E0B0E0309719F1DB
S1130D70408151810281138148175907C8F08417B3
S1130D80950769F4109731F012960C931297139605
S1130D901C9327C000932E0310932F0322C0211508
S1130DA0310519F04217530718F49A01BD01EF01F8
S1130DB0DF01F801DBCF21153105F9F0281B390BD0
S1130DC02430310580F48A819B816115710521F0FD
S1130DD0FB019383828304C090932F0380932E039B
S1130DE0FE01329644C0FE01E20FF31F81939193FA
S1130DF022503109398328833AC020912C03309141
S1130E002D03232B41F420910601309107013093E7
S1130E102D0320932C032091040130910501211509
S1130E20310541F42DB73EB74091080150910901B5
S1130E30241B350BE0912C03F0912D03E217F307EB
S1130E40A0F42E1B3F0B2817390778F0AC014E5F36
S1130E505F4F2417350748F04E0F5F1F50932D0343
S1130E6040932C038193919302C0E0E0F0E0CF0122
S1130E70DF91CF911F910F910895CF93DF93009746
S1130E8009F481C0FC01329713821282A0912E03CF
S1130E90B0912F03109781F420813181820F931F29
S1130EA020912C0330912D032817390751F5F09325
S1130EB02D03E0932C0367C0ED0120E030E0CE1752
S1130EC0DF0740F44A815B819E0141155105F1F031
S1130ED0EA01F5CFD383C28340815181840F951FEA
S1130EE0C817D90759F488819981840F951F0296F0
S1130EF0918380838A819B81938382832115310529
S1130F0029F4F0932F03E0932E033DC0E901FB8302
S1130F10EA8349915991C40FD51FEC17FD0761F479
S1130F2080819181840F951F0296E90199838883BA
S1130F30828193819B838A83E0E0F0E012968D9115
S1130F409C911397009719F0FD01DC01F7CF8D9167
S1130F509C9111979D012E5F3F4F820F931F20910B
S1130F602C0330912D032817390769F4309729F49D
S1130F7010922F0310922E0302C013821282B09398
S1130F802D03A0932C03DF91CF910895FC010590CC
S1130F90615070400110D8F7809590958E0F9F1F77
S1130FA00895DC0101C06D9341505040E0F708956D
S1130FB0FC016150704001900110D8F78095909524
S1130FC08E0F9F1F08950F931F93CF93DF93FB0101
S1130FD0238121FD03C08FEF9FEF2CC022FF16C099
S1130FE046815781248135814217530744F4A081F7
S1130FF0B1819D012F5F3F4F318320838C932681E4
S113100037812F5F3F4F3783268314C08B01EC0158
S1131010FB010084F185E02D0995892BE1F6D801C7
S113102016968D919C911797019617969C938E9383
S11310301697CE01DF91CF911F910F910895FA0178
S1131040AA27283051F1203181F1E8946F936E7F03
S11310506E5F7F4F8F4F9F4FAF4FB1E03ED0B4E0F4
S11310603CD0670F781F891F9A1FA11D680F791F35
S11310708A1F911DA11D6A0F711D811D911DA11D46
S113108020D009F468943F912AE0269F1124301956
S1131090305D3193DEF6CF010895462F4770405DF1
S11310A04193B3E00FD0C9F7F6CF462F4F70405DA0
S11310B04A3318F0495D31FD4052419302D0A9F7FB
S11310C0EACFB4E0A6959795879577956795BA95F5
S11310D0C9F700976105710508959B01AC010A2EBB
S11310E006945795479537952795BA95C9F7620F92
S11310F0731F841F951FA01D0895052E97FB1EF4D2
S113110000940E94940857FD07D00E94E60807FC4B
S113111003D04EF40C949408509540953095219545
S11311203F4F4F4F5F4F089590958095709561950F
S11311307F4F8F4F9F4F08950E940809A59F900DE0
S1131140B49F900DA49F800D911D11240895B7FFA5
S11311500C949C080E949C08821B930B08952F9268
S11311603F924F925F926F927F928F929F92AF9233
S1131170BF92CF92DF92EF92FF920F931F93CF9380
S1131180DF93CDB7DEB7CA1BDB0B0FB6F894DEBF17
S11311900FBECDBF09942A88398848885F846E843D
S11311A07D848C849B84AA84B984C884DF80EE8087
S11311B0FD800C811B81AA81B981CE0FD11D0FB690
S11311C0F894DEBF0FBECDBFED010895A1E21A2E43
S11311D0AA1BBB1BFD010DC0AA1FBB1FEE1FFF1FD7
S11311E0A217B307E407F50720F0A21BB30BE40B27
S11311F0F50B661F771F881F991F1A9469F760956E
S11312007095809590959B01AC01BD01CF01089527
S1131210A29FB001B39FC001A39F700D811D112433
S1131220911DB29F700D811D1124911D0895F89494
S1051230FFCFEA
S1131232010000000000300320002D50574D2069AA
S11312426E69742D004368616E6E656C206E6F74F6
S113125220666F756E642C206172672067697665FB
S11312626E3A202564004552524F522C206D65730C
S113127273616765206C656E6774682076616C754E
S11312826520746F2068696768200D006D7367209C
S113129272656365697665642049443A2020256451
S11312A209006D73672072656365697665642064FD
S11312B26174612025730D0A00696E747465727518
S11312C2707465640D00204D435032353135206908
S11312D273204E4F5420696E20636F6E6669677582
S11312E2726174696F6E206D6F64652061667465E6
S11312F2722072657365742021004E6F7420636FCF
S113130272726563742062756666657220696E2006
S113131266756E6374696F6E206D63703235313534
S11313225F7274732C206275666665722076616CD6
S113133275653A2025640D0A0043616E20696E6961
S113134274206661696C6564200D005352414D201E
S113135274657374206661696C65640D005374610D
S11313627274696E67205352414D20746573742EF2
S11313722E2E0D00577269746520706861736520A2
S11313826572726F723A206578745F72616D5B2563
S113139234645D203D2025303258202873686F75EF
S11313A26C642062652025303258290D0A0052658A
S11313B27472696576616C20706861736520657208
S11313C2726F723A206578745F72616D5B25346462
S11313D25D203D2025303258202873686F756C6477
S11313E22062652025303258290D0A005352414D9E
S11313F2207465737420636F6D706C65746564200A
S113140277697468200D0A253464206572726F72DC
S11314127320696E207772697465207068617365E0
S113142220616E64200D0A253464206572726F7225
S11314327320696E2072657472696576616C2070BE
S1131442686173650D0A0D0A002D584D454D2069DA
S10914526E69742D000018
S9030000FC
