S00D00006E6F6465312E7372656340
S11300000C9438000C940A010C9455000C9455007F
S11300100C9455000C9455000C9455000C94550008
S11300200C9455000C9455000C9455000C945500F8
S11300300C9455000C9455000C9455000C945500E8
S11300400C9455000C9455000C9455000C945500D8
S11300500C9455000C9455000C9455000C945500C8
S11300600C9455000C9455000C9455000C945500B8
S113007011241FBECFEFD4E0DEBFCDBF13E0A0E05C
S1130080B1E0E8ECF2E102C005900D92AA35B107A7
S1130090D9F723E0AAE5B3E001C01D92A636B20762
S11300A0E1F70E9483020C9462090C94000082E040
S11300B090E0909387008093860081B3806181BB38
S11300C0EAE8F0E0808188608083ABE8B0E08C915E
S11300D080648C938081816080838AE091E00E94B7
S11300E0C3040895E1E0F4E191E0908340819081BC
S11300F0308120818130C9F028F0823029F08330AA
S113010029F006C0942F11C0932F0FC0922F0DC059
S11301101F928F9385E191E09F938F930E94AD048A
S11301200F900F900F900F909FEF892F0895CF930A
S1130130DF930E948501EC0161EC8AE20E94510187
S113014069EE89E20E94510166E088E20E94510151
S113015080E00E94E70141E06FEF8BE20E94CB0157
S1130160CE01DF91CF9108950F931F93CF93DF9327
S11301708C01FC018281893020F086E391E00E94A9
S1130180C304F801608171817695679576956795CA
S11301907695679581E30E945101F801608162952B
S11301A0660F607E82E30E945101F801628185E35B
S11301B00E945101C0E0D0E009C0F801EC0FFD1F1E
S11301C063818C2F8A5C0E9451012196F8018281FF
S11301D090E0C817D9078CF380E090E00E94A20158
S11301E08CE20E946701DF91CF911F910F910895D6
S11301F089E891E09F938F930E94AD0481B381BB02
S113020085B7826085BF8BB780648BBF78940F906D
S11302100F9008951F920F920FB60F9211242F93EF
S11302203F934F935F936F937F938F939F93AF937A
S1130230BF93EF93FF9380915A0390915B030196D0
S113024090935B0380935A032FE38DE093E0215056
S113025080409040E1F700C0000080915A039091E3
S11302605B039F938F938CE991E09F938F930E94FC
S1130270AD048AB780648ABF0F900F900F900F90DF
S1130280FF91EF91BF91AF919F918F917F916F916A
S11302905F914F913F912F910F900FBE0F901F9040
S11302A01895CF93DF93D82FC62F80E00E943E038A
S11302B082E00E9452038D2F0E9452038C2F0E94D1
S11302C0520381E00E943E03DF91CF910895CF93C2
S11302D0C82F80E00E943E0383E00E9452038C2FCB
S11302E00E9452030E945603C82F81E00E943E03DD
S11302F08C2FCF91089580E00E943E0380EC0E94F1
S1130300520381E00E943E0308950E9449030E9423
S11303107B012FE986E891E0215080409040E1F78D
S113032000C000008EE00E946701807E803839F0B2
S113033084EB91E00E94C3048FEF9FEF089580E067
S113034090E00895CF93DF93EC0180E00E943E0398
S11303502097A1F0C130D10599F0C230D10591F0B8
S1130360DF93CF9388EE91E09F938F930E94AD0427
S11303700F900F900F900F9080E005C081E803C0AC
S113038082E801C084E80E94520381E00E943E0397
S1130390DF91CF9108951F93CF93DF93182FD62F1A
S11303A0C42F80E00E943E0385E00E945203812F07
S11303B00E9452038D2F0E9452038C2F0E945203DD
S11303C081E00E943E03DF91CF911F910895482F51
S11303D060EE8FE00E94CB01089582B3806282BBFD
S11303E00895CF92DF92EF92FF92CF93DF9380E054
S11303F00E947200C82FD0E0C05AD1096E0181E07A
S11304000E94720090E0825A91097C0124962997F7
S113041010F4C12CD12C0496099710F4E12CF12C82
S11304208DE9C8168FEFD80634F40F2EFCE9CF2ED1
S1130430DD24DA94F02D8DE9E8168FEFF80634F414
S11304400F2EFCE9EF2EFF24FA94F02D8CE5C8164C
S1130450D1042CF00F2EF4E6CF2ED12CF02D8CE508
S1130460E816F1042CF00F2EF4E6EF2EF12CF02D0B
S1130470C701B601DF91CF91FF90EF90DF90CF904D
S113048008950F931F93CF93DF93CDB7DEB72B97C8
S11304900FB6F894DEBF0FBECDBF0E94F1018E01EE
S11304A00F5F1F4F8BE0F80111928A95E9F781E005
S11304B090E09A83898383E08B8380E00E947200BA
S11304C08C8381E00E9472008D8382E00E9472001E
S11304D08E831F928F9387E292E09F938F930E9463
S11304E0AD04C8010E94B4000F900F900F900F90BC
S11304F02B960FB6F894DEBF0FBECDBFDF91CF9120
S11305001F910F9108958FE10E94EE030E94FB0357
S11305100E9457000E94ED010E94F9020E94F80017
S11305200E949700892B29F08EE392E00E94C30475
S113053012C00E945D03892B29F080E592E00E949D
S1130540C30409C083EF9EE70197F1F700C00000E0
S11305500E944102F7CF8FEF9FEF08958093001020
S11305600895CF93DF938038910590F4EC018F7058
S11305700E94AE02CE01807F992795958795959527
S113058087959595879595958795805F0E94AE028E
S1130590DF91CF910895282F392F2830310518F491
S11305A080550E94AE0208958093001208950F931F
S11305B01F93CF93DF9300E010E013C0C8010E94A3
S11305C0CB0280E090E00E94B102C0E0D0E004C021
S11305D080E00E94D4022196C038D105CCF30F5F8D
S11305E01F4F0830110554F3DF91CF911F910F91E4
S11305F008958EEA0E94AE0281EA0E94AE028AED5C
S11306000E94AE0282E10E94AE0288EC0E94AE0219
S113061088EA0E94AE028FE30E94AE0285ED0E943A
S1130620AE0280E80E94AE0281E80E94AE0280E53C
S11306300E94AE0289ED0E94AE0281E20E94AE02E7
S113064080E20E94AE0282E00E94AE028BED0E9424
S1130650AE0280E30E94AE028DEA0E94AE0280E008
S11306600E94AE0284EA0E94AE0286EA0E94AE02B2
S11306708FEA0E94AE020E94D7020895813019F4D5
S113068098B3906198BB811103C088B38F7E88BBF7
S1130690089587B3806B87BB81E58DB981E00E94A3
S11306A03E0308958FB9779BFECF089580E00E94A2
S11306B05203779BFECF8FB10895EF92FF920F9371
S11306C01F93CF93DF9382E692E00E94C3040E94BB
S11306D052047C010E945704C0E0D0E000E010E026
S11306E020C00E945204FE01F85E808320812817F6
S11306F0B9F099279F938F931F922F93DF93CF93F2
S113070089E792E09F938F930E94AD040F5F1F4F80
S11307108DB79EB708960FB6F8949EBF0FBE8DBFD7
S11307202196C11598E0D907E0F2C7010E94570449
S1130730C0E0D0E0E12CF12C20C00E945204FE0164
S1130740F85E20812817C1F099279F938F931F92F9
S11307502F93DF93CF9383EB92E09F938F930E9429
S1130760AD048FEFE81AF80A8DB79EB708960FB656
S1130770F8949EBF0FBE8DBF2196C11598E0D9078E
S1130780E0F2E114F104B1F401151105B1F4FF92A2
S1130790EF921F930F9381EF92E09F938F930E94A8
S11307A0AD040F900F900F900F900F900F9080E07A
S11307B090E005C081E090E002C081E090E0DF912C
S11307C0CF911F910F91FF90EF9008955D9BFECF05
S11307D08CB908955F9BFECF8CB1089510BC89B984
S11307E088E18AB986E880BD6AEE73E086EE93E01C
S11307F00E946204089585B7806885BF80B78062CF
S113080080BF8EE493E00E94C30408958F929F9268
S1130810AF92BF92CF92DF92EF92FF92CF93DF938A
S1130820EC01688179818A819B816115710581055B
S1130830910521F464E279ED8BE597E02DE133EF46
S113084041E050E00E94C80849015A019B01AC01F3
S1130850A7EAB1E40E94E7086B017C01ACEEB4EFB7
S1130860A50194010E94F508DC01CB018C0D9D1DAE
S1130870AE1DBF1DB7FF03C00197A109B04888830F
S11308809983AA83BB839F77DF91CF91FF90EF90E9
S1130890DF90CF90BF90AF909F908F9008950E946B
S11308A00604089580E091E00E9406040895A0E003
S11308B0B0E08093000190930101A0930201B093F2
S11308C0030108950F931F93CF93DF93009731F49F
S11308D06115710519F480E090E03AC08B01EC01D8
S11308E06EE070E081E090E00E94D406FC01892B68
S11308F091F380E883830115110571F01387028752
S113090081E8838380915C0390915D03892B21F4BA
S1130910F0935D03E0935C032097C9F0D187C0870F
S113092083818260838380915E0390915F03892B2E
S113093071F4F0935F03E0935E0380916003909100
S11309406103892B21F4F0936103E0936003CF01E9
S1130950DF91CF911F910F910895A0E0B0E0E3EBF8
S1130960F4E00C940A09AE014B5F5F4FFA01619108
S11309707191AF0180915E0390915F030E94F30433
S1130980E2E00C9426090F931F93CF93DF93E09139
S11309905E03F0915F03238121FF1BC08C01D0E033
S11309A0C0E0F80181918F0160915E0370915F0353
S11309B0DB011896ED91FC911997882331F0099584
S11309C0892B79F3DFEFCFEFECCF8AE00995892B00
S11309D019F08FEF9FEF02C08D2F9C2FDF91CF91E5
S11309E01F910F910895ABE0B0E0E9EFF4E00C94AF
S11309F0FA086C017B018A01FC011782168283814B
S1130A0081FFCCC1CE0101963C01F6019381F7012F
S1130A1093FD859193FF81917F01882309F4BAC1E5
S1130A20853239F493FD859193FF81917F0185325D
S1130A3029F4B60190E00E942E08E7CF912C212CD6
S1130A40312CFFE1F315D8F08B3279F038F4803291
S1130A5079F08332A1F4232D20611DC08D3261F021
S1130A60803369F4232D216016C0832D8260382ED3
S1130A70E32DE4603E2E2AC0F32DF8601DC037FC40
S1130A802DC020ED280F2A3040F08E32B9F436FC08
S1130A9081C1232D2064322E19C036FE06C08AE09F
S1130AA0989E200D1124922E11C0EAE02E9E200D56
S1130AB01124222EF32DF0623F2E08C08C3621F42F
S1130AC0832D8068382E02C0883641F4F70193FDE7
S1130AD0859193FF81917F018111B3CF982F9F7DE1
S1130AE09554933028F40C5F1F4F9FE399830DC0F6
S1130AF0833631F0833771F0833509F059C021C052
S1130B00F801808189830E5F1F4F88248394912C80
S1130B10530113C02801F2E04F0E511CF801A080CC
S1130B20B18036FE03C0692D70E002C06FEF7FEF25
S1130B30C5010E9423084C018201F32DFF773F2E4B
S1130B4016C0280122E0420E511CF801A080B18099
S1130B5036FE03C0692D70E002C06FEF7FEFC50160
S1130B600E9411084C01F32DF0683F2E820133FCE2
S1130B701BC0822D90E088169906B0F4B60180E27D
S1130B8090E00E942E082A94F4CFF50137FC859159
S1130B9037FE81915F01B60190E00E942E0821107A
S1130BA02A9421E0821A91088114910471F7E8C013
S1130BB0843611F0893641F5F80137FE07C06081AB
S1130BC07181828193810C5F1F4F08C060817181A4
S1130BD0072E000C880B990B0E5F1F4FF32DFF7629
S1130BE03F2E97FF09C090958095709561957F4F32
S1130BF08F4F9F4FF0683F2E2AE030E0A3010E9400
S1130C006A08882E861845C0853731F4232D2F7E37
S1130C10B22E2AE030E025C0932D997FB92E8F366D
S1130C20C1F018F4883579F0B5C0803719F08837E9
S1130C3021F0B0C0E92FE061BE2EB4FE0DC0FB2D43
S1130C40F460BF2E09C034FE0AC0292F2660B22EDC
S1130C5006C028E030E005C020E130E002C020E119
S1130C6032E0F801B7FE07C060817181828193810F
S1130C700C5F1F4F06C06081718180E090E00E5FC1
S1130C801F4FA3010E946A08882E8618FB2DFF7748
S1130C903F2E36FE0DC0232D2E7FA22E891458F42C
S1130CA034FE0BC032FC09C0832D8E7EA82E05C0F5
S1130CB0B82CA32C03C0B82C01C0B92CA4FE0FC0BF
S1130CC0FE01E80DF11D8081803321F49A2D997E77
S1130CD0A92E09C0A2FE06C0B394B39404C08A2D01
S1130CE0867809F0B394A3FC11C0A0FE06C0B21428
S1130CF088F4280C922C9B180EC0B21460F4B60130
S1130D0080E290E00E942E08B394F7CFB21418F456
S1130D102B1802C0982C212CA4FE10C0B60180E32D
S1130D2090E00E942E08A2FE17C0A1FC03C088E731
S1130D3090E002C088E590E0B6010CC08A2D867868
S1130D4059F0A1FE02C08BE201C080E2A7FC8DE253
S1130D50B60190E00E942E08891438F4B60180E3AD
S1130D6090E00E942E089A94F7CF8A94F301E80D3C
S1130D70F11D8081B60190E00E942E088110F5CF0C
S1130D80222009F442CEB60180E290E00E942E08AF
S1130D902A94F6CFF6018681978102C08FEF9FEFE8
S1130DA02B96E2E10C9416090F931F93CF93DF93D4
S1130DB0869F8001879F100D969F100D1124C801F6
S1130DC00E94F006EC01009729F0A80160E070E0B1
S1130DD00E941C08CE01DF91CF911F910F910895BD
S1130DE00F931F93CF93DF938230910510F482E029
S1130DF090E0E0916403F091650320E030E0A0E02E
S1130E00B0E0309719F14081518102811381481774
S1130E105907C8F08417950769F4109731F01296B2
S1130E200C93129713961C9327C00093640310939A
S1130E30650322C02115310519F04217530718F430
S1130E409A01BD01EF01DF01F801DBCF2115310566
S1130E50F9F0281B390B2430310580F48A819B81F9
S1130E606115710521F0FB019383828304C0909383
S1130E70650380936403FE01329644C0FE01E20FD1
S1130E80F31F8193919322503109398328833AC007
S1130E902091620330916303232B41F420910601D6
S1130EA0309107013093630320936203209104017E
S1130EB0309105012115310541F42DB73EB740911C
S1130EC0080150910901241B350BE0916203F09154
S1130ED06303E217F307A0F42E1B3F0B281739070F
S1130EE078F0AC014E5F5F4F2417350748F04E0F82
S1130EF05F1F50936303409362038193919302C0F5
S1130F00E0E0F0E0CF01DF91CF911F910F910895C0
S1130F10CF93DF93009709F481C0FC0132971382C9
S1130F201282A0916403B0916503109781F420812B
S1130F303181820F931F209162033091630328173C
S1130F40390751F5F0936303E093620367C0ED0141
S1130F5020E030E0CE17DF0740F44A815B819E0138
S1130F6041155105F1F0EA01F5CFD383C2834081E5
S1130F705181840F951FC817D90759F48881998125
S1130F80840F951F0296918380838A819B8193832A
S1130F9082832115310529F4F0936503E0936403FA
S1130FA03DC0E901FB83EA8349915991C40FD51FE0
S1130FB0EC17FD0761F480819181840F951F0296DF
S1130FC0E90199838883828193819B838A83E0E00A
S1130FD0F0E012968D919C911397009719F0FD0102
S1130FE0DC01F7CF8D919C9111979D012E5F3F4FAE
S1130FF0820F931F209162033091630328173907EE
S113100069F4309729F4109265031092640302C0C6
S113101013821282B0936303A0936203DF91CF9192
S11310200895FC010590615070400110D8F7809537
S113103090958E0F9F1F0895DC0101C06D93415060
S11310405040E0F70895FC01615070400190011098
S1131050D8F7809590958E0F9F1F08950F931F9337
S1131060CF93DF93FB01238121FD03C08FEF9FEF1B
S11310702CC022FF16C04681578124813581421736
S1131080530744F4A081B1819D012F5F3F4F318309
S113109020838C93268137812F5F3F4F37832683AC
S11310A014C08B01EC01FB010084F185E02D09954E
S11310B0892BE1F6D80116968D919C91179701968C
S11310C017969C938E931697CE01DF91CF911F9123
S11310D00F910895FA01AA27283051F1203181F1A6
S11310E0E8946F936E7F6E5F7F4F8F4F9F4FAF4F2C
S11310F0B1E03ED0B4E03CD0670F781F891F9A1F3F
S1131100A11D680F791F8A1F911DA11D6A0F711DF2
S1131110811D911DA11D20D009F468943F912AE0FE
S1131120269F11243019305D3193DEF6CF010895E6
S1131130462F4770405D4193B3E00FD0C9F7F6CF17
S1131140462F4F70405D4A3318F0495D31FD4052DF
S1131150419302D0A9F7EACFB4E0A6959795879575
S113116077956795BA95C9F7009761057105089554
S11311709B01AC010A2E0694579547953795279500
S1131180BA95C9F7620F731F841F951FA01D089598
S1131190052E97FB1EF400940E94DF0857FD07D02C
S11311A00E94310907FC03D04EF40C94DF085095DB
S11311B04095309521953F4F4F4F5F4F089590953F
S11311C08095709561957F4F8F4F9F4F08950E9432
S11311D05309A59F900DB49F900DA49F800D911D60
S11311E011240895B7FF0C94E7080E94E708821BB6
S11311F0930B08952F923F924F925F926F927F923A
S11312008F929F92AF92BF92CF92DF92EF92FF9212
S11312100F931F93CF93DF93CDB7DEB7CA1BDB0BBE
S11312200FB6F894DEBF0FBECDBF09942A88398863
S113123048885F846E847D848C849B84AA84B9846A
S1131240C884DF80EE80FD800C811B81AA81B98176
S1131250CE0FD11D0FB6F894DEBF0FBECDBFED018A
S11312600895A1E21A2EAA1BBB1BFD010DC0AA1FE3
S1131270BB1FEE1FFF1FA217B307E407F50720F0FB
S1131280A21BB30BE40BF50B661F771F881F991F76
S11312901A9469F760957095809590959B01AC01BF
S11312A0BD01CF010895A29FB001B39FC001A39FC8
S11312B0700D811D1124911DB29F700D811D11248B
S10B12C0911D0895F894FFCF7D
S11312C8010000000000660320002D50574D2069DE
S11312D86E69742D004368616E6E656C206E6F7460
S11312E820666F756E642C20617267206769766565
S11312F86E3A202564004552524F522C206D657376
S113130873616765206C656E6774682076616C75B7
S11313186520746F2068696768200D006D73672005
S113132872656365697665642049443A20202564BA
S113133809006D7367207265636569766564206466
S11313486174612025730D0A002D496E74657272EB
S113135875707420696E69742D0A0D00496E746580
S1131368727275707465642E20436F756E743A20BA
S113137825640A00204D43503235313520697320E5
S11313884E4F5420696E20636F6E6669677572618B
S113139874696F6E206D6F64652061667465722070
S11313A872657365742021004E6F7420636F7272C6
S11313B86563742062756666657220696E20667559
S11313C86E6374696F6E206D6370323531355F7288
S11313D874732C206275666665722076616C756517
S11313E83A2025640D0A00534C4944455220504F75
S11313F8532056414C55453A2025640D0A00436153
S11314086E20696E6974206661696C6564200D00DC
S11314185352414D2074657374206661696C656428
S11314280D005374617274696E67205352414D20E4
S1131438746573742E2E2E0D0057726974652070AE
S113144868617365206572726F723A206578745F9B
S113145872616D5B2534645D203D2025303258204F
S11314682873686F756C64206265202530325829AA
S11314780D0A0052657472696576616C2070686142
S11314887365206572726F723A206578745F726151
S11314986D5B2534645D203D202530325820287347
S11314A8686F756C642062652025303258290D0AEE
S11314B8005352414D207465737420636F6D706CD2
S11314C8657465642077697468200D0A253464207E
S11314D86572726F727320696E2077726974652001
S11314E8706861736520616E64200D0A2534642078
S11314F86572726F727320696E20726574726965A1
S113150876616C2070686173650D0A0D0A002D58A8
S10D15184D454D20696E69742D00E5
S9030000FC
