S00D00006E6F6465312E7372656340
S11300000C94B6020C9488030C94D3020C94D3027F
S11300100C94D3020C94D3020C94D3020C94D30208
S11300200C94D3020C94D3020C94D3020C94D302F8
S11300300C94D3020C94D3020C94D3020C94D302E8
S11300400C94D3020C94D3020C94D3020C94D302D8
S11300500C94D3020C94D3020C94D3020C94D302C8
S11300600C94D3020C94D3020C94D3020C94D302B8
S1130070D203D703DC03E103E603FB030004050416
S11300800A040F04140419041E04230428042D0470
S1130090320437043C044104000000000000005F07
S11300A000000007000700147F147F14242A7F2A0D
S11300B012231308646236495522500005030000D8
S11300C0001C2241000041221C00082A1C2A0808A6
S11300D0083E0808005030000008080808080060BE
S11300E060000020100804023E5149453E00427F52
S11300F0400042615149462141454B311814127F59
S11301001027454545393C4A4949300171090503E1
S11301103649494936064949291E00363600000049
S113012056360000000814224114141414144122F9
S11301301408000201510906324979413E7E111129
S1130140117E7F494949363E414141227F41412246
S11301501C7F494949417F090901013E414151320E
S11301607F0808087F00417F41002040413F017F14
S1130170081422417F404040407F0204027F7F04F4
S113018008107F3E4141413E7F090909063E415125
S1130190215E7F09192946464949493101017F01F8
S11301A0013F4040403F1F2040201F7F2018207FF8
S11301B0631408146303047804036151494543003C
S11301C0007F4141020408102041417F00000402E5
S11301D00102044040404040000102040020545405
S11301E054787F484444383844444420384444488C
S11301F07F3854545418087E090102081454543C9E
S11302007F0804047800447D40002040443D000001
S11302107F10284400417F40007C041804787C0847
S113022004047838444444387C141414080814141E
S1130230187C7C080404084854545420043F444067
S1130240203C4040207C1C2040201C3C4030403C52
S113025044281028440C5050503C4464544C4400EE
S11302600836410000007F0000004136080002010A
S1130270030201000000000000000000065F5F06AA
S11302800000000007070007070000147F7F147FA9
S11302907F1400242E6B6B3A120000466630180C53
S11302A0666200307A4F5D377A4800040703000025
S11302B0000000001C3E63410000000041633E1C3E
S11302C0000000082A3E1C1C3E2A0808083E3E087E
S11302D008000000A0E0600000000008080808080A
S11302E008000000006060000000006030180C0688
S11302F00301003E7F594D7F3E000042427F7F4014
S1130300400000627359496F660000226349497FC7
S1130310360000181C16137F7F1000276745457DA3
S11303203900003C7E4B4979300000036371190F9A
S1130330070000367F49497F360000064F49693F70
S11303401E000000006C6C0000000000A0EC6C00BB
S1130350000000081C366341000000141414141437
S1130360140000004163361C080000020351590FB9
S11303700600003E7F415D5D1F1E007C7E13137EE0
S11303807C0000417F7F49497F36001C3E63414128
S1130390632200417F7F41637F1C00417F7F495D71
S11303A0416300417F7F491D0103001C3E634151AD
S11303B07372007F7F08087F7F000000417F7F41C8
S11303C0000000307040417F3F0100417F7F081CE6
S11303D0776300417F7F41406070007F7F060C0699
S11303E07F7F007F7F060C187F7F001C3E63416384
S11303F03E1C00417F7F49090F06001E3F21717F8B
S11304005E0000417F7F19396F460026674D597B96
S113041032000003417F7F410300007F7F40407F23
S11304207F00001F3F60603F1F00007F7F30183057
S11304307F7F0063771C081C776300074F78784F31
S11304400700006773594D47637100007F7F414186
S11304500000000103060C183060000041417F7F5A
S1130460000000080C0603060C08008080808080D1
S11304708080800000030704000000207454543C72
S1130480784000413F7F44447C3800387C44446CCD
S1130490280000307848493F7F4000387C54545C41
S11304A0180000487E7F490302000098BCA4A4F809
S11304B07C0400417F7F08047C780000447D7D40FB
S11304C000000040C484FD7D000000417F7F10389F
S11304D06C440000417F7F400000007C7C0C180CC1
S11304E07C78007C7C04047C780000387C44447C68
S11304F038000084FCF8A4243C1800183C24A4F818
S1130500FC8400447C78441C180000485C545474F7
S113051024000000043E7F442400003C7C40403C16
S11305207C40001C3C60603C1C00003C7C603060F3
S11305307C3C00446C3810386C44009CBCA0A0FC8B
S11305407C00004C64745C4C64000008083E7741F5
S113055041000000000077770000004141773E0829
S113056008000002030103020301000011241FBE5E
S1130570CFEFD4E0DEBFCDBF14E0A0E0B1E0E4E50E
S1130580FCE102C005900D92A830B107D9F724E030
S1130590A8E0B4E001C01D92A631B207E1F70E94C1
S11305A049060C94280E0C94000082E090E090938D
S11305B087008093860081B3806181BBEAE8F0E024
S11305C0808188608083ABE8B0E08C9180648C93F8
S11305D08081816080838AE091E00E948909089586
S11305E0E1E0F4E191E090834081908130812081C9
S11305F08130C9F028F0823029F0833029F006C018
S1130600942F11C0932F0FC0922F0DC01F928F9360
S113061085E191E09F938F930E9473090F900F904F
S11306200F900F909FEF892F0895CF93DF930E942F
S11306309404EC0161EC8AE20E94600469EE89E2B0
S11306400E94600466E088E20E94600480E00E94E8
S1130650F60441E06FEF8BE20E94DA04CE01DF91F1
S1130660CF9108950F931F93CF93DF938C01FC01D7
S11306708281893020F086E391E00E948909F801A3
S1130680608171817695679576956795769567957E
S113069081E30E946004F80160816295660F607EC8
S11306A082E30E946004F801628185E30E94600491
S11306B0C0E0D0E009C0F801EC0FFD1F63818C2F6E
S11306C08A5C0E9460042196F801828190E0C81738
S11306D0D9078CF380E090E00E94B1048CE20E9480
S11306E07604DF91CF911F910F91089589E891E0ED
S11306F09F938F930E94730981B381BB85B78260F6
S113070085BF8BB780648BBF78940F900F9008954A
S11307101F920F920FB60F9211242F933F934F9372
S11307205F936F937F938F939F93AF93BF93EF9355
S1130730FF93809108049091090401969093090411
S1130740809308042FE38DE093E021508040904093
S1130750E1F700C0000080910804909109049F9380
S11307608F938CE991E09F938F930E9473096AE5BC
S113077070E084E090E00E94AD068CE093E00E947B
S11307806C07E0910804F09109040F900F900F900A
S11307900F903197E431F10508F078C0E85CFF4F21
S11307A00C94C60887EC91E00E946C0775C08AEC33
S11307B091E00E946C0770C08DEC91E00E946C0780
S11307C06BC080ED91E00E946C0766C083ED91E000
S11307D00E946C0760E070E081E090E00E94AD064A
S11307E085EB91E00E946C0781E090E090930B040C
S11307F080930A0451C086ED91E00E946C074CC0BE
S113080089ED91E00E946C0747C08CED91E00E9455
S11308106C0742C08FED91E00E946C073DC083ECF1
S113082091E00E946C0738C086EC91E00E946C074E
S113083033C089EC91E00E946C072EC08CEC91E0EF
S11308400E946C0729C08FEC91E00E946C0724C0C1
S113085082ED91E00E946C071FC085ED91E00E943B
S11308606C071AC088ED91E00E946C0715C08BEDEF
S113087091E00E946C0710C08EED91E00E946C071D
S11308800BC081EE91E00E946C0706C081E090E00D
S113089090930B0480930A048AB780648ABFFF9103
S11308A0EF91BF91AF919F918F917F916F915F91E4
S11308B04F913F912F910F900FBE0F901F9018955D
S11308C0CF93DF93D82FC62F80E00E94FE0782E0EB
S11308D00E9412088D2F0E9412088C2F0E94120869
S11308E081E00E94FE07DF91CF910895CF93C82F36
S11308F080E00E94FE0783E00E9412088C2F0E9471
S113090012080E941608C82F81E00E94FE078C2F4F
S1130910CF91089580E00E94FE0780EC0E941208A7
S113092081E00E94FE0708950E9409080E948A043B
S11309302FE986E891E0215080409040E1F700C023
S113094000008EE00E947604807E803839F084EEC8
S113095091E00E9489098FEF9FEF089580E090E075
S11309600895CF93DF93EC0180E00E94FE07209767
S1130970A1F0C130D10599F0C230D10591F0DF93D7
S1130980CF9388E192E09F938F930E9473090F9015
S11309900F900F900F9080E005C081E803C082E8BB
S11309A001C084E80E94120881E00E94FE07DF91E2
S11309B0CF9108951F93CF93DF93182FD62FC42F71
S11309C080E00E94FE0785E00E941208812F0E94A9
S11309D012088D2F0E9412088C2F0E94120881E0A9
S11309E00E94FE07DF91CF911F910895482F60EE7A
S11309F08FE00E94DA040895CF93DF9300D000D0F3
S1130A00CDB7DEB781E090E09A8389830E9498078E
S1130A1089819A8168E770E00E94AD0687E592E0DB
S1130A200E946C070E94F50590E09C838B8324C090
S1130A300E94F50590E09C838B8385990EC0898183
S1130A409A819F938F9389E592E09F938F930E945D
S1130A5073090F900F900F900F902FEE89E492E09E
S1130A60215080409040E1F700C0000089819A81C4
S1130A70019711F4859B04C08B819C81892BC1F261
S1130A8089819A81019711F4859B4EC08B819C8149
S1130A90039711F589819A810297F4F082E792E035
S1130AA00E94890989819A8168E770E00E94AD06F5
S1130AB08DE093E00E946C0789819A8101979A8363
S1130AC0898389819A8168E770E00E94AD0687E591
S1130AD092E00E946C0725C08B819C81049709F5E4
S1130AE089819A810797ECF486E792E00E9489094C
S1130AF089819A8168E770E00E94AD068DE093E0F9
S1130B000E946C0789819A8101969A8389838981DD
S1130B109A8168E770E00E94AD0687E592E00E9442
S1130B206C071C821B82A8CF0E94BB060E94E907A7
S1130B300F900F900F900F90DF91CF91089581B394
S1130B4081BB82B3806282BB0895CF92DF92EF9221
S1130B50FF92CF93DF9380E00E94F002C82FD0E091
S1130B60C05AD1096E0181E00E94F00290E0825ADD
S1130B7091097C012496299710F4C12CD12C049658
S1130B80099710F4E12CF12C8DE9C8168FEFD806E3
S1130B9034F40F2EFCE9CF2EDD24DA94F02D8DE908
S1130BA0E8168FEFF80634F40F2EFCE9EF2EFF243D
S1130BB0FA94F02D8CE5C816D1042CF00F2EF4E62F
S1130BC0CF2ED12CF02D8CE5E816F1042CF00F2E4D
S1130BD0F4E6EF2EF12CF02DC701B601DF91CF9191
S1130BE0FF90EF90DF90CF9008950E94A5056E3C92
S1130BF04FEF74075CF06333710554F48E3C2FEFB0
S1130C00920744F0C39744F083E0089581E0089587
S1130C1082E0089584E0089580E008950F931F937F
S1130C20CF93DF93CDB7DEB72B970FB6F894DEBF23
S1130C300FBECDBF0E94A5058E010F5F1F4F8BE035
S1130C40F80111928A95E9F781E090E09A8389830B
S1130C5084E08B8380E00E94F0028C8381E00E9418
S1130C60F0028D8382E00E94F0028E8380B385FBC4
S1130C70882780F98F83C8010E9432032B960FB610
S1130C80F894DEBF0FBECDBFDF91CF911F910F91BE
S1130C900895CF93DF938FE10E94AE080E94BB08B2
S1130CA00E94D5020E949F050E94DD060E947603E1
S1130CB00E941503892B39F08CE792E00E94890980
S1130CC0CFEFDFEF20C00E941D08EC01892B39F023
S1130CD08EE892E00E948909CFEFDFEF14C00E94F2
S1130CE0FC0483EF9EE70197F1F700C000000E9427
S1130CF00E0680910A0490910B04892B91F380EAEB
S1130D0092E00E948909CE01DF91CF9108958093EA
S1130D1000100895CF93DF938038910590F4EC018F
S1130D208F700E948706CE01807F992795958795BD
S1130D30959587959595879595958795805F0E945C
S1130D408706DF91CF910895282F392F2830310558
S1130D5018F480550E9487060895CF93DF93EB0122
S1130D600E94A406CE010E948A06DF91CF910895C5
S1130D708093001208950F931F93CF93DF9300E0A5
S1130D8010E013C0C8010E94A40680E090E00E9415
S1130D908A06C0E0D0E004C080E00E94B806219634
S1130DA0C038D105CCF30F5F1F4F0830110554F341
S1130DB0DF91CF911F910F9108958EEA0E948706CB
S1130DC081EA0E9487068AED0E94870682E10E94DA
S1130DD0870688EC0E94870688EA0E9487068FE3CC
S1130DE00E94870685ED0E94870680E80E94870698
S1130DF081E80E94870680E50E94870689ED0E94AB
S1130E00870681E20E94870680E20E94870682E0CC
S1130E100E9487068BED0E94870680E30E94870666
S1130E208DEA0E94870680E00E94870684EA0E9479
S1130E30870686EA0E9487068FEA0E9487060E9438
S1130E40BB0608951F93CF93DF9390EE980F9F35C1
S1130E5098F018C0E12FF0E0B097EE0FFF1FEE0FEF
S1130E60FF1FEE0FFF1FEC0FFD1FED58FD4F849188
S1130E700E94B806219603C0182FC0E0D0E0C83005
S1130E80D10544F3DF91CF911F9108951F93CF9320
S1130E90DF9390EE980F9F35A8F01AC0212F30E011
S1130EA020523109F901EE0FFF1FEE0FFF1FE20F71
S1130EB0F31FEC0FFD1FE856FF4F84910E94B80604
S1130EC0219603C0182FC0E0D0E0C530D10534F31B
S1130ED0DF91CF911F9108950F931F93CF93DF93C9
S1130EE08C01C0E0D0E003C00E9422072196F801E3
S1130EF0EC0FFD1F80818111F7CFDF91CF911F91FE
S1130F000F9108950F931F93CF93DF938C01C0E04B
S1130F10D0E003C00E9446072196F801EC0FFD1FA4
S1130F2080818111F7CFDF91CF911F910F910895A7
S1130F3061E070E080E090E00E94AD068FEA92E00C
S1130F400E946C0761E070E081E090E00E94AD06D1
S1130F508FEB92E00E94820761E070E082E090E013
S1130F600E94AD0685EC92E00E94820761E070E089
S1130F7083E090E00E94AD068FEC92E00E9482072D
S1130F8061E070E084E090E00E94AD0689ED92E0BB
S1130F900E94820761E070E085E090E00E94AD0667
S1130FA086EE92E00E94820761E070E086E090E0C5
S1130FB00E94AD0682EF92E00E94820761E070E039
S1130FC087E090E00E94AD068CEF92E00E946C07EF
S1130FD0089561E070E084E090E00E94AD0686E050
S1130FE093E00E946C0769E670E084E090E00E9460
S1130FF0AD0684EC91E00E946C070895813019F4E9
S113100098B3906198BB811103C088B38F7E88BB6D
S1131010089587B3806B87BB81E58DB981E00E9419
S1131020FE0708958FB9779BFECF089580E00E9454
S11310301208779BFECF8FB10895EF92FF920F9322
S11310401F93CF93DF938FE093E00E9489090E945E
S113105018097C010E941D09C0E0D0E000E010E006
S113106020C00E941809FE01F85E808320812817A1
S1131070B9F099279F938F931F922F93DF93CF9368
S113108086E293E09F938F930E9473090F5F1F4F33
S11310908DB79EB708960FB6F8949EBF0FBE8DBF4E
S11310A02196C11598E0D907E0F2C7010E941D09F5
S11310B0C0E0D0E0E12CF12C20C00E941809FE0110
S11310C0F85E20812817C1F099279F938F931F9270
S11310D02F93DF93CF9380E693E09F938F930E94A7
S11310E073098FEFE81AF80A8DB79EB708960FB602
S11310F0F8949EBF0FBE8DBF2196C11598E0D90705
S1131100E0F2E114F104B1F401151105B1F4FF9218
S1131110EF921F930F938EE993E09F938F930E9416
S113112073090F900F900F900F900F900F9080E025
S113113090E005C081E090E002C081E090E0DF91A2
S1131140CF911F910F91FF90EF9008955D9BFECF7B
S11311508CB908955F9BFECF8CB1089510BC89B9FA
S113116088E18AB986E880BD6AEA78E086EA98E090
S11311700E942809089585B7806885BF80B780627A
S113118080BF8BEF93E00E9489090895EE0FFF1F43
S11311900590F491E02D09948F929F92AF92BF92A3
S11311A0CF92DF92EF92FF92CF93DF93EC016881AD
S11311B079818A819B81611571058105910521F4ED
S11311C064E279ED8BE597E02DE133EF41E050E007
S11311D00E948E0D49015A019B01AC01A7EAB1E4BA
S11311E00E94AD0D6B017C01ACEEB4EFA50194013E
S11311F00E94BB0DDC01CB018C0D9D1DAE1DBF1DDE
S1131200B7FF03C00197A109B04888839983AA83D3
S1131210BB839F77DF91CF91FF90EF90DF90CF90CA
S1131220BF90AF909F908F9008950E94CC0808952E
S113123080E091E00E94CC080895A0E0B0E08093A3
S1131240000190930101A0930201B093030108955A
S11312500F931F93CF93DF93009731F461157105BA
S113126019F480E090E03AC08B01EC016EE070E08C
S113127081E090E00E949A0BFC01892B91F380E8B5
S113128083830115110571F01387028781E8838335
S113129080910C0490910D04892B21F4F0930D049A
S11312A0E0930C042097C9F0D187C08783818260C2
S11312B0838380910E0490910F04892B71F4F09331
S11312C00F04E0930E048091100490911104892B73
S11312D021F4F0931104E0931004CF01DF91CF9136
S11312E01F910F910895A0E0B0E0E9E7F9E00C94B4
S11312F0D00DAE014B5F5F4FFA0161917191AF0167
S113130080910E0490910F040E94B909E2E00C94BC
S1131310EC0D0F931F93CF93DF93E0910E04F091A4
S11313200F04238121FF1BC08C01D0E0C0E0F80131
S113133081918F0160910E0470910F04DB01189666
S1131340ED91FC911997882331F00995892B79F354
S1131350DFEFCFEFECCF8AE00995892B19F08FEFFF
S11313609FEF02C08D2F9C2FDF91CF911F910F9182
S11313700895ABE0B0E0EFEBF9E00C94C00D6C0124
S11313807B018A01FC0117821682838181FFCCC113
S1131390CE0101963C01F6019381F70193FD8591FD
S11313A093FF81917F01882309F4BAC1853239F40E
S11313B093FD859193FF81917F01853229F4B601D4
S11313C090E00E94F40CE7CF912C212C312CFFE10A
S11313D0F315D8F08B3279F038F4803279F0833217
S11313E0A1F4232D20611DC08D3261F0803369F496
S11313F0232D216016C0832D8260382EE32DE460F6
S11314003E2E2AC0F32DF8601DC037FC2DC020ED00
S1131410280F2A3040F08E32B9F436FC81C1232DD6
S11314202064322E19C036FE06C08AE0989E200D34
S11314301124922E11C0EAE02E9E200D1124222E9A
S1131440F32DF0623F2E08C08C3621F4832D806882
S1131450382E02C0883641F4F70193FD859193FF3D
S113146081917F018111B3CF982F9F7D9554933043
S113147028F40C5F1F4F9FE399830DC0833631F02E
S1131480833771F0833509F059C021C0F801808198
S113149089830E5F1F4F88248394912C530113C0BA
S11314A02801F2E04F0E511CF801A080B18036FEF5
S11314B003C0692D70E002C06FEF7FEFC5010E9489
S11314C0E90C4C018201F32DFF773F2E16C0280151
S11314D022E0420E511CF801A080B18036FE03C008
S11314E0692D70E002C06FEF7FEFC5010E94D70C39
S11314F04C01F32DF0683F2E820133FC1BC0822D7A
S113150090E088169906B0F4B60180E290E00E945B
S1131510F40C2A94F4CFF50137FC859137FE8191C0
S11315205F01B60190E00E94F40C21102A9421E09E
S1131530821A91088114910471F7E8C0843611F07D
S1131540893641F5F80137FE07C0608171818281D7
S113155093810C5F1F4F08C060817181072E000CBE
S1131560880B990B0E5F1F4FF32DFF763F2E97FFCD
S113157009C090958095709561957F4F8F4F9F4FCF
S1131580F0683F2E2AE030E0A3010E94300D882E3F
S1131590861845C0853731F4232D2F7EB22E2AE0DC
S11315A030E025C0932D997FB92E8F36C1F018F401
S11315B0883579F0B5C0803719F0883721F0B0C08C
S11315C0E92FE061BE2EB4FE0DC0FB2DF460BF2EEA
S11315D009C034FE0AC0292F2660B22E06C028E0B6
S11315E030E005C020E130E002C020E132E0F80143
S11315F0B7FE07C060817181828193810C5F1F4FA8
S113160006C06081718180E090E00E5F1F4FA301EE
S11316100E94300D882E8618FB2DFF773F2E36FE54
S11316200DC0232D2E7FA22E891458F434FE0BC036
S113163032FC09C0832D8E7EA82E05C0B82CA32CA5
S113164003C0B82C01C0B92CA4FE0FC0FE01E80DE4
S1131650F11D8081803321F49A2D997EA92E09C031
S1131660A2FE06C0B394B39404C08A2D867809F010
S1131670B394A3FC11C0A0FE06C0B21488F4280CD5
S1131680922C9B180EC0B21460F4B60180E290E074
S11316900E94F40CB394F7CFB21418F42B1802C0C0
S11316A0982C212CA4FE10C0B60180E390E00E9487
S11316B0F40CA2FE17C0A1FC03C088E790E002C0AE
S11316C088E590E0B6010CC08A2D867859F0A1FE19
S11316D002C08BE201C080E2A7FC8DE2B60190E07B
S11316E00E94F40C891438F4B60180E390E00E945F
S11316F0F40C9A94F7CF8A94F301E80DF11D8081DC
S1131700B60190E00E94F40C8110F5CF222009F478
S113171042CEB60180E290E00E94F40C2A94F6CF07
S1131720F6018681978102C08FEF9FEF2B96E2E14D
S11317300C94DC0D0F931F93CF93DF93869F80014E
S1131740879F100D969F100D1124C8010E94B60B9F
S1131750EC01009729F0A80160E070E00E94E20C1F
S1131760CE01DF91CF911F910F9108950F931F9395
S1131770CF93DF938230910510F482E090E0E09102
S11317801404F091150420E030E0A0E0B0E03097BC
S113179019F1408151810281138148175907C8F01A
S11317A08417950769F4109731F012960C931297E9
S11317B013961C9327C0009314041093150422C09D
S11317C02115310519F04217530718F49A01BD0188
S11317D0EF01DF01F801DBCF21153105F9F0281BFA
S11317E0390B2430310580F48A819B8161157105A0
S11317F021F0FB019383828304C0909315048093AA
S11318001404FE01329644C0FE01E20FF31F8193DB
S1131810919322503109398328833AC020911204CC
S113182030911304232B41F42091060130910701D8
S11318303093130420931204209104013091050184
S11318402115310541F42DB73EB74091080150915F
S11318500901241B350BE0911204F0911304E217E3
S1131860F307A0F42E1B3F0B2817390778F0AC01BF
S11318704E5F5F4F2417350748F04E0F5F1F50939C
S11318801304409312048193919302C0E0E0F0E0CA
S1131890CF01DF91CF911F910F910895CF93DF93E3
S11318A0009709F481C0FC01329713821282A0913F
S11318B01404B0911504109781F420813181820FB2
S11318C0931F20911204309113042817390751F5FE
S11318D0F0931304E093120467C0ED0120E030E0BC
S11318E0CE17DF0740F44A815B819E014115510503
S11318F0F1F0EA01F5CFD383C28340815181840F93
S1131900951FC817D90759F488819981840F951FA9
S11319100296918380838A819B819383828321159C
S1131920310529F4F0931504E09314043DC0E90152
S1131930FB83EA8349915991C40FD51FEC17FD0726
S113194061F480819181840F951F0296E901998346
S11319508883828193819B838A83E0E0F0E01296FE
S11319608D919C911397009719F0FD01DC01F7CF3D
S11319708D919C9111979D012E5F3F4F820F931F74
S113198020911204309113042817390769F4309711
S113199029F4109215041092140402C013821282C6
S11319A0B0931304A0931204DF91CF910895FC0126
S11319B00590615070400110D8F7809590958E0F76
S11319C09F1F0895DC0101C06D9341505040E0F722
S11319D00895FC016150704001900110D8F7809582
S11319E090958E0F9F1F08950F931F93CF93DF93AE
S11319F0FB01238121FD03C08FEF9FEF2CC022FF49
S1131A0016C046815781248135814217530744F417
S1131A10A081B1819D012F5F3F4F318320838C933F
S1131A20268137812F5F3F4F3783268314C08B0174
S1131A30EC01FB010084F185E02D0995892BE1F689
S1131A40D80116968D919C911797019617969C93A1
S1131A508E931697CE01DF91CF911F910F91089528
S1131A60FA01AA27283051F1203181F1E8946F93CB
S1131A706E7F6E5F7F4F8F4F9F4FAF4FB1E03ED071
S1131A80B4E03CD0670F781F891F9A1FA11D680F0F
S1131A90791F8A1F911DA11D6A0F711D811D911D42
S1131AA0A11D20D009F468943F912AE0269F1124B7
S1131AB03019305D3193DEF6CF010895462F47701B
S1131AC0405D4193B3E00FD0C9F7F6CF462F4F7076
S1131AD0405D4A3318F0495D31FD4052419302D0D4
S1131AE0A9F7EACFB4E0A69597958795779567957A
S1131AF0BA95C9F700976105710508959B01AC017A
S1131B000A2E06945795479537952795BA95C9F7A0
S1131B10620F731F841F951FA01D0895052E97FB48
S1131B201EF400940E94A50D57FD07D00E94F70DE6
S1131B3007FC03D04EF40C94A50D509540953095B8
S1131B4021953F4F4F4F5F4F089590958095709525
S1131B5061957F4F8F4F9F4F08950E94190EA59F47
S1131B60900DB49F900DA49F800D911D1124089594
S1131B70B7FF0C94AD0D0E94AD0D821B930B08951D
S1131B802F923F924F925F926F927F928F929F9289
S1131B90AF92BF92CF92DF92EF92FF920F931F9377
S1131BA0CF93DF93CDB7DEB7CA1BDB0B0FB6F89428
S1131BB0DEBF0FBECDBF09942A88398848885F8468
S1131BC06E847D848C849B84AA84B984C884DF80D9
S1131BD0EE80FD800C811B81AA81B981CE0FD11DBD
S1131BE00FB6F894DEBF0FBECDBFED010895A1E29C
S1131BF01A2EAA1BBB1BFD010DC0AA1FBB1FEE1F83
S1131C00FF1FA217B307E407F50720F0A21BB30BCD
S1131C10E40BF50B661F771F881F991F1A9469F749
S1131C2060957095809590959B01AC01BD01CF01A5
S1131C300895A29FB001B39FC001A39F700D811DA1
S1131C401124911DB29F700D811D1124911D0895C1
S1071C50F894FFCF32
S1131C54010000000000160420002D50574D206997
S1131C646E69742D004368616E6E656C206E6F74CA
S1131C7420666F756E642C206172672067697665CF
S1131C846E3A202564004552524F522C206D6573E0
S1131C9473616765206C656E6774682076616C7522
S1131CA46520746F2068696768200D006D73672070
S1131CB472656365697665642049443A2020256425
S1131CC409006D73672072656365697665642064D1
S1131CD46174612025730D0A002D496E7465727256
S1131CE475707420696E69742D0A0D00496E7465EB
S1131CF4727275707465642E20436F756E743A2025
S1131D0425640A0D002D2D2D594F5520574F4E2D66
S1131D142D2D0031300031310031320031330031A6
S1131D24340031350031360031370031380031396F
S1131D3400323000204D4350323531352069732050
S1131D444E4F5420696E20636F6E666967757261C5
S1131D5474696F6E206D6F646520616674657220AA
S1131D6472657365742021004E6F7420636F727200
S1131D746563742062756666657220696E20667593
S1131D846E6374696F6E206D6370323531355F72C2
S1131D9474732C206275666665722076616C756551
S1131DA43A2025640D0A003C00434C49434B454406
S1131DB4204D656E7520696E6465783A2025640D3E
S1131DC40A0055500D00444F574E0D0043616E20D8
S1131DD4696E6974206661696C6564200D005352F0
S1131DE4414D2074657374206661696C65640D00EB
S1131DF447414D452046494E49534845440D002D1D
S1131E042D2D4D41494E204D454E552D2D2D00204F
S1131E14506C617900205475746F7269616C002090
S1131E245072616374696365002053656C656374FF
S1131E34207465616D00204869676873636F726517
S1131E4473002053657474696E6773003C3C2052BC
S1131E54657475726E0053636F72653A2020005383
S1131E6474617274696E67205352414D20746573B2
S1131E74742E2E2E0D005772697465207068617378
S1131E8465206572726F723A206578745F72616D51
S1131E945B2534645D203D20253032582028736846
S1131EA46F756C642062652025303258290D0A0050
S1131EB452657472696576616C207068617365201B
S1131EC46572726F723A206578745F72616D5B2516
S1131ED434645D203D2025303258202873686F75A2
S1131EE46C642062652025303258290D0A0053524F
S1131EF4414D207465737420636F6D706C657465F3
S1131F04642077697468200D0A253464206572722C
S1131F146F727320696E20777269746520706861CA
S1131F24736520616E64200D0A2534642065727221
S1131F346F727320696E2072657472696576616C60
S1131F442070686173650D0A0D0A002D584D454DC6
S10B1F5420696E69742D000080
S9030000FC
