S00D00006E6F6465312E7372656340
S11300000C9438000C9455000C9455000C94550035
S11300100C9455000C9455000C9455000C94550008
S11300200C9455000C9455000C9455000C945500F8
S11300300C9455000C9455000C9455000C945500E8
S11300400C9455000C9455000C9455000C945500D8
S11300500C9455000C9455000C9455000C945500C8
S11300600C9455000C9455000C9455000C945500B8
S113007011241FBECFEFD4E0DEBFCDBF13E0A0E05C
S1130080B1E0E6ECF1E102C005900D92A434B107B1
S1130090D9F723E0A4E4B3E001C01D92AE34B20763
S11300A0E1F70E94E7010C94E1080C94000082E05F
S11300B090E0909387008093860081B3806181BB38
S11300C0EAE8F0E0808188608083ABE8B0E08C915E
S11300D080648C9380818160808385E191E00E94BB
S11300E042040895CF93DF930E94A401EC0140E001
S11300F060E08AE20E94C10140E060E089E20E947F
S1130100C10140E060E088E20E94C1018AE20E94ED
S1130110860180E00E94DD0141E06FEF8BE20E94E6
S1130120C101CE01DF91CF9108950F931F93CF9317
S1130130DF938C01FC018281893020F081E491E01D
S11301400E94420448E068E080E30E94C101F80193
S113015060817181769567957695679576956795B3
S113016081E30E947001F80160816295660F607EF0
S113017082E30E947001F801628185E30E947001AC
S1130180C0E0D0E009C0F801EC0FFD1F63818C2FA3
S11301908A5C0E9470012196F801828190E0C81760
S11301A0D9078CF38CE20E948601807A21F087E6DD
S11301B091E00E944204DF91CF911F910F91089525
S11301C0FF920F931F93CF93DF938C0182E60E94DB
S11301D08601C82FC295C695C77081E60E94860124
S11301E090E0880F991F880F991F880F991F8C0F13
S11301F0911DF8019183808385E60E948601F82E83
S1130200F8018283C0E0D0E009C08C2F8A590E9493
S11302108601F801EC0FFD1F838321968F2D90E05A
S1130220C817D90794F3C801DF91CF911F910F919B
S1130230FF9008950F931F93CF93DF93CDB7DEB74D
S1130240A1970FB6F894DEBF0FBECDBF0E949A01EE
S113025080E40E94DD018BE0EAE0F1E0DE0111962A
S113026001900D928A95E1F78E01045F1F4F8BE098
S1130270F80111928A95E9F7CE0101960E94950042
S1130280CE0147960E94E0008BE0FE017796D801EC
S113029001900D928A95E1F78D858F938C858F93CC
S11302A087E791E09F938F930E942C04CE010F96D1
S11302B09F938F938DE891E09F938F930E942C04DA
S11302C00FB6F894DEBF0FBECDBFA1960FB6F8945B
S11302D0DEBF0FBECDBFDF91CF911F910F91089567
S11302E0CF93DF93D82FC62F80E00E94BD0282E017
S11302F00E94D1028D2F0E94D1028C2F0E94D10224
S113030081E00E94BD02DF91CF910895CF93C82F61
S113031080E00E94BD0283E00E94D1028C2F0E94E3
S1130320D1020E94D502C82F81E00E94BD028C2F09
S1130330CF91089580E00E94BD0280EC0E94D1021A
S113034081E00E94BD0208950E94C8020E949A01A1
S11303502FE986E891E0215080409040E1F700C009
S113036000008EE00E948601807E803839F084EAA5
S113037091E00E9442048FEF9FEF089580E090E0A7
S113038008951F93CF93DF93182FD62FC42F80E0A7
S11303900E94BD0285E00E94D102812F0E94D102F9
S11303A08D2F0E94D1028C2F0E94D10281E00E94E5
S11303B0BD02DF91CF911F910895482F60EE8FE029
S11303C00E94C101089582B3806282BB08958FE1C7
S11303D00E946D030E947A030E9457000E94E30169
S11303E00E9478020E947200892B29F087E192E032
S11303F00E9442042FC00E94DC02892B29F089E26A
S113040092E00E94420426C00E941A018EE00E94DB
S113041086011F928F938BE392E09F938F930E94A8
S11304202C040F900F900F900F900E941A012FE749
S11304308FE492E1215080409040E1F700C0000039
S11304402FE38DE093E0215080409040E1F700C01D
S11304500000EBCF8FEF9FEF089580930010089575
S1130460CF93DF938038910590F4EC018F700E9454
S11304702D02CE01807F992795958795959587952F
S11304809595879595958795805F0E942D02DF91BC
S1130490CF910895282F392F2830310518F480552D
S11304A00E942D0208958093001208950F931F93C4
S11304B0CF93DF9300E010E013C0C8010E944A020A
S11304C080E090E00E943002C0E0D0E004C080E010
S11304D00E9453022196C038D105CCF30F5F1F4F01
S11304E00830110554F3DF91CF911F910F910895B6
S11304F08EEA0E942D0281EA0E942D028AED0E945A
S11305002D0282E10E942D0288EC0E942D0288EACD
S11305100E942D028FE30E942D0285ED0E942D0280
S113052080E80E942D0281E80E942D0280E50E944D
S11305302D0289ED0E942D0281E20E942D0280E2AB
S11305400E942D0282E00E942D028BED0E942D025A
S113055080E30E942D028DEA0E942D0280E00E9419
S11305602D0284EA0E942D0286EA0E942D028FEA5F
S11305700E942D020E9456020895813019F498B306
S1130580906198BB811103C088B38F7E88BB0895A6
S113059087B3806B87BB81E58DB981E00E94BD0282
S11305A008958FB9779BFECF089580E00E94D10211
S11305B0779BFECF8FB10895EF92FF920F931F9315
S11305C0CF93DF938CE492E00E9442040E94D10313
S11305D07C010E94D603C0E0D0E000E010E020C01F
S11305E00E94D103FE01F85E808320812817B9F0B0
S11305F099279F938F931F922F93DF93CF9383E633
S113060092E09F938F930E942C040F5F1F4F8DB72E
S11306109EB708960FB6F8949EBF0FBE8DBF219665
S1130620C11598E0D907E0F2C7010E94D603C0E0E3
S1130630D0E0E12CF12C20C00E94D103FE01F85E31
S113064020812817C1F099279F938F931F922F938E
S1130650DF93CF938DE992E09F938F930E942C04B4
S11306608FEFE81AF80A8DB79EB708960FB6F8947C
S11306709EBF0FBE8DBF2196C11598E0D907E0F249
S1130680E114F104B1F401151105B1F4FF92EF92F4
S11306901F930F938BED92E09F938F930E942C04F2
S11306A00F900F900F900F900F900F9080E090E0BC
S11306B005C081E090E002C081E090E0DF91CF913D
S11306C01F910F91FF90EF9008955D9BFECF8CB921
S11306D008955F9BFECF8CB1089510BC89B988E161
S11306E08AB986E880BD69E673E085E693E00E94F6
S11306F0E103089585B7806885BF80B7806280BFB5
S113070088E393E00E94420408958F929F92AF92EF
S1130710BF92CF92DF92EF92FF92CF93DF93EC01DF
S1130720688179818A819B816115710581059105B3
S113073021F464E279ED8BE597E02DE133EF41E0BC
S113074050E00E94470849015A019B01AC01A7EA05
S1130750B1E40E9466086B017C01ACEEB4EFA50124
S113076094010E947408DC01CB018C0D9D1DAE1D0B
S1130770BF1DB7FF03C00197A109B04888839983BF
S1130780AA83BB839F77DF91CF91FF90EF90DF9097
S1130790CF90BF90AF909F908F9008950E94850353
S11307A0089580E091E00E9485030895A0E0B0E000
S11307B08093000190930101A0930201B09303017F
S11307C008950F931F93CF93DF93009731F461152E
S11307D0710519F480E090E03AC08B01EC016EE001
S11307E070E081E090E00E945306FC01892B91F3B4
S11307F080E883830115110571F01387028781E86E
S113080083838091440390914503892B21F4F093D1
S11308104503E09344032097C9F0D187C0878381BF
S1130820826083838091460390914703892B71F4FE
S1130830F0934703E0934603809148039091490362
S1130840892B21F4F0934903E0934803CF01DF910E
S1130850CF911F910F910895A0E0B0E0E2E3F4E09E
S11308600C948908AE014B5F5F4FFA01619171915D
S1130870AF0180914603909147030E947204E2E025
S11308800C94A5080F931F93CF93DF93E091460335
S1130890F0914703238121FF1BC08C01D0E0C0E00D
S11308A0F80181918F016091460370914703DB0148
S11308B01896ED91FC911997882331F00995892BAD
S11308C079F3DFEFCFEFECCF8AE00995892B19F0AC
S11308D08FEF9FEF02C08D2F9C2FDF91CF911F913F
S11308E00F910895ABE0B0E0E8E7F4E00C947908E8
S11308F06C017B018A01FC0117821682838181FFCE
S1130900CCC1CE0101963C01F6019381F70193FD20
S1130910859193FF81917F01882309F4BAC18532BF
S113092039F493FD859193FF81917F01853229F4F8
S1130930B60190E00E94AD07E7CF912C212C312C19
S1130940FFE1F315D8F08B3279F038F4803279F086
S11309508332A1F4232D20611DC08D3261F08033D8
S113096069F4232D216016C0832D8260382EE32D77
S1130970E4603E2E2AC0F32DF8601DC037FC2DC064
S113098020ED280F2A3040F08E32B9F436FC81C1B4
S1130990232D2064322E19C036FE06C08AE0989EAC
S11309A0200D1124922E11C0EAE02E9E200D112458
S11309B0222EF32DF0623F2E08C08C3621F4832DB5
S11309C08068382E02C0883641F4F70193FD859182
S11309D093FF81917F018111B3CF982F9F7D95540F
S11309E0933028F40C5F1F4F9FE399830DC0833627
S11309F031F0833771F0833509F059C021C0F80113
S1130A00808189830E5F1F4F88248394912C530126
S1130A1013C02801F2E04F0E511CF801A080B180F0
S1130A2036FE03C0692D70E002C06FEF7FEFC50191
S1130A300E94A2074C018201F32DFF773F2E16C0BE
S1130A40280122E0420E511CF801A080B18036FE3C
S1130A5003C0692D70E002C06FEF7FEFC5010E94F3
S1130A6090074C01F32DF0683F2E820133FC1BC02C
S1130A70822D90E088169906B0F4B60180E290E0E9
S1130A800E94AD072A94F4CFF50137FC859137FE17
S1130A9081915F01B60190E00E94AD0721102A9474
S1130AA021E0821A91088114910471F7E8C0843618
S1130AB011F0893641F5F80137FE07C06081718174
S1130AC0828193810C5F1F4F08C060817181072E62
S1130AD0000C880B990B0E5F1F4FF32DFF763F2EF2
S1130AE097FF09C090958095709561957F4F8F4FC2
S1130AF09F4FF0683F2E2AE030E0A3010E94E907EF
S1130B00882E861845C0853731F4232D2F7EB22ECA
S1130B102AE030E025C0932D997FB92E8F36C1F09D
S1130B2018F4883579F0B5C0803719F0883721F08A
S1130B30B0C0E92FE061BE2EB4FE0DC0FB2DF46001
S1130B40BF2E09C034FE0AC0292F2660B22E06C06B
S1130B5028E030E005C020E130E002C020E132E0CE
S1130B60F801B7FE07C060817181828193810C5FB7
S1130B701F4F06C06081718180E090E00E5F1F4FBF
S1130B80A3010E94E907882E8618FB2DFF773F2ECC
S1130B9036FE0DC0232D2E7FA22E891458F434FE68
S1130BA00BC032FC09C0832D8E7EA82E05C0B82C44
S1130BB0A32C03C0B82C01C0B92CA4FE0FC0FE01A5
S1130BC0E80DF11D8081803321F49A2D997EA92EA0
S1130BD009C0A2FE06C0B394B39404C08A2D8678DB
S1130BE009F0B394A3FC11C0A0FE06C0B21488F4AB
S1130BF0280C922C9B180EC0B21460F4B60180E24B
S1130C0090E00E94AD07B394F7CFB21418F42B18F8
S1130C1002C0982C212CA4FE10C0B60180E390E001
S1130C200E94AD07A2FE17C0A1FC03C088E790E0B4
S1130C3002C088E590E0B6010CC08A2D867859F090
S1130C40A1FE02C08BE201C080E2A7FC8DE2B601E6
S1130C5090E00E94AD07891438F4B60180E390E077
S1130C600E94AD079A94F7CF8A94F301E80DF11D21
S1130C708081B60190E00E94AD078110F5CF22205B
S1130C8009F442CEB60180E290E00E94AD072A94B6
S1130C90F6CFF6018681978102C08FEF9FEF2B96E6
S1130CA0E2E10C9495080F931F93CF93DF93869FF3
S1130CB08001879F100D969F100D1124C8010E947A
S1130CC06F06EC01009729F0A80160E070E00E9433
S1130CD09B07CE01DF91CF911F910F9108950F9340
S1130CE01F93CF93DF938230910510F482E090E05C
S1130CF0E0914C03F0914D0320E030E0A0E0B0E03F
S1130D00309719F1408151810281138148175907A5
S1130D10C8F08417950769F4109731F012960C9374
S1130D20129713961C9327C000934C0310934D0302
S1130D3022C02115310519F04217530718F49A01FE
S1130D40BD01EF01DF01F801DBCF21153105F9F019
S1130D50281B390B2430310580F48A819B8161156D
S1130D60710521F0FB019383828304C090934D03AA
S1130D7080934C03FE01329644C0FE01E20FF31F40
S1130D808193919322503109398328833AC0209169
S1130D904A0330914B03232B41F4209106013091F7
S1130DA0070130934B0320934A03209104013091AF
S1130DB005012115310541F42DB73EB740910801D5
S1130DC050910901241B350BE0914A03F0914B0328
S1130DD0E217F307A0F42E1B3F0B2817390778F00E
S1130DE0AC014E5F5F4F2417350748F04E0F5F1F6D
S1130DF050934B0340934A038193919302C0E0E0E4
S1130E00F0E0CF01DF91CF911F910F910895CF931F
S1130E10DF93009709F481C0FC0132971382128298
S1130E20A0914C03B0914D03109781F4208131813E
S1130E30820F931F20914A0330914B0328173907DF
S1130E4051F5F0934B03E0934A0367C0ED0120E0B2
S1130E5030E0CE17DF0740F44A815B819E014115E3
S1130E605105F1F0EA01F5CFD383C283408151816A
S1130E70840F951FC817D90759F488819981840F65
S1130E80951F0296918380838A819B8193838283B9
S1130E902115310529F4F0934D03E0934C033DC033
S1130EA0E901FB83EA8349915991C40FD51FEC17DB
S1130EB0FD0761F480819181840F951F0296E901F9
S1130EC099838883828193819B838A83E0E0F0E025
S1130ED012968D919C911397009719F0FD01DC01F6
S1130EE0F7CF8D919C9111979D012E5F3F4F820FFB
S1130EF0931F20914A0330914B032817390769F453
S1130F00309729F410924D0310924C0302C01382BF
S1130F101282B0934B03A0934A03DF91CF910895BB
S1130F20FC010590615070400110D8F780959095B0
S1130F308E0F9F1F0895DC0101C06D9341505040F6
S1130F40E0F70895FC016150704001900110D8F75A
S1130F50809590958E0F9F1F08950F931F93CF93A5
S1130F60DF93FB01238121FD03C08FEF9FEF2CC092
S1130F7022FF16C0468157812481358142175307C9
S1130F8044F4A081B1819D012F5F3F4F31832083C1
S1130F908C93268137812F5F3F4F3783268314C07C
S1130FA08B01EC01FB010084F185E02D0995892B6F
S1130FB0E1F6D80116968D919C9117970196179694
S1130FC09C938E931697CE01DF91CF911F910F9131
S1130FD00895FA01AA27283051F1203181F1E894CB
S1130FE06F936E7F6E5F7F4F8F4F9F4FAF4FB1E018
S1130FF03ED0B4E03CD0670F781F891F9A1FA11D13
S1131000680F791F8A1F911DA11D6A0F711D811D13
S1131010911DA11D20D009F468943F912AE0269FD8
S113102011243019305D3193DEF6CF010895462F37
S11310304770405D4193B3E00FD0C9F7F6CF462F18
S11310404F70405D4A3318F0495D31FD4052419381
S113105002D0A9F7EACFB4E0A6959795879577953E
S11310606795BA95C9F700976105710508959B01C5
S1131070AC010A2E06945795479537952795BA954E
S1131080C9F7620F731F841F951FA01D0895052EB5
S113109097FB1EF400940E945E0857FD07D00E943F
S11310A0B00807FC03D04EF40C945E0850954095AC
S11310B0309521953F4F4F4F5F4F08959095809500
S11310C0709561957F4F8F4F9F4F08950E94D2086E
S11310D0A59F900DB49F900DA49F800D911D112488
S11310E00895B7FF0C9466080E946608821B930B50
S11310F008952F923F924F925F926F927F928F92B8
S11311009F92AF92BF92CF92DF92EF92FF920F9392
S11311101F93CF93DF93CDB7DEB7CA1BDB0B0FB69C
S1131120F894DEBF0FBECDBF09942A883988488859
S11311305F846E847D848C849B84AA84B984C884EF
S1131140DF80EE80FD800C811B81AA81B981CE0FE6
S1131150D11D0FB6F894DEBF0FBECDBFED010895CB
S1131160A1E21A2EAA1BBB1BFD010DC0AA1FBB1FA7
S1131170EE1FFF1FA217B307E407F50720F0A21B19
S1131180B30BE40BF50B661F771F881F991F1A9486
S113119069F760957095809590959B01AC01BD01B0
S11311A0CF010895A29FB001B39FC001A39F700D0A
S11311B0811D1124911DB29F700D811D1124911D5B
S10911C00895F894FFCF2E
S11311C60100000000004E0320000A0008465543B3
S11311D64B594F00002D50574D20696E69742D00F0
S11311E64368616E6E656C206E6F7420666F756EF3
S11311F6642C2061726720676976656E3A202564DF
S1131206004552524F522C206D65737361676520F9
S11312166C656E6774682076616C756520746F20E2
S113122668696768200D004D65737361676520659D
S113123672726F72200D006D736720726563656943
S11312467665642049443A2020256409006D736755
S1131256207265636569766564206461746120251E
S1131266730D0A00204D4350323531352069732001
S11312764E4F5420696E20636F6E6669677572619E
S113128674696F6E206D6F64652061667465722083
S113129672657365742021004E6F7420636F7272D9
S11312A66563742062756666657220696E2066756C
S11312B66E6374696F6E206D6370323531355F729B
S11312C674732C206275666665722076616C75652A
S11312D63A2025640D0A0043616E20696E69742004
S11312E66661696C6564200D005352414D20746536
S11312F67374206661696C65640D0063616E737452
S113130661743A2030782578200D0A00537461728E
S113131674696E67205352414D20746573742E2E82
S11313262E0D0057726974652070686173652065B7
S113133672726F723A206578745F72616D5B2534E0
S1131346645D203D2025303258202873686F756C03
S1131356642062652025303258290D0A00526574CE
S113136672696576616C2070686173652065727256
S11313766F723A206578745F72616D5B2534645DC3
S1131386203D2025303258202873686F756C642000
S113139662652025303258290D0A005352414D20EA
S11313A67465737420636F6D706C657465642077FF
S11313B6697468200D0A253464206572726F72732D
S11313C620696E2077726974652070686173652080
S11313D6616E64200D0A253464206572726F72731F
S11313E620696E2072657472696576616C20706816
S11313F66173650D0A0D0A002D584D454D20696E21
S107140669742D00D4
S9030000FC
