S0130000756172742D6472697665722E737265639C
S11300000C9438000C9455000C9455000C94550035
S11300100C9455000C9455000C9455000C94550008
S11300200C9455000C9455000C9455000C945500F8
S11300300C9455000C9455000C9455000C945500E8
S11300400C9455000C9455000C9455000C945500D8
S11300500C9455000C9455000C9455000C945500C8
S11300600C9455000C9455000C9455000C945500B8
S113007011241FBECFEFD4E0DEBFCDBF12E0A0E05D
S1130080B1E0ECE7F0E102C005900D92A83EB107A3
S1130090D9F722E0A8EEB2E001C01D92A23FB20758
S11300A0E1F70E944E010C943C080C94000082E09D
S11300B090E0909387008093860081B3806181BB38
S11300C0EAE8F0E0808188608083ABE8B0E08C915E
S11300D080648C938081816080838AE091E00E94B7
S11300E09D030895CF93DF93D82FC62F80E00E94FD
S11300F0180282E00E942C028D2F0E942C028C2F69
S11301000E942C0281E00E941802DF91CF91089591
S1130110CF93C82F80E00E94180283E00E942C0233
S11301208C2F0E942C020E943002C82F81E00E9472
S113013018028C2FCF91089580E00E94180280EC61
S11301400E942C0281E00E94180208950E9423025A
S11301500E949C002FE986E891E021508040904065
S1130160E1F700C000008EE00E948800807E8038A5
S113017039F086E391E00E949D038FEF9FEF08958D
S113018080E090E008951F93CF93DF93182FD62F2C
S1130190C42F80E00E94180285E00E942C02812F67
S11301A00E942C028D2F0E942C028C2F0E942C0264
S11301B081E00E941802DF91CF911F910895482F8A
S11301C060EE8FE00E94C3000895CF93DF93D82F91
S11301D0C62F45E065E08BE20E94C3006FE08CE02F
S11301E00E9472004BE06BE080E30E94C3006D2F1D
S11301F081E30E94720060E082E30E94720061E089
S113020085E30E9472006C2F86E30E94720089EAE3
S113021091E00E949D03DF91CF9108958CE00E94AC
S1130220880080738111FECF86E60E9488000895BD
S11302300F931F93CF93DF93EC0100E010E022C0F3
S1130240FE01E00FF11F608181E10E94E50081E180
S11302500E940E011F928F938EEB91E09F938F93D8
S11302600E94870321960F5F1F4F2FE986E891E0D4
S1130270215080409040E1F700C000000F900F90A3
S11302800F900F9088818111DBCFDF91CF911F9167
S11302900F91089582B3806282BB08958FE10E941A
S11302A0C8020E94D5020E9457000E944A010E947F
S11302B0D3010E94A600892B29F083EC91E00E94CF
S11302C09D0323C00E943702892B29F089ED91E018
S11302D00E949D031AC080E40E94DF008BEE91E02F
S11302E00E9418012FE78FE492E121508040904052
S11302F0E1F700C000002FE38DE093E0215080403F
S11303009040E1F700C00000E9CF8FEF9FEF089520
S1130310809300100895CF93DF938038910590F473
S1130320EC018F700E948801CE01807F99279595FA
S11303308795959587959595879595958795805FEC
S11303400E948801DF91CF910895282F392F2830FA
S1130350310518F480550E94880108958093001295
S113036008950F931F93CF93DF9300E010E013C021
S1130370C8010E94A50180E090E00E948B01C0E0CA
S1130380D0E004C080E00E94AE012196C038D105BF
S1130390CCF30F5F1F4F0830110554F3DF91CF9159
S11303A01F910F9108958EEA0E94880181EA0E94AC
S11303B088018AED0E94880182E10E94880188EC0C
S11303C00E94880188EA0E9488018FE30E948801C4
S11303D085ED0E94880180E80E94880181E80E94DE
S11303E0880180E50E94880189ED0E94880181E2EC
S11303F00E94880180E20E94880182E00E948801B4
S11304008BED0E94880180E30E9488018DEA0E949E
S1130410880180E00E94880184EA0E94880186EABB
S11304200E9488018FEA0E9488010E94B101089508
S1130430813019F498B3906198BB811103C088B3DB
S11304408F7E88BB089587B3806B87BB81E58DB9A8
S113045081E00E94180208958FB9779BFECF08951A
S113046080E00E942C02779BFECF8FB10895EF921B
S1130470FF920F931F93CF93DF938FEE91E00E942F
S11304809D030E942C037C010E943103C0E0D0E054
S113049000E010E020C00E942C03FE01F85E80837F
S11304A020812817B9F099279F938F931F922F9338
S11304B0DF93CF9386E092E09F938F930E9487030C
S11304C00F5F1F4F8DB79EB708960FB6F8949EBF67
S11304D00FBE8DBF2196C11598E0D907E0F2C70180
S11304E00E943103C0E0D0E0E12CF12C20C00E9436
S11304F02C03FE01F85E20812817C1F099279F93F1
S11305008F931F922F93DF93CF9380E492E09F9376
S11305108F930E9487038FEFE81AF80A8DB79EB76E
S113052008960FB6F8949EBF0FBE8DBF2196C115D5
S113053098E0D907E0F2E114F104B1F401151105D2
S1130540B1F4FF92EF921F930F938EE792E09F9383
S11305508F930E9487030F900F900F900F900F902E
S11305600F9080E090E005C081E090E002C081E05F
S113057090E0DF91CF911F910F91FF90EF9008953C
S11305805D9BFECF8CB908955F9BFECF8CB108951F
S113059010BC89B988E18AB986E880BD64EC72E050
S11305A080EC92E00E943C03089585B7806885BF83
S11305B080B7806280BF8BED92E00E949D03089516
S11305C08F929F92AF92BF92CF92DF92EF92FF925F
S11305D0CF93DF93EC01688179818A819B816115D6
S11305E071058105910521F464E279ED8BE597E0CD
S11305F02DE133EF41E050E00E94A20749015A0186
S11306009B01AC01A7EAB1E40E94C1076B017C0124
S1130610ACEEB4EFA50194010E94CF07DC01CB013D
S11306208C0D9D1DAE1DBF1DB7FF03C00197A10911
S1130630B04888839983AA83BB839F77DF91CF9146
S1130640FF90EF90DF90CF90BF90AF909F908F90EE
S113065008950E94E002089580E091E00E94E00283
S11306600895A0E0B0E08093000190930101A0936D
S11306700201B093030108950F931F93CF93DF9367
S1130680009731F46115710519F480E090E03AC0E7
S11306908B01EC016EE070E081E090E00E94AE0519
S11306A0FC01892B91F380E883830115110571F016
S11306B01387028781E883838091E8029091E9029D
S11306C0892B21F4F093E902E093E8022097C9F022
S11306D0D187C0878381826083838091EA0290916D
S11306E0EB02892B71F4F093EB02E093EA02809120
S11306F0EC029091ED02892B21F4F093ED02E0934A
S1130700EC02CF01DF91CF911F910F910895A0E0EA
S1130710B0E0EDE8F3E00C94E407AE014B5F5F4F0B
S1130720FA0161917191AF018091EA029091EB021B
S11307300E94CD03E2E00C9400080F931F93CF9323
S1130740DF93E091EA02F091EB02238121FF1BC0C9
S11307508C01D0E0C0E0F80181918F016091EA0240
S11307607091EB02DB011896ED91FC9119978823A7
S113077031F00995892B79F3DFEFCFEFECCF8AE0E5
S11307800995892B19F08FEF9FEF02C08D2F9C2FB5
S1130790DF91CF911F910F910895ABE0B0E0E3EDAD
S11307A0F3E00C94D4076C017B018A01FC011782ED
S11307B01682838181FFCCC1CE0101963C01F601F2
S11307C09381F70193FD859193FF81917F018823A4
S11307D009F4BAC1853239F493FD859193FF81916F
S11307E07F01853229F4B60190E00E940807E7CF23
S11307F0912C212C312CFFE1F315D8F08B3279F0B8
S113080038F4803279F08332A1F4232D20611DC0A5
S11308108D3261F0803369F4232D216016C0832D5D
S11308208260382EE32DE4603E2E2AC0F32DF8605A
S11308301DC037FC2DC020ED280F2A3040F08E3229
S1130840B9F436FC81C1232D2064322E19C036FE42
S113085006C08AE0989E200D1124922E11C0EAE071
S11308602E9E200D1124222EF32DF0623F2E08C05F
S11308708C3621F4832D8068382E02C0883641F4EA
S1130880F70193FD859193FF81917F018111B3CF8E
S1130890982F9F7D9554933028F40C5F1F4F9FE34E
S11308A099830DC0833631F0833771F0833509F0B5
S11308B059C021C0F801808189830E5F1F4F8824AD
S11308C08394912C530113C02801F2E04F0E511C64
S11308D0F801A080B18036FE03C0692D70E002C02B
S11308E06FEF7FEFC5010E94FD064C018201F32DDD
S11308F0FF773F2E16C0280122E0420E511CF8015A
S1130900A080B18036FE03C0692D70E002C06FEF95
S11309107FEFC5010E94EB064C01F32DF0683F2EDA
S1130920820133FC1BC0822D90E088169906B0F436
S1130930B60180E290E00E9408072A94F4CFF50102
S113094037FC859137FE81915F01B60190E00E94EA
S1130950080721102A9421E0821A91088114910435
S113096071F7E8C0843611F0893641F5F80137FE95
S113097007C060817181828193810C5F1F4F08C021
S113098060817181072E000C880B990B0E5F1F4F3D
S1130990F32DFF763F2E97FF09C0909580957095B3
S11309A061957F4F8F4F9F4FF0683F2E2AE030E0D4
S11309B0A3010E944407882E861845C0853731F468
S11309C0232D2F7EB22E2AE030E025C0932D997F6F
S11309D0B92E8F36C1F018F4883579F0B5C0803758
S11309E019F0883721F0B0C0E92FE061BE2EB4FEC3
S11309F00DC0FB2DF460BF2E09C034FE0AC0292FA0
S1130A002660B22E06C028E030E005C020E130E0C8
S1130A1002C020E132E0F801B7FE07C060817181B5
S1130A20828193810C5F1F4F06C06081718180E0D9
S1130A3090E00E5F1F4FA3010E944407882E861882
S1130A40FB2DFF773F2E36FE0DC0232D2E7FA22EC9
S1130A50891458F434FE0BC032FC09C0832D8E7EF9
S1130A60A82E05C0B82CA32C03C0B82C01C0B92CE7
S1130A70A4FE0FC0FE01E80DF11D8081803321F436
S1130A809A2D997EA92E09C0A2FE06C0B394B394F0
S1130A9004C08A2D867809F0B394A3FC11C0A0FE8B
S1130AA006C0B21488F4280C922C9B180EC0B21401
S1130AB060F4B60180E290E00E940807B394F7CF97
S1130AC0B21418F42B1802C0982C212CA4FE10C0C8
S1130AD0B60180E390E00E940807A2FE17C0A1FCC3
S1130AE003C088E790E002C088E590E0B6010CC03E
S1130AF08A2D867859F0A1FE02C08BE201C080E203
S1130B00A7FC8DE2B60190E00E940807891438F42E
S1130B10B60180E390E00E9408079A94F7CF8A9484
S1130B20F301E80DF11D8081B60190E00E940807F1
S1130B308110F5CF222009F442CEB60180E290E084
S1130B400E9408072A94F6CFF6018681978102C095
S1130B508FEF9FEF2B96E2E10C94F0070F931F9316
S1130B60CF93DF93869F8001879F100D969F100D72
S1130B701124C8010E94CA05EC01009729F0A801BC
S1130B8060E070E00E94F606CE01DF91CF911F91E4
S1130B900F9108950F931F93CF93DF9382309105A4
S1130BA010F482E090E0E091F002F091F10220E094
S1130BB030E0A0E0B0E0309719F14081518102812A
S1130BC0138148175907C8F08417950769F41097DB
S1130BD031F012960C93129713961C9327C000932E
S1130BE0F0021093F10222C02115310519F04217C9
S1130BF0530718F49A01BD01EF01DF01F801DBCFBF
S1130C0021153105F9F0281B390B2430310580F406
S1130C108A819B816115710521F0FB019383828395
S1130C2004C09093F1028093F002FE01329644C016
S1130C30FE01E20FF31F819391932250310939830E
S1130C4028833AC02091EE023091EF02232B41F425
S1130C5020910601309107013093EF022093EE02B8
S1130C6020910401309105012115310541F42DB77E
S1130C703EB74091080150910901241B350BE091C6
S1130C80EE02F091EF02E217F307A0F42E1B3F0BE4
S1130C902817390778F0AC014E5F5F4F24173507EA
S1130CA048F04E0F5F1F5093EF024093EE02819382
S1130CB0919302C0E0E0F0E0CF01DF91CF911F916A
S1130CC00F910895CF93DF93009709F481C0FC013D
S1130CD0329713821282A091F002B091F102109720
S1130CE081F420813181820F931F2091EE02309193
S1130CF0EF022817390751F5F093EF02E093EE0263
S1130D0067C0ED0120E030E0CE17DF0740F44A81F0
S1130D105B819E0141155105F1F0EA01F5CFD383C2
S1130D20C28340815181840F951FC817D90759F494
S1130D3088819981840F951F0296918380838A818B
S1130D409B81938382832115310529F4F093F10269
S1130D50E093F0023DC0E901FB83EA834991599194
S1130D60C40FD51FEC17FD0761F480819181840FB6
S1130D70951F0296E90199838883828193819B83DD
S1130D808A83E0E0F0E012968D919C91139700978E
S1130D9019F0FD01DC01F7CF8D919C9111979D0114
S1130DA02E5F3F4F820F931F2091EE023091EF028E
S1130DB02817390769F4309729F41092F102109238
S1130DC0F00202C013821282B093EF02A093EE02EB
S1130DD0DF91CF910895FC0105906150704001109E
S1130DE0D8F7809590958E0F9F1F0895DC0101C060
S1130DF06D9341505040E0F70895FC0161507040FC
S1130E0001900110D8F7809590958E0F9F1F08953B
S1130E100F931F93CF93DF93FB01238121FD03C025
S1130E208FEF9FEF2CC022FF16C04681578124818B
S1130E3035814217530744F4A081B1819D012F5F8E
S1130E403F4F318320838C93268137812F5F3F4F1F
S1130E503783268314C08B01EC01FB010084F185E8
S1130E60E02D0995892BE1F6D80116968D919C9178
S1130E701797019617969C938E931697CE01DF9140
S1130E80CF911F910F910895FA01AA27283051F1AB
S1130E90203181F1E8946F936E7F6E5F7F4F8F4FA7
S1130EA09F4FAF4FB1E03ED0B4E03CD0670F781F06
S1130EB0891F9A1FA11D680F791F8A1F911DA11DEB
S1130EC06A0F711D811D911DA11D20D009F4689424
S1130ED03F912AE0269F11243019305D3193DEF6CC
S1130EE0CF010895462F4770405D4193B3E00FD082
S1130EF0C9F7F6CF462F4F70405D4A3318F0495D6D
S1130F0031FD4052419302D0A9F7EACFB4E0A6954F
S1130F109795879577956795BA95C9F70097610571
S1130F20710508959B01AC010A2E069457954795C7
S1130F3037952795BA95C9F7620F731F841F951FBC
S1130F40A01D0895052E97FB1EF400940E94B90776
S1130F5057FD07D00E940B0807FC03D04EF40C94F5
S1130F60B90750954095309521953F4F4F4F5F4FAE
S1130F70089590958095709561957F4F8F4F9F4F01
S1130F8008950E942D08A59F900DB49F900DA49FD5
S1130F90800D911D11240895B7FF0C94C1070E9480
S1130FA0C107821B930B08952F923F924F925F9239
S1130FB06F927F928F929F92AF92BF92CF92DF9265
S1130FC0EF92FF920F931F93CF93DF93CDB7DEB7CA
S1130FD0CA1BDB0B0FB6F894DEBF0FBECDBF09945E
S1130FE02A88398848885F846E847D848C849B84B5
S1130FF0AA84B984C884DF80EE80FD800C811B81C3
S1131000AA81B981CE0FD11D0FB6F894DEBF0FBEF1
S1131010CDBFED010895A1E21A2EAA1BBB1BFD0151
S11310200DC0AA1FBB1FEE1FFF1FA217B307E407C3
S1131030F50720F0A21BB30BE40BF50B661F771F1B
S1131040881F991F1A9469F76095709580959095FB
S11310509B01AC01BD01CF010895A29FB001B39FD4
S1131060C001A39F700D811D1124911DB29F700DAD
S10F1070811D1124911D0895F894FFCFF8
S113107C010000000000F20220002D50574D2069A1
S113108C6E69742D004368616E6E656C206E6F74AE
S113109C20666F756E642C206172672067697665B3
S11310AC6E3A20256400204D435032353135206989
S11310BC73204E4F5420696E20636F6E666967759A
S11310CC726174696F6E206D6F64652061667465FE
S11310DC722072657365742021004E6F7420636FE7
S11310EC72726563742062756666657220696E201F
S11310FC66756E6374696F6E206D6370323531354D
S113110C5F7274732C206275666665722076616CEE
S113111C75653A2025640D0A005472616E736D690D
S113112C7373696F6E206572726F72200D00256384
S113113C0D0A006D63703235313520696E69742087
S113114C6661696C6564200D005352414D207465D1
S113115C7374206661696C65640D004142430053ED
S113116C74617274696E67205352414D20746573B7
S113117C742E2E2E0D00577269746520706861737D
S113118C65206572726F723A206578745F72616D56
S113119C5B2534645D203D2025303258202873684B
S11311AC6F756C642062652025303258290D0A0055
S11311BC52657472696576616C2070686173652020
S11311CC6572726F723A206578745F72616D5B251B
S11311DC34645D203D2025303258202873686F75A7
S11311EC6C642062652025303258290D0A00535254
S11311FC414D207465737420636F6D706C657465F8
S113120C642077697468200D0A2534642065727231
S113121C6F727320696E20777269746520706861CF
S113122C736520616E64200D0A2534642065727226
S113123C6F727320696E2072657472696576616C65
S113124C2070686173650D0A0D0A002D584D454DCB
S10B125C20696E69742D000085
S9030000FC
