S0130000756172742D6472697665722E737265639C
S11300000C94A2020C94BF020C94BF020C94BF0285
S11300100C94BF020C94BF020C94BF020C94BF0258
S11300200C94BF020C94BF020C94BF020C94BF0248
S11300300C94BF020C94BF020C94BF020C94BF0238
S11300400C94BF020C94BF020C94BF020C94BF0228
S11300500C94BF020C94BF020C94BF020C94BF0218
S11300600C94BF020C94BF020C94BF020C94BF0208
S1130070000000000000005F0000000700070014FB
S11300807F147F14242A7F2A1223130864623649BA
S11300905522500005030000001C224100004122AB
S11300A01C00082A1C2A0808083E080800503000D2
S11300B00008080808080060600000201008040216
S11300C03E5149453E00427F40004261514946212C
S11300D041454B311814127F1027454545393C4A98
S11300E049493001710905033649494936064949E8
S11300F0291E00363600000056360000000814227F
S11301004114141414144122140800020151090664
S1130110324979413E7E1111117E7F494949363E6B
S1130120414141227F4141221C7F494949417F0984
S11301300901013E414151327F0808087F00417F97
S113014041002040413F017F081422417F4040404C
S1130150407F0204027F7F0408107F3E4141413EFC
S11301607F090909063E4151215E7F091929464646
S11301704949493101017F01013F4040403F1F206F
S113018040201F7F2018207F631408146303047821
S11301900403615149454300007F414102040810B2
S11301A02041417F000004020102044040404040DD
S11301B0000102040020545454787F4844443838E1
S11301C044444420384444487F3854545418087EE6
S11301D0090102081454543C7F0804047800447D47
S11301E040002040443D00007F10284400417F40EF
S11301F0007C041804787C080404783844444438A7
S11302007C14141408081414187C7C08040408488A
S113021054545420043F4440203C4040207C1C2043
S113022040201C3C4030403C44281028440C505092
S1130230503C4464544C44000836410000007F00A4
S11302400000413608000201030201000000000022
S113025000000000065F5F060000000007070007BB
S1130260070000147F7F147F7F1400242E6B6B3AE9
S1130270120000466630180C666200307A4F5D3713
S11302807A48000407030000000000001C3E63419C
S11302900000000041633E1C000000082A3E1C1CB4
S11302A03E2A0808083E3E0808000000A0E060005E
S11302B0000000080808080808000000006060004A
S11302C00000006030180C060301003E7F594D7F8A
S11302D03E000042427F7F40400000627359496FF4
S11302E0660000226349497F360000181C16137FFC
S11302F07F1000276745457D3900003C7E4B4979D6
S1130300300000036371190F070000367F49497FED
S1130310360000064F49693F1E000000006C6C0067
S113032000000000A0EC6C00000000081C366341D3
S11303300000001414141414140000004163361C4B
S1130340080000020351590F0600003E7F415D5D25
S11303501F1E007C7E13137E7C0000417F7F494971
S11303607F36001C3E634141632200417F7F41632D
S11303707F1C00417F7F495D416300417F7F491DB0
S11303800103001C3E6341517372007F7F08087FA4
S11303907F000000417F7F41000000307040417FBA
S11303A03F0100417F7F081C776300417F7F41400C
S11303B06070007F7F060C067F7F007F7F060C182D
S11303C07F7F001C3E6341633E1C00417F7F4909DF
S11303D00F06001E3F21717F5E0000417F7F1939A7
S11303E06F460026674D597B32000003417F7F41F1
S11303F00300007F7F40407F7F00001F3F60603F1D
S11304001F00007F7F3018307F7F0063771C081C3B
S1130410776300074F78784F0700006773594D479B
S1130420637100007F7F41410000000103060C1846
S11304303060000041417F7F000000080C06030685
S11304400C08008080808080808080000003070486
S1130450000000207454543C784000413F7F4444E1
S11304607C3800387C44446C280000307848493F8C
S11304707F4000387C54545C180000487E7F490358
S113048002000098BCA4A4F87C0400417F7F080407
S11304907C780000447D7D4000000040C484FD7DE4
S11304A0000000417F7F10386C440000417F7F4092
S11304B00000007C7C0C180C7C78007C7C04047CA0
S11304C0780000387C44447C38000084FCF8A42480
S11304D03C1800183C24A4F8FC8400447C78441C98
S11304E0180000485C54547424000000043E7F4407
S11304F02400003C7C40403C7C40001C3C60603C50
S11305001C00003C7C6030607C3C00446C3810383B
S11305106C44009CBCA0A0FC7C00004C64745C4C4B
S113052064000008083E774141000000000077772E
S11305300000004141773E08080000020301030265
S11305400301000011241FBECFEFD4E0DEBFCDBFF6
S113055012E0A0E0B1E0E8E4F5E102C005900D92FC
S1130560AA3BB107D9F722E0AAEBB2E001C01D9281
S1130570A43CB207E1F70E9404030C94A20A0C9471
S1130580000082E090E0909387008093860081B31E
S1130590806181BBEAE8F0E0808188608083ABE819
S11305A0B0E08C9180648C938081816080838AE048
S11305B091E00E9403060895E1E0F4E191E0908364
S11305C020819081408130818130C1F0B0F082304F
S11305D019F0833019F004C0942F10C0932F0EC06B
S11305E01F928F9385E191E09F938F930E94ED0575
S11305F00F900F900F900F900895922F892F0895C8
S113060082B3806282BB08958FE10E942E050E940E
S11306103B050E94C1020E9400030E9491030E94B4
S11306209D04892B09F582E00E94DC021F928F93BE
S113063088E491E09F938F930E94ED0583E00E94EC
S1130640DC021F928F9388E591E09F938F930E9421
S1130650ED050E944C048DB79EB708960FB6F8942A
S11306609EBF0FBE8DBFDFCF86E391E00E940306DD
S113067080E090E00895809300100895CF93DF9375
S11306808038910590F4EC018F700E943B03CE01F9
S1130690807F9927959587959595879595958795C5
S11306A095958795805F0E943B03DF91CF910895D4
S11306B0282F392F2830310518F480550E943B0328
S11306C00895CF93DF93EB010E945803CE010E945B
S11306D03E03DF91CF9108958093001208950F9304
S11306E01F93CF93DF9300E010E013C0C8010E9472
S11306F0580380E090E00E943E03C0E0D0E004C0D4
S113070080E00E946C032196C038D105CCF30F5FC2
S11307101F4F0830110554F3DF91CF911F910F91B2
S113072008958EEA0E943B0381EA0E943B038AED0E
S11307300E943B0382E10E943B0388EC0E943B033E
S113074088EA0E943B038FE30E943B0385ED0E94ED
S11307503B0380E80E943B0381E80E943B0380E561
S11307600E943B0389ED0E943B0381E20E943B030C
S113077080E20E943B0382E00E943B038BED0E94D7
S11307803B0380E30E943B038DEA0E943B0380E02D
S11307900E943B0384EA0E943B0386EA0E943B03D7
S11307A08FEA0E943B030E946F0308951F93CF9327
S11307B0DF9390EE980F9F3598F018C0E12FF0E08A
S11307C0B097EE0FFF1FEE0FFF1FEE0FFF1FEC0F92
S11307D0FD1FE55BFD4F84910E946C03219603C0CD
S11307E0182FC0E0D0E0C830D10544F3DF91CF9199
S11307F01F9108951F93CF93DF9390EE980F9F3529
S1130800A8F01AC0212F30E020523109F901EE0F6F
S1130810FF1FEE0FFF1FE20FF31FEC0FFD1FE05948
S1130820FF4F84910E946C03219603C0182FC0E0EF
S1130830D0E0C530D10534F3DF91CF911F910895F5
S11308400F931F93CF93DF938C01C0E0D0E003C0DC
S11308500E94D6032196F801EC0FFD1F80818111BF
S1130860F7CFDF91CF911F910F9108950F931F93AD
S1130870CF93DF938C01C0E0D0E003C00E94FA0361
S11308802196F801EC0FFD1F80818111F7CFDF91D4
S1130890CF911F910F91089561E070E080E090E0A6
S11308A00E9461038AE691E00E94200461E070E006
S11308B081E090E00E9461038AE791E00E9436049F
S11308C061E070E082E090E00E94610380E891E0E2
S11308D00E94360461E070E083E090E00E946103CE
S11308E08AE891E00E94360461E070E084E090E0E0
S11308F00E94610384E991E00E94360461E070E0A3
S113090085E090E00E94610381EA91E00E94360450
S113091061E070E086E090E00E9461038DEA91E07E
S11309200E94360461E070E087E090E00E94610379
S113093087EB91E00E9420040895EF92FF920F93B9
S11309401F93CF93DF9381EC91E00E9403060E94F2
S113095092057C010E949705C0E0D0E000E010E021
S113096020C00E949205FE01F85E80832081281732
S1130970B9F099279F938F931F922F93DF93CF936F
S113098088ED91E09F938F930E94ED050F5F1F4FB9
S11309908DB79EB708960FB6F8949EBF0FBE8DBF55
S11309A02196C11598E0D907E0F2C7010E94970586
S11309B0C0E0D0E0E12CF12C20C00E949205FE01A1
S11309C0F85E20812817C1F099279F938F931F9277
S11309D02F93DF93CF9382E192E09F938F930E94B2
S11309E0ED058FEFE81AF80A8DB79EB708960FB693
S11309F0F8949EBF0FBE8DBF2196C11598E0D9070C
S1130A00E0F2E114F104B1F401151105B1F4FF921F
S1130A10EF921F930F9380E592E09F938F930E9430
S1130A20ED050F900F900F900F900F900F9080E0B6
S1130A3090E005C081E090E002C081E090E0DF91A9
S1130A40CF911F910F91FF90EF9008955D9BFECF82
S1130A508CB908955F9BFECF8CB1089510BC89B901
S1130A6088E18AB986E880BD6AE275E086E295E0AD
S1130A700E94A205089585B7806885BF80B780620B
S1130A8080BF8DEA92E00E94030608958F929F92A0
S1130A90AF92BF92CF92DF92EF92FF92CF93DF9308
S1130AA0EC01688179818A819B81611571058105D9
S1130AB0910521F464E279ED8BE597E02DE133EFC4
S1130AC041E050E00E94080A49015A019B01AC012F
S1130AD0A7EAB1E40E94270A6B017C01ACEEB4EFF3
S1130AE0A50194010E94350ADC01CB018C0D9D1DEA
S1130AF0AE1DBF1DB7FF03C00197A109B04888838D
S1130B009983AA83BB839F77DF91CF91FF90EF9066
S1130B10DF90CF90BF90AF909F908F9008950E94E8
S1130B204605089580E091E00E9446050895A0E0FE
S1130B30B0E08093000190930101A0930201B0936F
S1130B40030108950F931F93CF93DF93009731F41C
S1130B506115710519F480E090E03AC08B01EC0155
S1130B606EE070E081E090E00E941408FC01892BA3
S1130B7091F380E883830115110571F013870287CF
S1130B8081E883838091BA029091BB02892B21F47E
S1130B90F093BB02E093BA022097C9F0D187C087D3
S1130BA08381826083838091BC029091BD02892BF2
S1130BB071F4F093BD02E093BC028091BE02909167
S1130BC0BF02892B21F4F093BF02E093BE02CF0150
S1130BD0DF91CF911F910F910895A0E0B0E0E3EF72
S1130BE0F5E00C944A0AAE014B5F5F4FFA01619144
S1130BF07191AF018091BC029091BD020E943306B5
S1130C00E2E00C94660A0F931F93CF93DF93E09175
S1130C10BC02F091BD02238121FF1BC08C01D0E0F6
S1130C20C0E0F80181918F016091BC027091BD0216
S1130C30DB011896ED91FC911997882331F0099501
S1130C40892B79F3DFEFCFEFECCF8AE00995892B7D
S1130C5019F08FEF9FEF02C08D2F9C2FDF91CF9162
S1130C601F910F910895ABE0B0E0E9E3F6E00C9436
S1130C703A0A6C017B018A01FC0117821682838186
S1130C8081FFCCC1CE0101963C01F6019381F701AD
S1130C9093FD859193FF81917F01882309F4BAC163
S1130CA0853239F493FD859193FF81917F018532DB
S1130CB029F4B60190E00E946E09E7CF912C212C13
S1130CC0312CFFE1F315D8F08B3279F038F480320F
S1130CD079F08332A1F4232D20611DC08D3261F09F
S1130CE0803369F4232D216016C0832D8260382E51
S1130CF0E32DE4603E2E2AC0F32DF8601DC037FCBE
S1130D002DC020ED280F2A3040F08E32B9F436FC85
S1130D1081C1232D2064322E19C036FE06C08AE01C
S1130D20989E200D1124922E11C0EAE02E9E200DD3
S1130D301124222EF32DF0623F2E08C08C3621F4AC
S1130D40832D8068382E02C0883641F4F70193FD64
S1130D50859193FF81917F018111B3CF982F9F7D5E
S1130D609554933028F40C5F1F4F9FE399830DC073
S1130D70833631F0833771F0833509F059C021C0CF
S1130D80F801808189830E5F1F4F88248394912CFE
S1130D90530113C02801F2E04F0E511CF801A0804A
S1130DA0B18036FE03C0692D70E002C06FEF7FEFA3
S1130DB0C5010E9463094C018201F32DFF773F2E88
S1130DC016C0280122E0420E511CF801A080B18017
S1130DD036FE03C0692D70E002C06FEF7FEFC501DE
S1130DE00E9451094C01F32DF0683F2E820133FC1F
S1130DF01BC0822D90E088169906B0F4B60180E2FB
S1130E0090E00E946E092A94F4CFF50137FC859195
S1130E1037FE81915F01B60190E00E946E092110B6
S1130E202A9421E0821A91088114910471F7E8C090
S1130E30843611F0893641F5F80137FE07C0608128
S1130E407181828193810C5F1F4F08C06081718121
S1130E50072E000C880B990B0E5F1F4FF32DFF76A6
S1130E603F2E97FF09C090958095709561957F4FAF
S1130E708F4F9F4FF0683F2E2AE030E0A3010E947D
S1130E80AA09882E861845C0853731F4232D2F7E74
S1130E90B22E2AE030E025C0932D997FB92E8F36EB
S1130EA0C1F018F4883579F0B5C0803719F0883767
S1130EB021F0B0C0E92FE061BE2EB4FE0DC0FB2DC1
S1130EC0F460BF2E09C034FE0AC0292F2660B22E5A
S1130ED006C028E030E005C020E130E002C020E197
S1130EE032E0F801B7FE07C060817181828193818D
S1130EF00C5F1F4F06C06081718180E090E00E5F3F
S1130F001F4FA3010E94AA09882E8618FB2DFF7784
S1130F103F2E36FE0DC0232D2E7FA22E891458F4A9
S1130F2034FE0BC032FC09C0832D8E7EA82E05C072
S1130F30B82CA32C03C0B82C01C0B92CA4FE0FC03C
S1130F40FE01E80DF11D8081803321F49A2D997EF4
S1130F50A92E09C0A2FE06C0B394B39404C08A2D7E
S1130F60867809F0B394A3FC11C0A0FE06C0B214A5
S1130F7088F4280C922C9B180EC0B21460F4B601AD
S1130F8080E290E00E946E09B394F7CFB21418F493
S1130F902B1802C0982C212CA4FE10C0B60180E3AB
S1130FA090E00E946E09A2FE17C0A1FC03C088E76E
S1130FB090E002C088E590E0B6010CC08A2D8678E6
S1130FC059F0A1FE02C08BE201C080E2A7FC8DE2D1
S1130FD0B60190E00E946E09891438F4B60180E3EA
S1130FE090E00E946E099A94F7CF8A94F301E80D79
S1130FF0F11D8081B60190E00E946E098110F5CF49
S1131000222009F442CEB60180E290E00E946E09EB
S11310102A94F6CFF6018681978102C08FEF9FEF65
S11310202B96E2E10C94560A0F931F93CF93DF9310
S1131030869F8001879F100D969F100D1124C80173
S11310400E943008EC01009729F0A80160E070E0EC
S11310500E945C09CE01DF91CF911F910F910895F9
S11310600F931F93CF93DF938230910510F482E0A6
S113107090E0E091C202F091C30220E030E0A0E0F1
S1131080B0E0309719F140815181028113814817F2
S11310905907C8F08417950769F4109731F0129630
S11310A00C93129713961C9327C00093C2021093BB
S11310B0C30222C02115310519F04217530718F451
S11310C09A01BD01EF01DF01F801DBCF21153105E4
S11310D0F9F0281B390B2430310580F48A819B8177
S11310E06115710521F0FB019383828304C0909301
S11310F0C3028093C202FE01329644C0FE01E20F95
S1131100F31F8193919322503109398328833AC084
S11311102091C0023091C102232B41F42091060199
S1131120309107013093C1022093C0022091040141
S1131130309105012115310541F42DB73EB7409199
S1131140080150910901241B350BE091C002F09174
S1131150C102E217F307A0F42E1B3F0B281739072F
S113116078F0AC014E5F5F4F2417350748F04E0FFF
S11311705F1F5093C1024093C0028193919302C0B8
S1131180E0E0F0E0CF01DF91CF911F910F9108953E
S1131190CF93DF93009709F481C0FC013297138247
S11311A01282A091C202B091C302109781F42081EF
S11311B03181820F931F2091C0023091C102281700
S11311C0390751F5F093C102E093C00267C0ED0105
S11311D020E030E0CE17DF0740F44A815B819E01B6
S11311E041155105F1F0EA01F5CFD383C283408163
S11311F05181840F951FC817D90759F488819981A3
S1131200840F951F0296918380838A819B819383A7
S113121082832115310529F4F093C302E093C202BD
S11312203DC0E901FB83EA8349915991C40FD51F5D
S1131230EC17FD0761F480819181840F951F02965C
S1131240E90199838883828193819B838A83E0E087
S1131250F0E012968D919C911397009719F0FD017F
S1131260DC01F7CF8D919C9111979D012E5F3F4F2B
S1131270820F931F2091C0023091C10228173907B1
S113128069F4309729F41092C3021092C20202C08A
S113129013821282B093C102A093C002DF91CF9156
S11312A00895FC010590615070400110D8F78095B5
S11312B090958E0F9F1F0895DC0101C06D934150DE
S11312C05040E0F70895FC01615070400190011016
S11312D0D8F7809590958E0F9F1F08950F931F93B5
S11312E0CF93DF93FB01238121FD03C08FEF9FEF99
S11312F02CC022FF16C046815781248135814217B4
S1131300530744F4A081B1819D012F5F3F4F318386
S113131020838C93268137812F5F3F4F3783268329
S113132014C08B01EC01FB010084F185E02D0995CB
S1131330892BE1F6D80116968D919C911797019609
S113134017969C938E931697CE01DF91CF911F91A0
S11313500F910895FA01AA27283051F1203181F123
S1131360E8946F936E7F6E5F7F4F8F4F9F4FAF4FA9
S1131370B1E03ED0B4E03CD0670F781F891F9A1FBC
S1131380A11D680F791F8A1F911DA11D6A0F711D70
S1131390811D911DA11D20D009F468943F912AE07C
S11313A0269F11243019305D3193DEF6CF01089564
S11313B0462F4770405D4193B3E00FD0C9F7F6CF95
S11313C0462F4F70405D4A3318F0495D31FD40525D
S11313D0419302D0A9F7EACFB4E0A69597958795F3
S11313E077956795BA95C9F70097610571050895D2
S11313F09B01AC010A2E069457954795379527957E
S1131400BA95C9F7620F731F841F951FA01D089515
S1131410052E97FB1EF400940E941F0A57FD07D067
S11314200E94710A07FC03D04EF40C941F0A5095D5
S11314304095309521953F4F4F4F5F4F08959095BC
S11314408095709561957F4F8F4F9F4F08950E94AF
S1131450930AA59F900DB49F900DA49F800D911D9C
S113146011240895B7FF0C94270A0E94270A821BAF
S1131470930B08952F923F924F925F926F927F92B7
S11314808F929F92AF92BF92CF92DF92EF92FF9290
S11314900F931F93CF93DF93CDB7DEB7CA1BDB0B3C
S11314A00FB6F894DEBF0FBECDBF09942A883988E1
S11314B048885F846E847D848C849B84AA84B984E8
S11314C0C884DF80EE80FD800C811B81AA81B981F4
S11314D0CE0FD11D0FB6F894DEBF0FBECDBFED0108
S11314E00895A1E21A2EAA1BBB1BFD010DC0AA1F61
S11314F0BB1FEE1FFF1FA217B307E407F50720F079
S1131500A21BB30BE40BF50B661F771F881F991FF3
S11315101A9469F760957095809590959B01AC013C
S1131520BD01CF010895A29FB001B39FC001A39F45
S1131530700D811D1124911DB29F700D811D112408
S10B1540911D0895F894FFCFFA
S1131548010000000000C40220002D50574D2069FE
S11315586E69742D004368616E6E656C206E6F74DD
S113156820666F756E642C206172672067697665E2
S11315786E3A202564005352414D207465737420DB
S11315886661696C65640D006C656674736C696486
S113159865203A20256409007269676874736C6968
S11315A86465203A2025640D0A002D2D2D4D4149EE
S11315B84E204D454E552D2D2D0020506C6179003F
S11315C8205475746F7269616C0020507261637481
S11315D8696365002053656C656374207465616D87
S11315E800204869676873636F72657300205365E8
S11315F87474696E6773003C3C2052657475726E2E
S1131608005374617274696E67205352414D20749B
S11316186573742E2E2E0D005772697465207068D8
S1131628617365206572726F723A206578745F72AF
S1131638616D5B2534645D203D20253032582028B7
S113164873686F756C642062652025303258290DE3
S11316580A0052657472696576616C2070686173FA
S113166865206572726F723A206578745F72616D75
S11316785B2534645D203D2025303258202873686A
S11316886F756C642062652025303258290D0A0074
S11316985352414D207465737420636F6D706C658B
S11316A87465642077697468200D0A25346420659C
S11316B872726F727320696E207772697465207014
S11316C86861736520616E64200D0A2534642065A1
S11316D872726F727320696E2072657472696576AE
S11316E8616C2070686173650D0A0D0A002D584DF0
S10D16F8454D20696E69742D000051
S9030000FC
