S0130000756172742D6472697665722E737265639C
S11300000C9438000C9455000C9455000C94550035
S11300100C9455000C9455000C9455000C94550008
S11300200C9455000C9455000C9455000C945500F8
S11300300C9455000C9455000C9455000C945500E8
S11300400C9455000C9455000C9455000C945500D8
S11300500C9455000C9455000C9455000C945500C8
S11300600C9455000C9455000C9455000C945500B8
S113007011241FBECFEFD4E0DEBFCDBF12E0A0E05D
S1130080B1E0E4E6FEE002C005900D92A034B107B1
S1130090D9F722E0A0E4B2E001C01D92AA34B2076D
S11300A0E1F70E9491000C9430070C94000082E068
S11300B090E0909387008093860081B3806181BB38
S11300C0EAE8F0E0808188608083ABE8B0E08C915E
S11300D080648C938081816080838AE091E00E94B7
S11300E091020895CF93DF93EC018F709078992358
S11300F024F40197806F9F6F01960E94E200CE0165
S1130100DD230CF40F969595879595958795959590
S1130110879595958795805F0E94E200DF91CF9146
S113012008950F931F93CF93DF932FE38DE093E014
S1130130215080409040E1F700C000008FE10E9410
S1130140BC010E94C9010E9457000E942B01892B07
S113015071F50E94E80082B3806282BB80E20E9453
S1130160E20082E00E94E20083EB0E94E20081E070
S11301700E94E20086E10E94E20000EB10E013C05E
S1130180802F0E94E20080E090E00E947200C0E0B4
S1130190D0E004C080E00E94E5002196C038D1057B
S11301A0CCF30F5F1F4F083B110554F3D7CF86E301
S11301B091E00E94910280E090E0DF91CF911F9145
S11301C00F9108958093001008958093001208956C
S11301D08EEA0E94E20081EA0E94E2008AED0E9417
S11301E0E20082E10E94E20088EC0E94E20088EAD8
S11301F00E94E2008FE30E94E20085ED0E94E2008B
S113020080E80E94E20081E80E94E20080E50E940A
S1130210E20089ED0E94E20081E20E94E20080E2B5
S11302200E94E20082E00E94E2008BED0E94E20064
S113023080E30E94E2008DEA0E94E20080E00E94D6
S1130240E20084EA0E94E20086EA0E94E2008FEA69
S11302500E94E2000895EF92FF920F931F93CF93B1
S1130260DF9388E491E00E9491020E9420027C01C5
S11302700E942502C0E0D0E000E010E020C00E940F
S11302802002FE01F85E808320812817B9F09927A7
S11302909F938F931F922F93DF93CF938FE591E0DA
S11302A09F938F930E947B020F5F1F4F8DB79EB762
S11302B008960FB6F8949EBF0FBE8DBF2196C11548
S11302C098E0D907E0F2C7010E942502C0E0D0E01F
S11302D0E12CF12C20C00E942002FE01F85E208156
S11302E02817C1F099279F938F931F922F93DF9321
S11302F0CF9389E991E09F938F930E947B028FEFC4
S1130300E81AF80A8DB79EB708960FB6F8949EBF00
S11303100FBE8DBF2196C11598E0D907E0F2E11414
S1130320F104B1F401151105B1F4FF92EF921F939A
S11303300F9387ED91E09F938F930E947B020F9020
S11303400F900F900F900F900F9080E090E005C0F9
S113035081E090E002C081E090E0DF91CF911F91B5
S11303600F91FF90EF9008955D9BFECF8CB9089597
S11303705F9BFECF8CB1089510BC89B988E18AB91E
S113038086E880BD68EB71E084EB91E00E94300266
S1130390089585B7806885BF80B7806280BF84E395
S11303A092E00E94910208958F929F92AF92BF9221
S11303B0CF92DF92EF92FF92CF93DF93EC016881AB
S11303C079818A819B81611571058105910521F4EB
S11303D064E279ED8BE597E02DE133EF41E050E005
S11303E00E94960649015A019B01AC01A7EAB1E4B7
S11303F00E94B5066B017C01ACEEB4EFA50194013B
S11304000E94C306DC01CB018C0D9D1DAE1DBF1DDA
S1130410B7FF03C00197A109B04888839983AA83D1
S1130420BB839F77DF91CF91FF90EF90DF90CF90C8
S1130430BF90AF909F908F9008950E94D40108952B
S113044080E091E00E94D4010895A0E0B0E08093A0
S1130450000190930101A0930201B0930301089558
S11304600F931F93CF93DF93009731F461157105B8
S113047019F480E090E03AC08B01EC016EE070E08A
S113048081E090E00E94A204FC01892B91F380E8B2
S113049083830115110571F01387028781E8838333
S11304A08091400290914102892B21F4F093410202
S11304B0E09340022097C9F0D187C087838182608E
S11304C083838091420290914302892B71F4F093CB
S11304D04302E09342028091440290914502892BA9
S11304E021F4F0934502E0934402CF01DF91CF91D0
S11304F01F910F910895A0E0B0E0E1E8F2E00C94C0
S1130500D806AE014B5F5F4FFA0161917191AF0163
S113051080914202909143020E94C102E2E00C9455
S1130520F4060F931F93CF93DF93E0914202F0916F
S11305304302238121FF1BC08C01D0E0C0E0F801FD
S113054081918F016091420270914302DB01189600
S1130550ED91FC911997882331F00995892B79F352
S1130560DFEFCFEFECCF8AE00995892B19F08FEFFD
S11305709FEF02C08D2F9C2FDF91CF911F910F9180
S11305800895ABE0B0E0E7ECF2E00C94C8066C012F
S11305907B018A01FC0117821682838181FFCCC111
S11305A0CE0101963C01F6019381F70193FD8591FB
S11305B093FF81917F01882309F4BAC1853239F40C
S11305C093FD859193FF81917F01853229F4B601D2
S11305D090E00E94FC05E7CF912C212C312CFFE107
S11305E0F315D8F08B3279F038F4803279F0833215
S11305F0A1F4232D20611DC08D3261F0803369F494
S1130600232D216016C0832D8260382EE32DE460F3
S11306103E2E2AC0F32DF8601DC037FC2DC020EDFE
S1130620280F2A3040F08E32B9F436FC81C1232DD4
S11306302064322E19C036FE06C08AE0989E200D32
S11306401124922E11C0EAE02E9E200D1124222E98
S1130650F32DF0623F2E08C08C3621F4832D806880
S1130660382E02C0883641F4F70193FD859193FF3B
S113067081917F018111B3CF982F9F7D9554933041
S113068028F40C5F1F4F9FE399830DC0833631F02C
S1130690833771F0833509F059C021C0F801808196
S11306A089830E5F1F4F88248394912C530113C0B8
S11306B02801F2E04F0E511CF801A080B18036FEF3
S11306C003C0692D70E002C06FEF7FEFC5010E9487
S11306D0F1054C018201F32DFF773F2E16C028014E
S11306E022E0420E511CF801A080B18036FE03C006
S11306F0692D70E002C06FEF7FEFC5010E94DF0536
S11307004C01F32DF0683F2E820133FC1BC0822D77
S113071090E088169906B0F4B60180E290E00E9459
S1130720FC052A94F4CFF50137FC859137FE8191BD
S11307305F01B60190E00E94FC0521102A9421E09B
S1130740821A91088114910471F7E8C0843611F07B
S1130750893641F5F80137FE07C0608171818281D5
S113076093810C5F1F4F08C060817181072E000CBC
S1130770880B990B0E5F1F4FF32DFF763F2E97FFCB
S113078009C090958095709561957F4F8F4F9F4FCD
S1130790F0683F2E2AE030E0A3010E943806882E3C
S11307A0861845C0853731F4232D2F7EB22E2AE0DA
S11307B030E025C0932D997FB92E8F36C1F018F4FF
S11307C0883579F0B5C0803719F0883721F0B0C08A
S11307D0E92FE061BE2EB4FE0DC0FB2DF460BF2EE8
S11307E009C034FE0AC0292F2660B22E06C028E0B4
S11307F030E005C020E130E002C020E132E0F80141
S1130800B7FE07C060817181828193810C5F1F4FA5
S113081006C06081718180E090E00E5F1F4FA301EC
S11308200E943806882E8618FB2DFF773F2E36FE51
S11308300DC0232D2E7FA22E891458F434FE0BC034
S113084032FC09C0832D8E7EA82E05C0B82CA32CA3
S113085003C0B82C01C0B92CA4FE0FC0FE01E80DE2
S1130860F11D8081803321F49A2D997EA92E09C02F
S1130870A2FE06C0B394B39404C08A2D867809F00E
S1130880B394A3FC11C0A0FE06C0B21488F4280CD3
S1130890922C9B180EC0B21460F4B60180E290E072
S11308A00E94FC05B394F7CFB21418F42B1802C0BD
S11308B0982C212CA4FE10C0B60180E390E00E9485
S11308C0FC05A2FE17C0A1FC03C088E790E002C0AB
S11308D088E590E0B6010CC08A2D867859F0A1FE17
S11308E002C08BE201C080E2A7FC8DE2B60190E079
S11308F00E94FC05891438F4B60180E390E00E945C
S1130900FC059A94F7CF8A94F301E80DF11D8081D8
S1130910B60190E00E94FC058110F5CF222009F475
S113092042CEB60180E290E00E94FC052A94F6CF04
S1130930F6018681978102C08FEF9FEF2B96E2E14B
S11309400C94E4060F931F93CF93DF93869F80014B
S1130950879F100D969F100D1124C8010E94BE049C
S1130960EC01009729F0A80160E070E00E94EA051C
S1130970CE01DF91CF911F910F9108950F931F9393
S1130980CF93DF938230910510F482E090E0E09100
S11309904802F091490220E030E0A0E0B0E0309756
S11309A019F1408151810281138148175907C8F018
S11309B08417950769F4109731F012960C931297E7
S11309C013961C9327C0009348021093490222C037
S11309D02115310519F04217530718F49A01BD0186
S11309E0EF01DF01F801DBCF21153105F9F0281BF8
S11309F0390B2430310580F48A819B81611571059E
S1130A0021F0FB019383828304C090934902809375
S1130A104802FE01329644C0FE01E20FF31F8193A7
S1130A20919322503109398328833AC02091460298
S1130A3030914702232B41F42091060130910701A4
S1130A40309347022093460220910401309105011E
S1130A502115310541F42DB73EB74091080150915D
S1130A600901241B350BE0914602F0914702E2177D
S1130A70F307A0F42E1B3F0B2817390778F0AC01BD
S1130A804E5F5F4F2417350748F04E0F5F1F50939A
S1130A904702409346028193919302C0E0E0F0E064
S1130AA0CF01DF91CF911F910F910895CF93DF93E1
S1130AB0009709F481C0FC01329713821282A0913D
S1130AC04802B0914902109781F420813181820F4C
S1130AD0931F20914602309147022817390751F598
S1130AE0F0934702E093460267C0ED0120E030E056
S1130AF0CE17DF0740F44A815B819E014115510501
S1130B00F1F0EA01F5CFD383C28340815181840F90
S1130B10951FC817D90759F488819981840F951FA7
S1130B200296918380838A819B819383828321159A
S1130B30310529F4F0934902E09348023DC0E901EC
S1130B40FB83EA8349915991C40FD51FEC17FD0724
S1130B5061F480819181840F951F0296E901998344
S1130B608883828193819B838A83E0E0F0E01296FC
S1130B708D919C911397009719F0FD01DC01F7CF3B
S1130B808D919C9111979D012E5F3F4F820F931F72
S1130B9020914602309147022817390769F43097AB
S1130BA029F4109249021092480202C01382128260
S1130BB0B0934702A0934602DF91CF910895FC01C0
S1130BC00590615070400110D8F7809590958E0F74
S1130BD09F1F0895DC0101C06D9341505040E0F720
S1130BE00895FC016150704001900110D8F7809580
S1130BF090958E0F9F1F08950F931F93CF93DF93AC
S1130C00FB01238121FD03C08FEF9FEF2CC022FF46
S1130C1016C046815781248135814217530744F415
S1130C20A081B1819D012F5F3F4F318320838C933D
S1130C30268137812F5F3F4F3783268314C08B0172
S1130C40EC01FB010084F185E02D0995892BE1F687
S1130C50D80116968D919C911797019617969C939F
S1130C608E931697CE01DF91CF911F910F91089526
S1130C70FA01AA27283051F1203181F1E8946F93C9
S1130C806E7F6E5F7F4F8F4F9F4FAF4FB1E03ED06F
S1130C90B4E03CD0670F781F891F9A1FA11D680F0D
S1130CA0791F8A1F911DA11D6A0F711D811D911D40
S1130CB0A11D20D009F468943F912AE0269F1124B5
S1130CC03019305D3193DEF6CF010895462F477019
S1130CD0405D4193B3E00FD0C9F7F6CF462F4F7074
S1130CE0405D4A3318F0495D31FD4052419302D0D2
S1130CF0A9F7EACFB4E0A695979587957795679578
S1130D00BA95C9F700976105710508959B01AC0177
S1130D100A2E06945795479537952795BA95C9F79E
S1130D20620F731F841F951FA01D0895052E97FB46
S1130D301EF400940E94AD0657FD07D00E94FF06E2
S1130D4007FC03D04EF40C94AD06509540953095B5
S1130D5021953F4F4F4F5F4F089590958095709523
S1130D6061957F4F8F4F9F4F08950E942107A59F44
S1130D70900DB49F900DA49F800D911D1124089592
S1130D80B7FF0C94B5060E94B506821B930B089519
S1130D902F923F924F925F926F927F928F929F9287
S1130DA0AF92BF92CF92DF92EF92FF920F931F9375
S1130DB0CF93DF93CDB7DEB7CA1BDB0B0FB6F89426
S1130DC0DEBF0FBECDBF09942A88398848885F8466
S1130DD06E847D848C849B84AA84B984C884DF80D7
S1130DE0EE80FD800C811B81AA81B981CE0FD11DBB
S1130DF00FB6F894DEBF0FBECDBFED010895A1E29A
S1130E001A2EAA1BBB1BFD010DC0AA1FBB1FEE1F80
S1130E10FF1FA217B307E407F50720F0A21BB30BCB
S1130E20E40BF50B661F771F881F991F1A9469F747
S1130E3060957095809590959B01AC01BD01CF01A3
S1130E400895A29FB001B39FC001A39F700D811D9F
S1130E501124911DB29F700D811D1124911D0895BF
S1070E60F894FFCF30
S1130E640100000000004A0220002D50574D206963
S1130E746E69742D004368616E6E656C206E6F74C8
S1130E8420666F756E642C206172672067697665CD
S1130E946E3A202564005352414D207465737420C6
S1130EA46661696C65640D005374617274696E677C
S1130EB4205352414D20746573742E2E2E0D005709
S1130EC472697465207068617365206572726F72EB
S1130ED43A206578745F72616D5B2534645D203DEE
S1130EE42025303258202873686F756C642062653D
S1130EF42025303258290D0A0052657472696576CA
S1130F04616C207068617365206572726F723A2037
S1130F146578745F72616D5B2534645D203D2025C2
S1130F24303258202873686F756C642062652025FC
S1130F34303258290D0A005352414D20746573749C
S1130F4420636F6D706C65746564207769746820C0
S1130F540D0A253464206572726F727320696E20E1
S1130F64777269746520706861736520616E6420AA
S1130F740D0A253464206572726F727320696E20C1
S1130F8472657472696576616C2070686173650D4D
S1130F940A0D0A002D584D454D20696E69742D00C3
S9030000FC
