S0130000756172742D6472697665722E737265639C
S11300000C9438000C9455000C9455000C94550035
S11300100C9455000C9455000C9455000C94550008
S11300200C9455000C9455000C9455000C945500F8
S11300300C9455000C9455000C9455000C945500E8
S11300400C9455000C9455000C9455000C945500D8
S11300500C9455000C9455000C9455000C945500C8
S11300600C9455000C9455000C9455000C945500B8
S113007011241FBECFEFD4E0DEBFCDBF12E0A0E05D
S1130080B1E0ECEDFCE002C005900D92A430B107A4
S1130090D9F722E0A4E0B2E001C01D92AE30B2076D
S11300A0E1F70E9457000C946C060C9400002FE3B7
S11300B08DE093E0215080409040E1F700C00000C3
S11300C08FE10E94F4000E9401010E9471002FE759
S11300D08AE196E0215080409040E1F700C00000A2
S11300E0F6CFEF92FF920F931F93CF93DF938AE0A3
S11300F091E00E94CD010E945C017C010E9461019B
S1130100C0E0D0E000E010E020C00E945C01FE01ED
S1130110F85E808320812817B9F099279F938F93E5
S11301201F922F93DF93CF9381E291E09F938F935C
S11301300E94B7010F5F1F4F8DB79EB708960FB689
S1130140F8949EBF0FBE8DBF2196C11598E0D907C4
S1130150E0F2C7010E946101C0E0D0E0E12CF12C83
S113016020C00E945C01FE01F85E20812817C1F0C6
S113017099279F938F931F922F93DF93CF938BE5B0
S113018091E09F938F930E94B7018FEFE81AF80ACA
S11301908DB79EB708960FB6F8949EBF0FBE8DBF5D
S11301A02196C11598E0D907E0F2FF92EF921F93D0
S11301B00F9389E991E09F938F930E94B7010F9069
S11301C00F900F900F900F900F90DF91CF911F9190
S11301D00F91FF90EF9008955D9BFECF8CB9089529
S11301E05F9BFECF8CB1089510BC89B988E18AB9B0
S11301F086E880BD60EF70E08CEE90E00E946C01B8
S1130200089585B7806885BF80B7806280BF86EF18
S113021091E09F938F930E94B7010F900F900895E0
S11302208F929F92AF92BF92CF92DF92EF92FF9202
S1130230CF93DF93EC01688179818A819B81611579
S113024071058105910521F464E279ED8BE597E070
S11302502DE133EF41E050E00E94D20549015A01FB
S11302609B01AC01A7EAB1E40E94F1056B017C019A
S1130270ACEEB4EFA50194010E94FF05DC01CB01B3
S11302808C0D9D1DAE1DBF1DB7FF03C00197A109B5
S1130290B04888839983AA83BB839F77DF91CF91EA
S11302A0FF90EF90DF90CF90BF90AF909F908F9092
S11302B008950E941001089580E091E00E941001C9
S11302C00895A0E0B0E08093000190930101A09311
S11302D00201B093030108950F931F93CF93DF930B
S11302E0009731F46115710519F480E090E03AC08B
S11302F08B01EC016EE070E081E090E00E94DE038F
S1130300FC01892B91F380E883830115110571F0B9
S11303101387028781E88383809104029091050208
S1130320892B21F4F0930502E09304022097C9F08D
S1130330D187C087838182608383809106029091F4
S11303400702892B71F4F0930702E093060280916F
S1130350080290910902892B21F4F0930902E09399
S11303600802CF01DF91CF911F910F910895A0E072
S1130370B0E0EDEBF1E00C941406AE014B5F5F4F7F
S1130380FA0161917191AF01809106029091070287
S11303900E94FD01E2E00C9430060F931F93CF936B
S11303A0DF93E0910602F0910702238121FF1BC035
S11303B08C01D0E0C0E0F80181918F0160910602C8
S11303C070910702DB011896ED91FC91199788232F
S11303D031F00995892B79F3DFEFCFEFECCF8AE089
S11303E00995892B19F08FEF9FEF02C08D2F9C2F59
S11303F0DF91CF911F910F910895ABE0B0E0E3E05E
S1130400F2E00C9404066C017B018A01FC01178262
S11304101682838181FFCCC1CE0101963C01F60195
S11304209381F70193FD859193FF81917F01882347
S113043009F4BAC1853239F493FD859193FF819112
S11304407F01853229F4B60190E00E943805E7CF98
S1130450912C212C312CFFE1F315D8F08B3279F05B
S113046038F4803279F08332A1F4232D20611DC049
S11304708D3261F0803369F4232D216016C0832D01
S11304808260382EE32DE4603E2E2AC0F32DF860FE
S11304901DC037FC2DC020ED280F2A3040F08E32CD
S11304A0B9F436FC81C1232D2064322E19C036FEE6
S11304B006C08AE0989E200D1124922E11C0EAE015
S11304C02E9E200D1124222EF32DF0623F2E08C003
S11304D08C3621F4832D8068382E02C0883641F48E
S11304E0F70193FD859193FF81917F018111B3CF32
S11304F0982F9F7D9554933028F40C5F1F4F9FE3F2
S113050099830DC0833631F0833771F0833509F058
S113051059C021C0F801808189830E5F1F4F882450
S11305208394912C530113C02801F2E04F0E511C07
S1130530F801A080B18036FE03C0692D70E002C0CE
S11305406FEF7FEFC5010E942D054C018201F32D51
S1130550FF773F2E16C0280122E0420E511CF801FD
S1130560A080B18036FE03C0692D70E002C06FEF39
S11305707FEFC5010E941B054C01F32DF0683F2E4F
S1130580820133FC1BC0822D90E088169906B0F4DA
S1130590B60180E290E00E9438052A94F4CFF50178
S11305A037FC859137FE81915F01B60190E00E948E
S11305B0380521102A9421E0821A910881149104AB
S11305C071F7E8C0843611F0893641F5F80137FE39
S11305D007C060817181828193810C5F1F4F08C0C5
S11305E060817181072E000C880B990B0E5F1F4FE1
S11305F0F32DFF763F2E97FF09C090958095709557
S113060061957F4F8F4F9F4FF0683F2E2AE030E077
S1130610A3010E947405882E861845C0853731F4DD
S1130620232D2F7EB22E2AE030E025C0932D997F12
S1130630B92E8F36C1F018F4883579F0B5C08037FB
S113064019F0883721F0B0C0E92FE061BE2EB4FE66
S11306500DC0FB2DF460BF2E09C034FE0AC0292F43
S11306602660B22E06C028E030E005C020E130E06C
S113067002C020E132E0F801B7FE07C06081718159
S1130680828193810C5F1F4F06C06081718180E07D
S113069090E00E5F1F4FA3010E947405882E8618F8
S11306A0FB2DFF773F2E36FE0DC0232D2E7FA22E6D
S11306B0891458F434FE0BC032FC09C0832D8E7E9D
S11306C0A82E05C0B82CA32C03C0B82C01C0B92C8B
S11306D0A4FE0FC0FE01E80DF11D8081803321F4DA
S11306E09A2D997EA92E09C0A2FE06C0B394B39494
S11306F004C08A2D867809F0B394A3FC11C0A0FE2F
S113070006C0B21488F4280C922C9B180EC0B214A4
S113071060F4B60180E290E00E943805B394F7CF0C
S1130720B21418F42B1802C0982C212CA4FE10C06B
S1130730B60180E390E00E943805A2FE17C0A1FC38
S113074003C088E790E002C088E590E0B6010CC0E1
S11307508A2D867859F0A1FE02C08BE201C080E2A6
S1130760A7FC8DE2B60190E00E943805891438F4A4
S1130770B60180E390E00E9438059A94F7CF8A94FA
S1130780F301E80DF11D8081B60190E00E94380567
S11307908110F5CF222009F442CEB60180E290E028
S11307A00E9438052A94F6CFF6018681978102C00B
S11307B08FEF9FEF2B96E2E10C9420060F931F938B
S11307C0CF93DF93869F8001879F100D969F100D16
S11307D01124C8010E94FA03EC01009729F0A80132
S11307E060E070E00E942605CE01DF91CF911F9159
S11307F00F9108950F931F93CF93DF938230910548
S113080010F482E090E0E0910C02F0910D0220E0FF
S113081030E0A0E0B0E0309719F1408151810281CD
S1130820138148175907C8F08417950769F410977E
S113083031F012960C93129713961C9327C00093D1
S11308400C0210930D0222C02115310519F0421734
S1130850530718F49A01BD01EF01DF01F801DBCF62
S113086021153105F9F0281B390B2430310580F4AA
S11308708A819B816115710521F0FB019383828339
S113088004C090930D0280930C02FE01329644C082
S1130890FE01E20FF31F81939193225031093983B2
S11308A028833AC020910A0230910B02232B41F491
S11308B0209106013091070130930B0220930A0224
S11308C020910401309105012115310541F42DB722
S11308D03EB74091080150910901241B350BE0916A
S11308E00A02F0910B02E217F307A0F42E1B3F0B50
S11308F02817390778F0AC014E5F5F4F241735078E
S113090048F04E0F5F1F50930B0240930A028193ED
S1130910919302C0E0E0F0E0CF01DF91CF911F910D
S11309200F910895CF93DF93009709F481C0FC01E0
S1130930329713821282A0910C02B0910D0210978B
S113094081F420813181820F931F20910A0230911A
S11309500B022817390751F5F0930B02E0930A02B2
S113096067C0ED0120E030E0CE17DF0740F44A8194
S11309705B819E0141155105F1F0EA01F5CFD38366
S1130980C28340815181840F951FC817D90759F438
S113099088819981840F951F0296918380838A812F
S11309A09B81938382832115310529F4F0930D02F1
S11309B0E0930C023DC0E901FB83EA83499159911C
S11309C0C40FD51FEC17FD0761F480819181840F5A
S11309D0951F0296E90199838883828193819B8381
S11309E08A83E0E0F0E012968D919C911397009732
S11309F019F0FD01DC01F7CF8D919C9111979D01B8
S1130A002E5F3F4F820F931F20910A0230910B02F9
S1130A102817390769F4309729F410920D021092BF
S1130A200C0202C013821282B0930B02A0930A023A
S1130A30DF91CF910895FC01059061507040011041
S1130A40D8F7809590958E0F9F1F0895DC0101C003
S1130A506D9341505040E0F70895FC01615070409F
S1130A6001900110D8F7809590958E0F9F1F0895DF
S1130A700F931F93CF93DF93FB01238121FD03C0C9
S1130A808FEF9FEF2CC022FF16C04681578124812F
S1130A9035814217530744F4A081B1819D012F5F32
S1130AA03F4F318320838C93268137812F5F3F4FC3
S1130AB03783268314C08B01EC01FB010084F1858C
S1130AC0E02D0995892BE1F6D80116968D919C911C
S1130AD01797019617969C938E931697CE01DF91E4
S1130AE0CF911F910F910895FA01AA27283051F14F
S1130AF0203181F1E8946F936E7F6E5F7F4F8F4F4B
S1130B009F4FAF4FB1E03ED0B4E03CD0670F781FA9
S1130B10891F9A1FA11D680F791F8A1F911DA11D8E
S1130B206A0F711D811D911DA11D20D009F46894C7
S1130B303F912AE0269F11243019305D3193DEF66F
S1130B40CF010895462F4770405D4193B3E00FD025
S1130B50C9F7F6CF462F4F70405D4A3318F0495D10
S1130B6031FD4052419302D0A9F7EACFB4E0A695F3
S1130B709795879577956795BA95C9F70097610515
S1130B80710508959B01AC010A2E0694579547956B
S1130B9037952795BA95C9F7620F731F841F951F60
S1130BA0A01D0895052E97FB1EF400940E94E905EC
S1130BB057FD07D00E943B0607FC03D04EF40C946B
S1130BC0E90550954095309521953F4F4F4F5F4F24
S1130BD0089590958095709561957F4F8F4F9F4FA5
S1130BE008950E945D06A59F900DB49F900DA49F4B
S1130BF0800D911D11240895B7FF0C94F1050E94F6
S1130C00F105821B930B08952F923F924F925F92AE
S1130C106F927F928F929F92AF92BF92CF92DF9208
S1130C20EF92FF920F931F93CF93DF93CDB7DEB76D
S1130C30CA1BDB0B0FB6F894DEBF0FBECDBF099401
S1130C402A88398848885F846E847D848C849B8458
S1130C50AA84B984C884DF80EE80FD800C811B8166
S1130C60AA81B981CE0FD11D0FB6F894DEBF0FBE95
S1130C70CDBFED010895A1E21A2EAA1BBB1BFD01F5
S1130C800DC0AA1FBB1FEE1FFF1FA217B307E40767
S1130C90F50720F0A21BB30BE40BF50B661F771FBF
S1130CA0881F991F1A9469F760957095809590959F
S1130CB09B01AC01BD01CF010895A29FB001B39F78
S1130CC0C001A39F700D811D1124911DB29F700D51
S10F0CD0811D1124911D0895F894FFCF9C
S1130CDC0100000000000E0220005374617274695C
S1130CEC6E67205352414D20746573742E2E2E0D55
S1130CFC005772697465207068617365206572723F
S1130D0C6F723A206578745F72616D5B2534645D33
S1130D1C203D2025303258202873686F756C642070
S1130D2C62652025303258290D0A005265747269A7
S1130D3C6576616C207068617365206572726F7280
S1130D4C3A206578745F72616D5B2534645D203D77
S1130D5C2025303258202873686F756C64206265C6
S1130D6C2025303258290D0A005352414D20746508
S1130D7C737420636F6D706C65746564207769742B
S1130D8C68200D0A253464206572726F72732069B1
S1130D9C6E20777269746520706861736520616E6A
S1130DAC64200D0A253464206572726F7273206995
S1130DBC6E2072657472696576616C2070686173FB
S1130DCC650D0A0D0A00696E69742E2E2E2E2E20C6
S1070DDC20200000CF
S9030000FC
