S0130000756172742D6472697665722E737265639C
S11300000C94B4010C94D1010C94D1010C94D10141
S11300100C94D1010C94D1010C94D1010C94D10114
S11300200C94D1010C94D1010C94D1010C94D10104
S11300300C94D1010C94D1010C94D1010C94D101F4
S11300400C94D1010C94D1010C94D1010C94D101E4
S11300500C94D1010C94D1010C94D1010C94D101D4
S11300600C94D1010C94D1010C94D1010C94D101C4
S1130070000000000000000000065F5F06000000B2
S11300800007070007070000147F7F147F7F140018
S1130090242E6B6B3A120000466630180C66620020
S11300A0307A4F5D377A48000407030000000000EF
S11300B0001C3E63410000000041633E1C00000040
S11300C0082A3E1C1C3E2A0808083E3E0808000078
S11300D000A0E0600000000008080808080800000C
S11300E000006060000000006030180C060301008E
S11300F03E7F594D7F3E000042427F7F40400000DA
S1130100627359496F660000226349497F360000D3
S1130110181C16137F7F1000276745457D390000A2
S11301203C7E4B4979300000036371190F070000CE
S1130130367F49497F360000064F49693F1E00005B
S113014000006C6C0000000000A0EC6C00000000DB
S1130150081C366341000000141414141414000025
S1130160004163361C080000020351590F060000C9
S11301703E7F415D5D1F1E007C7E13137E7C00006C
S1130180417F7F49497F36001C3E63414163220021
S1130190417F7F41637F1C00417F7F495D41630054
S11301A0417F7F491D0103001C3E6341517372006E
S11301B07F7F08087F7F000000417F7F41000000AF
S11301C0307040417F3F0100417F7F081C7763000E
S11301D0417F7F41406070007F7F060C067F7F0077
S11301E07F7F060C187F7F001C3E6341633E1C002A
S11301F0417F7F49090F06001E3F21717F5E000089
S1130200417F7F19396F460026674D597B320000C4
S113021003417F7F410300007F7F40407F7F0000D8
S11302201F3F60603F1F00007F7F3018307F7F00DA
S113023063771C081C776300074F78784F0700002A
S11302406773594D47637100007F7F41410000008F
S11302500103060C183060000041417F7F0000005C
S1130260080C0603060C0800808080808080808053
S11302700000030704000000207454543C7840003C
S1130280413F7F44447C3800387C44446C2800005F
S1130290307848493F7F4000387C54545C18000053
S11302A0487E7F490302000098BCA4A4F87C0400A3
S11302B0417F7F08047C780000447D7D400000007D
S11302C040C484FD7D000000417F7F10386C4400F1
S11302D000417F7F400000007C7C0C180C7C78007F
S11302E07C7C04047C780000387C44447C38000026
S11302F084FCF8A4243C1800183C24A4F8FC8400D2
S1130300447C78441C180000485C54547424000055
S113031000043E7F442400003C7C40403C7C400080
S11303201C3C60603C1C00003C7C6030607C3C00F9
S1130330446C3810386C44009CBCA0A0FC7C0000C9
S11303404C64745C4C64000008083E774141000032
S113035000000077770000004141773E0808000064
S1130360020301030203010011241FBECFEFD4E0F6
S1130370DEBFCDBF12E0A0E0B1E0E2E4F4E102C0F0
S113038005900D92AC38B107D9F722E0ACE8B2E0A1
S113039001C01D92A639B207E1F70E9409030C942B
S11303A01F0A0C94000082E090E0909387008093F1
S11303B0860081B3806181BBEAE8F0E080818860D7
S11303C08083ABE8B0E08C9180648C938081816001
S11303D080838AE091E00E9480050895E1E0F4E1E1
S11303E091E0908320819081408130818130C1F0FF
S11303F0B0F0823019F0833019F004C0942F10C08B
S1130400932F0EC01F928F9385E191E09F938F935A
S11304100E946A050F900F900F900F900895922FED
S1130420892F0895CF93DF9300D000D0CDB7DEB7E6
S113043081E090E09A8389830E94050489819A81EE
S113044064E670E00E94560386E391E00E94EF03A5
S11304500E94F00290E09C838B830EC00E94F00205
S113046090E09C838B832FEE89E492E021508040BE
S11304709040E1F700C000008B819C81892B71F3CF
S11304808B819C81039711F589819A810297F4F0FD
S113049089E391E00E94800589819A8164E670E095
S11304A00E9456038DE391E00E94EF0389819A81B3
S11304B001979A83898389819A8164E670E00E9416
S11304C0560386E391E00E94EF0325C08B819C8153
S11304D0049709F589819A810797ECF480E491E007
S11304E00E94800589819A8164E670E00E94560327
S11304F08DE391E00E94EF0389819A8101969A83AA
S1130500898389819A8164E670E00E94560386E3B8
S113051091E00E94EF0389819A819F938F9386E4EF
S113052091E09F938F930E946A051C821B820F9017
S11305300F900F900F90A0CF82B3806282BB08957A
S1130540CF92DF92EF92FF92CF93DF9380E00E94ED
S1130550EE01C82FD0E0C05AD1096E0181E00E949B
S1130560EE0190E0825A91097C012496299710F4B7
S1130570C12CD12C0496099710F4E12CF12C8DE9AF
S1130580C8168FEFD80634F40F2EFCE9CF2EDD24E5
S1130590DA94F02D8DE9E8168FEFF80634F40F2E77
S11305A0FCE9EF2EFF24FA94F02D8CE5C816D10453
S11305B02CF00F2EF4E6CF2ED12CF02D8CE5E8167E
S11305C0F1042CF00F2EF4E6EF2EF12CF02DC701E0
S11305D0B601DF91CF91FF90EF90DF90CF90089517
S11305E00E94A002683D4FEF74075CF06932710508
S11305F054F4883D2FEF920744F0899744F083E048
S1130600089581E0089582E0089584E0089580E0EB
S113061008958FE10E94AB040E94B8040E94D301A4
S11306200E949C020E9486030E941A04892B89F46A
S11306300E9412020E94F0021F928F9388E691E0BA
S11306409F938F930E946A050F900F900F900F90C5
S1130650F1CF86E591E00E94800580E090E0089566
S1130660809300100895CF93DF938038910590F420
S1130670EC018F700E943003CE01807F99279595FD
S11306808795959587959595879595958795805F99
S11306900E943003DF91CF910895282F392F2830FD
S11306A0310518F480550E9430030895CF93DF93E9
S11306B0EB010E944D03CE010E943303DF91CF91E1
S11306C008958093001208950F931F93CF93DF939F
S11306D000E010E013C0C8010E944D0380E090E0E8
S11306E00E943303C0E0D0E004C080E00E946103B4
S11306F02196C038D105CCF30F5F1F4F0830110588
S113070054F3DF91CF911F910F9108958EEA0E94C7
S1130710300381EA0E9430038AED0E94300382E1B3
S11307200E94300388EC0E94300388EA0E94300360
S11307308FE30E94300385ED0E94300380E80E941D
S1130740300381E80E94300380E50E94300389ED84
S11307500E94300381E20E94300380E20E94300351
S113076082E00E9430038BED0E94300380E30E94FC
S113077030038DEA0E94300380E00E94300384EA53
S11307800E94300386EA0E9430038FEA0E943003FD
S11307900E94640308951F93CF93DF9390EE980F04
S11307A09F3598F018C0E12FF0E0B097EE0FFF1FCF
S11307B0EE0FFF1FEE0FFF1FEC0FFD1FE059FF4F61
S11307C084910E946103219603C0182FC0E0D0E0F9
S11307D0C830D10544F3DF91CF911F9108950F9351
S11307E01F93CF93DF938C01C0E0D0E003C00E943D
S11307F0CB032196F801EC0FFD1F80818111F7CF07
S1130800DF91CF911F910F91089561E070E080E036
S113081090E00E94560389E791E00E94EF0361E0B3
S113082070E087E090E00E94560389E891E00E941E
S1130830EF030895EF92FF920F931F93CF93DF93EB
S113084083E991E00E9480050E940F057C010E94CB
S11308501405C0E0D0E000E010E020C00E940F05C5
S1130860FE01F85E808320812817B9F099279F93B1
S11308708F931F922F93DF93CF938AEA91E09F93F4
S11308808F930E946A050F5F1F4F8DB79EB708961E
S11308900FB6F8949EBF0FBE8DBF2196C11598E088
S11308A0D907E0F2C7010E941405C0E0D0E0E12CB2
S11308B0F12C20C00E940F05FE01F85E208128174C
S11308C0C1F099279F938F931F922F93DF93CF9318
S11308D084EE91E09F938F930E946A058FEFE81A4C
S11308E0F80A8DB79EB708960FB6F8949EBF0FBE50
S11308F08DBF2196C11598E0D907E0F2E114F10407
S1130900B1F401151105B1F4FF92EF921F930F9307
S113091082E292E09F938F930E946A050F900F905A
S11309200F900F900F900F9080E090E005C081E051
S113093090E002C081E090E0DF91CF911F910F9190
S1130940FF90EF9008955D9BFECF8CB908955F9B57
S1130950FECF8CB1089510BC89B988E18AB986E8C4
S113096080BD67EA74E083EA94E00E941F0508955D
S113097085B7806885BF80B7806280BF8FE792E0CB
S11309800E94800508958F929F92AF92BF92CF925A
S1130990DF92EF92FF92CF93DF93EC01688179812C
S11309A08A819B81611571058105910521F464E2B9
S11309B079ED8BE597E02DE133EF41E050E00E94C3
S11309C0850949015A019B01AC01A7EAB1E40E94DF
S11309D0A4096B017C01ACEEB4EFA50194010E9463
S11309E0B209DC01CB018C0D9D1DAE1DBF1DB7FFEF
S11309F003C00197A109B04888839983AA83BB8364
S1130A009F77DF91CF91FF90EF90DF90CF90BF90D1
S1130A10AF909F908F9008950E94C304089580E042
S1130A2091E00E94C3040895A0E0B0E08093000127
S1130A3090930101A0930201B093030108950F93D1
S1130A401F93CF93DF93009731F46115710519F467
S1130A5080E090E03AC08B01EC016EE070E081E050
S1130A6090E00E949107FC01892B91F380E8838335
S1130A700115110571F01387028781E88383809142
S1130A808C0290918D02892B21F4F0938D02E093D6
S1130A908C022097C9F0D187C087838182608383C9
S1130AA080918E0290918F02892B71F4F0938F02C2
S1130AB0E0938E028091900290919102892B21F40F
S1130AC0F0939102E0939002CF01DF91CF911F91B7
S1130AD00F910895A0E0B0E0E0E7F5E00C94C709B9
S1130AE0AE014B5F5F4FFA0161917191AF0180914B
S1130AF08E0290918F020E94B005E2E00C94E3090B
S1130B000F931F93CF93DF93E0918E02F0918F02A6
S1130B10238121FF1BC08C01D0E0C0E0F80181914A
S1130B208F0160918E0270918F02DB011896ED9116
S1130B30FC911997882331F00995892B79F3DFEF1C
S1130B40CFEFECCF8AE00995892B19F08FEF9FEF57
S1130B5002C08D2F9C2FDF91CF911F910F9108958B
S1130B60ABE0B0E0E6EBF5E00C94B7096C017B0177
S1130B708A01FC0117821682838181FFCCC1CE01D8
S1130B8001963C01F6019381F70193FD859193FF52
S1130B9081917F01882309F4BAC1853239F493FD28
S1130BA0859193FF81917F01853229F4B60190E00C
S1130BB00E94EB08E7CF912C212C312CFFE1F31597
S1130BC0D8F08B3279F038F4803279F08332A1F4A2
S1130BD0232D20611DC08D3261F0803369F4232DF3
S1130BE0216016C0832D8260382EE32DE4603E2EF2
S1130BF02AC0F32DF8601DC037FC2DC020ED280F4E
S1130C002A3040F08E32B9F436FC81C1232D2064A1
S1130C10322E19C036FE06C08AE0989E200D11249B
S1130C20922E11C0EAE02E9E200D1124222EF32DC7
S1130C30F0623F2E08C08C3621F4832D8068382E54
S1130C4002C0883641F4F70193FD859193FF8191A9
S1130C507F018111B3CF982F9F7D9554933028F451
S1130C600C5F1F4F9FE399830DC0833631F08337A8
S1130C7071F0833509F059C021C0F801808189835E
S1130C800E5F1F4F88248394912C530113C02801B5
S1130C90F2E04F0E511CF801A080B18036FE03C073
S1130CA0692D70E002C06FEF7FEFC5010E94E0087C
S1130CB04C018201F32DFF773F2E16C0280122E05C
S1130CC0420E511CF801A080B18036FE03C0692D8C
S1130CD070E002C06FEF7FEFC5010E94CE084C01A7
S1130CE0F32DF0683F2E820133FC1BC0822D90E06F
S1130CF088169906B0F4B60180E290E00E94EB08F1
S1130D002A94F4CFF50137FC859137FE81915F0178
S1130D10B60190E00E94EB0821102A9421E0821A87
S1130D2091088114910471F7E8C0843611F0893672
S1130D3041F5F80137FE07C060817181828193819A
S1130D400C5F1F4F08C060817181072E000C880B57
S1130D50990B0E5F1F4FF32DFF763F2E97FF09C0AF
S1130D6090958095709561957F4F8F4F9F4FF06858
S1130D703F2E2AE030E0A3010E942709882E86181E
S1130D8045C0853731F4232D2F7EB22E2AE030E082
S1130D9025C0932D997FB92E8F36C1F018F488356C
S1130DA079F0B5C0803719F0883721F0B0C0E92F49
S1130DB0E061BE2EB4FE0DC0FB2DF460BF2E09C051
S1130DC034FE0AC0292F2660B22E06C028E030E087
S1130DD005C020E130E002C020E132E0F801B7FEB6
S1130DE007C060817181828193810C5F1F4F06C0AF
S1130DF06081718180E090E00E5F1F4FA3010E942B
S1130E002709882E8618FB2DFF773F2E36FE0DC04E
S1130E10232D2E7FA22E891458F434FE0BC032FCED
S1130E2009C0832D8E7EA82E05C0B82CA32C03C028
S1130E30B82C01C0B92CA4FE0FC0FE01E80DF11DB1
S1130E408081803321F49A2D997EA92E09C0A2FEB7
S1130E5006C0B394B39404C08A2D867809F0B39481
S1130E60A3FC11C0A0FE06C0B21488F4280C922C76
S1130E709B180EC0B21460F4B60180E290E00E94A8
S1130E80EB08B394F7CFB21418F42B1802C0982CC3
S1130E90212CA4FE10C0B60180E390E00E94EB0870
S1130EA0A2FE17C0A1FC03C088E790E002C088E559
S1130EB090E0B6010CC08A2D867859F0A1FE02C0DC
S1130EC08BE201C080E2A7FC8DE2B60190E00E94B3
S1130ED0EB08891438F4B60180E390E00E94EB0833
S1130EE09A94F7CF8A94F301E80DF11D8081B6013D
S1130EF090E00E94EB088110F5CF222009F442CE45
S1130F00B60180E290E00E94EB082A94F6CFF60145
S1130F108681978102C08FEF9FEF2B96E2E10C94BC
S1130F20D3090F931F93CF93DF93869F8001879FED
S1130F30100D969F100D1124C8010E94AD07EC01FD
S1130F40009729F0A80160E070E00E94D908CE0162
S1130F50DF91CF911F910F9108950F931F93CF931A
S1130F60DF938230910510F482E090E0E0919402E6
S1130F70F091950220E030E0A0E0B0E0309719F164
S1130F80408151810281138148175907C8F08417A1
S1130F90950769F4109731F012960C9312971396F3
S1130FA01C9327C0009394021093950222C021152C
S1130FB0310519F04217530718F49A01BD01EF01E6
S1130FC0DF01F801DBCF21153105F9F0281B390BBE
S1130FD02430310580F48A819B816115710521F0EB
S1130FE0FB019383828304C09093950280939402BF
S1130FF0FE01329644C0FE01E20FF31F81939193E8
S113100022503109398328833AC0209192023091C9
S11310109302232B41F42091060130910701309370
S1131020930220939202209104013091050121152D
S1131030310541F42DB73EB74091080150910901A3
S1131040241B350BE0919202F0919302E217F3070F
S1131050A0F42E1B3F0B2817390778F0AC014E5F24
S11310605F4F2417350748F04E0F5F1F50939302CC
S1131070409392028193919302C0E0E0F0E0CF01AB
S1131080DF91CF911F910F910895CF93DF93009734
S113109009F481C0FC01329713821282A091940258
S11310A0B0919502109781F420813181820F931FB2
S11310B020919202309193022817390751F5F09349
S11310C09302E093920267C0ED0120E030E0CE1776
S11310D0DF0740F44A815B819E0141155105F1F01F
S11310E0EA01F5CFD383C28340815181840F951FD8
S11310F0C817D90759F488819981840F951F0296DE
S1131100918380838A819B81938382832115310516
S113111029F4F0939502E09394023DC0E901FB8326
S1131120EA8349915991C40FD51FEC17FD0761F467
S113113080819181840F951F0296E90199838883A8
S1131140828193819B838A83E0E0F0E012968D9103
S11311509C911397009719F0FD01DC01F7CF8D9155
S11311609C9111979D012E5F3F4F820F931F2091F9
S11311709202309193022817390769F4309729F4C1
S1131180109295021092940202C013821282B093BC
S11311909302A0939202DF91CF910895FC010590F0
S11311A0615070400110D8F7809590958E0F9F1F65
S11311B00895DC0101C06D9341505040E0F708955B
S11311C0FC016150704001900110D8F78095909512
S11311D08E0F9F1F08950F931F93CF93DF93FB01EF
S11311E0238121FD03C08FEF9FEF2CC022FF16C087
S11311F046815781248135814217530744F4A081E5
S1131200B1819D012F5F3F4F318320838C932681D1
S113121037812F5F3F4F3783268314C08B01EC0146
S1131220FB010084F185E02D0995892BE1F6D801B5
S113123016968D919C911797019617969C938E9371
S11312401697CE01DF91CF911F910F910895FA0166
S1131250AA27283051F1203181F1E8946F936E7FF1
S11312606E5F7F4F8F4F9F4FAF4FB1E03ED0B4E0E2
S11312703CD0670F781F891F9A1FA11D680F791F23
S11312808A1F911DA11D6A0F711D811D911DA11D34
S113129020D009F468943F912AE0269F1124301944
S11312A0305D3193DEF6CF010895462F4770405DDF
S11312B04193B3E00FD0C9F7F6CF462F4F70405D8E
S11312C04A3318F0495D31FD4052419302D0A9F7E9
S11312D0EACFB4E0A6959795879577956795BA95E3
S11312E0C9F700976105710508959B01AC010A2EA9
S11312F006945795479537952795BA95C9F7620F80
S1131300731F841F951FA01D0895052E97FB1EF4BF
S113131000940E949C0957FD07D00E94EE0907FC27
S113132003D04EF40C949C0950954095309521952A
S11313303F4F4F4F5F4F08959095809570956195FD
S11313407F4F8F4F9F4F08950E94100AA59F900DC5
S1131350B49F900DA49F800D911D11240895B7FF93
S11313600C94A4090E94A409821B930B08952F9244
S11313703F924F925F926F927F928F929F92AF9221
S1131380BF92CF92DF92EF92FF920F931F93CF936E
S1131390DF93CDB7DEB7CA1BDB0B0FB6F894DEBF05
S11313A00FBECDBF09942A88398848885F846E842B
S11313B07D848C849B84AA84B984C884DF80EE8075
S11313C0FD800C811B81AA81B981CE0FD11D0FB67E
S11313D0F894DEBF0FBECDBFED010895A1E21A2E31
S11313E0AA1BBB1BFD010DC0AA1FBB1FEE1FFF1FC5
S11313F0A217B307E407F50720F0A21BB30BE40B15
S1131400F50B661F771F881F991F1A9469F760955B
S11314107095809590959B01AC01BD01CF01089515
S1131420A29FB001B39FC001A39F700D811D112421
S1131430911DB29F700D811D1124911D0895F89482
S1051440FFCFD8
S1131442010000000000960220002D50574D206933
S11314526E69742D004368616E6E656C206E6F74E4
S113146220666F756E642C206172672067697665E9
S11314726E3A202564003C2D0055500D00202000BA
S1131482444F574E0D006D656E7520696E64657824
S11314922025640A0D005352414D20746573742053
S11314A26661696C65640D00446972656374696F91
S11314B26E203A2025640D0A002D2D2D4D41494EF2
S11314C2204D454E552D2D2D003C3C205245545562
S11314D2524E005374617274696E67205352414DC7
S11314E220746573742E2E2E0D0057726974652054
S11314F27068617365206572726F723A20657874E0
S11315025F72616D5B2534645D203D202530325865
S1131512202873686F756C64206265202530325808
S1131522290D0A0052657472696576616C207068CF
S1131532617365206572726F723A206578745F72A6
S1131542616D5B2534645D203D20253032582028AE
S113155273686F756C642062652025303258290DDA
S11315620A005352414D207465737420636F6D7089
S11315726C657465642077697468200D0A25346487
S1131582206572726F727320696E20777269746556
S113159220706861736520616E64200D0A253464CD
S11315A2206572726F727320696E2072657472693B
S11315B26576616C2070686173650D0A0D0A002DF1
S10F15C2584D454D20696E69742D0000E1
S9030000FC
