S0130000756172742D6472697665722E737265639C
S11300000C94B4010C94D1010C94D1010C94D10141
S11300100C94D1010C94D1010C94D1010C94D10114
S11300200C94D1010C94D1010C94D1010C94D10104
S11300300C94D1010C94D1010C94D1010C94D101F4
S11300400C94D1010C94D1010C94D1010C94D101E4
S11300500C94D1010C94D1010C94D1010C94D101D4
S11300600C94D1010C94D1010C94D1010C94D101C4
S1130070000000000000000000065F5F06000000B2
S11300800007070007070000147F7F147F7F140018
S1130090242E6B6B3A120000466630180C66620020
S11300A0307A4F5D377A48000407030000000000EF
S11300B0001C3E63410000000041633E1C00000040
S11300C0082A3E1C1C3E2A0808083E3E0808000078
S11300D000A0E0600000000008080808080800000C
S11300E000006060000000006030180C060301008E
S11300F03E7F594D7F3E000042427F7F40400000DA
S1130100627359496F660000226349497F360000D3
S1130110181C16137F7F1000276745457D390000A2
S11301203C7E4B4979300000036371190F070000CE
S1130130367F49497F360000064F49693F1E00005B
S113014000006C6C0000000000A0EC6C00000000DB
S1130150081C366341000000141414141414000025
S1130160004163361C080000020351590F060000C9
S11301703E7F415D5D1F1E007C7E13137E7C00006C
S1130180417F7F49497F36001C3E63414163220021
S1130190417F7F41637F1C00417F7F495D41630054
S11301A0417F7F491D0103001C3E6341517372006E
S11301B07F7F08087F7F000000417F7F41000000AF
S11301C0307040417F3F0100417F7F081C7763000E
S11301D0417F7F41406070007F7F060C067F7F0077
S11301E07F7F060C187F7F001C3E6341633E1C002A
S11301F0417F7F49090F06001E3F21717F5E000089
S1130200417F7F19396F460026674D597B320000C4
S113021003417F7F410300007F7F40407F7F0000D8
S11302201F3F60603F1F00007F7F3018307F7F00DA
S113023063771C081C776300074F78784F0700002A
S11302406773594D47637100007F7F41410000008F
S11302500103060C183060000041417F7F0000005C
S1130260080C0603060C0800808080808080808053
S11302700000030704000000207454543C7840003C
S1130280413F7F44447C3800387C44446C2800005F
S1130290307848493F7F4000387C54545C18000053
S11302A0487E7F490302000098BCA4A4F87C0400A3
S11302B0417F7F08047C780000447D7D400000007D
S11302C040C484FD7D000000417F7F10386C4400F1
S11302D000417F7F400000007C7C0C180C7C78007F
S11302E07C7C04047C780000387C44447C38000026
S11302F084FCF8A4243C1800183C24A4F8FC8400D2
S1130300447C78441C180000485C54547424000055
S113031000043E7F442400003C7C40403C7C400080
S11303201C3C60603C1C00003C7C6030607C3C00F9
S1130330446C3810386C44009CBCA0A0FC7C0000C9
S11303404C64745C4C64000008083E774141000032
S113035000000077770000004141773E0808000064
S1130360020301030203010011241FBECFEFD4E0F6
S1130370DEBFCDBF12E0A0E0B1E0E0EFF1E102C0EA
S113038005900D92A834B107D9F722E0A8E4B2E0B1
S113039001C01D92A235B207E1F70E94F2010C944C
S11303A0F6080C94000082E090E09093870080931C
S11303B0860081B3806181BBEAE8F0E080818860D7
S11303C08083ABE8B0E08C9180648C938081816001
S11303D080838AE091E00E945704089582B380628A
S11303E082BB08952FE38DE093E02150804090403C
S11303F0E1F700C000008FE10E9482030E948F0396
S11304000E94D3010E94EE010E9472020E94F10236
S1130410892B59F461E070E081E090E00E9442028F
S113042088E491E00E94DB02FFCF86E391E00E9422
S1130430570480E090E00895809300100895CF93CE
S1130440DF938038910590F4EC018F700E941C02B8
S1130450CE01807F99279595879595958795959554
S1130460879595958795805F0E941C02DF91CF91B7
S11304700895282F392F2830310518F480550E940B
S11304801C020895CF93DF93EB010E943902CE0141
S11304900E941F02DF91CF91089580930012089566
S11304A00F931F93CF93DF9300EB10E013C0C801A9
S11304B00E94390280E090E00E941F02C0E0D0E078
S11304C004C080E00E944D022196C038D105CCF3CF
S11304D00F5F1F4F083B110554F3DF91CF911F911C
S11304E00F9108958EEA0E941C0281EA0E941C0268
S11304F08AED0E941C0282E10E941C0288EC0E9488
S11305001C0288EA0E941C028FE30E941C0285EDF3
S11305100E941C0280E80E941C0281E80E941C02C6
S113052080E50E941C0289ED0E941C0281E20E9467
S11305301C0280E20E941C0282E00E941C028BEDDD
S11305400E941C0280E30E941C028DEA0E941C028D
S113055080E00E941C0284EA0E941C0286EA0E9437
S11305601C028FEA0E941C020E94500208951F93ED
S1130570CF93DF9390EE980F9F3598F018C0E12F3A
S1130580F0E0B097EE0FFF1FEE0FFF1FEE0FFF1FFF
S1130590EC0FFD1FE059FF4F84910E944D022196FC
S11305A003C0182FC0E0D0E0C830D10544F3DF9178
S11305B0CF911F9108950F931F93CF93DF938C01D5
S11305C0C0E0D0E003C00E94B7022196F801EC0F0E
S11305D0FD1F80818111F7CFDF91CF911F910F9182
S11305E00895EF92FF920F931F93CF93DF9380E5CB
S11305F091E00E9457040E94E6037C010E94EB03F1
S1130600C0E0D0E000E010E020C00E94E603FE015C
S1130610F85E808320812817B9F099279F938F93E0
S11306201F922F93DF93CF9387E691E09F938F934D
S11306300E9441040F5F1F4F8DB79EB708960FB6F7
S1130640F8949EBF0FBE8DBF2196C11598E0D907BF
S1130650E0F2C7010E94EB03C0E0D0E0E12CF12CF2
S113066020C00E94E603FE01F85E20812817C1F035
S113067099279F938F931F922F93DF93CF9381EAB0
S113068091E09F938F930E9441048FEFE81AF80A38
S11306908DB79EB708960FB6F8949EBF0FBE8DBF58
S11306A02196C11598E0D907E0F2E114F104B1F400
S11306B001151105B1F4FF92EF921F930F938FED83
S11306C091E09F938F930E9441040F900F900F909D
S11306D00F900F900F9080E090E005C081E090E0D3
S11306E002C081E090E0DF91CF911F910F91FF90C4
S11306F0EF9008955D9BFECF8CB908955F9BFECF6C
S11307008CB1089510BC89B988E18AB986E880BDA6
S11307106EE773E08AE793E00E94F603089585B7D5
S1130720806885BF80B7806280BF8CE392E00E94BE
S1130730570408958F929F92AF92BF92CF92DF9207
S1130740EF92FF92CF93DF93EC01688179818A81E4
S11307509B81611571058105910521F464E279EDB0
S11307608BE597E02DE133EF41E050E00E945C0817
S113077049015A019B01AC01A7EAB1E40E947B083C
S11307806B017C01ACEEB4EFA50194010E948908D1
S1130790DC01CB018C0D9D1DAE1DBF1DB7FF03C039
S11307A00197A109B04888839983AA83BB839F7763
S11307B0DF91CF91FF90EF90DF90CF90BF90AF90FB
S11307C09F908F9008950E949A03089580E091E08D
S11307D00E949A030895A0E0B0E0809300019093F2
S11307E00101A0930201B093030108950F931F9395
S11307F0CF93DF93009731F46115710519F480E00C
S113080090E03AC08B01EC016EE070E081E090E092
S11308100E946806FC01892B91F380E8838301150B
S1130820110571F01387028781E883838091480260
S113083090914902892B21F4F0934902E0934802F4
S11308402097C9F0D187C087838182608383809198
S11308504A0290914B02892B71F4F0934B02E0937E
S11308604A0280914C0290914D02892B21F4F0931D
S11308704D02E0934C02CF01DF91CF911F910F9174
S11308800895A0E0B0E0E7E4F4E00C949E08AE0123
S11308904B5F5F4FFA0161917191AF0180914A0200
S11308A090914B020E948704E2E00C94BA080F93E3
S11308B01F93CF93DF93E0914A02F0914B0223817F
S11308C021FF1BC08C01D0E0C0E0F80181918F01B1
S11308D060914A0270914B02DB011896ED91FC91F4
S11308E01997882331F00995892B79F3DFEFCFEF3E
S11308F0ECCF8AE00995892B19F08FEF9FEF02C0A6
S11309008D2F9C2FDF91CF911F910F910895ABE014
S1130910B0E0EDE8F4E00C948E086C017B018A01F0
S1130920FC0117821682838181FFCCC1CE0101961E
S11309303C01F6019381F70193FD859193FF819129
S11309407F01882309F4BAC1853239F493FD859176
S113095093FF81917F01853229F4B60190E00E94D2
S1130960C207E7CF912C212C312CFFE1F315D8F0ED
S11309708B3279F038F4803279F08332A1F4232D6C
S113098020611DC08D3261F0803369F4232D216014
S113099016C0832D8260382EE32DE4603E2E2AC0DB
S11309A0F32DF8601DC037FC2DC020ED280F2A3030
S11309B040F08E32B9F436FC81C1232D2064322EEE
S11309C019C036FE06C08AE0989E200D1124922E8E
S11309D011C0EAE02E9E200D1124222EF32DF06288
S11309E03F2E08C08C3621F4832D8068382E02C037
S11309F0883641F4F70193FD859193FF81917F013E
S1130A008111B3CF982F9F7D9554933028F40C5FB8
S1130A101F4F9FE399830DC0833631F0833771F004
S1130A20833509F059C021C0F801808189830E5FA4
S1130A301F4F88248394912C530113C02801F2E0A2
S1130A404F0E511CF801A080B18036FE03C0692D01
S1130A5070E002C06FEF7FEFC5010E94B7074C0141
S1130A608201F32DFF773F2E16C0280122E0420EAB
S1130A70511CF801A080B18036FE03C0692D70E0DE
S1130A8002C06FEF7FEFC5010E94A5074C01F32D53
S1130A90F0683F2E820133FC1BC0822D90E0881643
S1130AA09906B0F4B60180E290E00E94C2072A944D
S1130AB0F4CFF50137FC859137FE81915F01B601D2
S1130AC090E00E94C20721102A9421E0821A910822
S1130AD08114910471F7E8C0843611F0893641F528
S1130AE0F80137FE07C060817181828193810C5FB8
S1130AF01F4F08C060817181072E000C880B990B71
S1130B000E5F1F4FF32DFF763F2E97FF09C0909580
S1130B108095709561957F4F8F4F9F4FF0683F2E62
S1130B202AE030E0A3010E94FE07882E861845C003
S1130B30853731F4232D2F7EB22E2AE030E025C0F4
S1130B40932D997FB92E8F36C1F018F4883579F03A
S1130B50B5C0803719F0883721F0B0C0E92FE061C3
S1130B60BE2EB4FE0DC0FB2DF460BF2E09C034FEB2
S1130B700AC0292F2660B22E06C028E030E005C046
S1130B8020E130E002C020E132E0F801B7FE07C006
S1130B9060817181828193810C5F1F4F06C06081E7
S1130BA0718180E090E00E5F1F4FA3010E94FE0759
S1130BB0882E8618FB2DFF773F2E36FE0DC0232D81
S1130BC02E7FA22E891458F434FE0BC032FC09C0C7
S1130BD0832D8E7EA82E05C0B82CA32C03C0B82C60
S1130BE001C0B92CA4FE0FC0FE01E80DF11D8081E7
S1130BF0803321F49A2D997EA92E09C0A2FE06C045
S1130C00B394B39404C08A2D867809F0B394A3FCFA
S1130C1011C0A0FE06C0B21488F4280C922C9B18B4
S1130C200EC0B21460F4B60180E290E00E94C207E4
S1130C30B394F7CFB21418F42B1802C0982C212CBB
S1130C40A4FE10C0B60180E390E00E94C207A2FE99
S1130C5017C0A1FC03C088E790E002C088E590E0DB
S1130C60B6010CC08A2D867859F0A1FE02C08BE231
S1130C7001C080E2A7FC8DE2B60190E00E94C207A9
S1130C80891438F4B60180E390E00E94C2079A9474
S1130C90F7CF8A94F301E80DF11D8081B60190E04D
S1130CA00E94C2078110F5CF222009F442CEB6017A
S1130CB080E290E00E94C2072A94F6CFF601868172
S1130CC0978102C08FEF9FEF2B96E2E10C94AA0864
S1130CD00F931F93CF93DF93869F8001879F100DFF
S1130CE0969F100D1124C8010E948406EC01009700
S1130CF029F0A80160E070E00E94B007CE01DF9106
S1130D00CF911F910F9108950F931F93CF93DF936A
S1130D108230910510F482E090E0E0915002F0916D
S1130D20510220E030E0A0E0B0E0309719F14081BA
S1130D3051810281138148175907C8F08417950718
S1130D4069F4109731F012960C93129713961C9332
S1130D5027C0009350021093510222C0211531057F
S1130D6019F04217530718F49A01BD01EF01DF018E
S1130D70F801DBCF21153105F9F0281B390B24309C
S1130D80310580F48A819B816115710521F0FB0195
S1130D909383828304C09093510280935002FE0196
S1130DA0329644C0FE01E20FF31F819391932250C7
S1130DB03109398328833AC020914E0230914F0281
S1130DC0232B41F4209106013091070130934F0207
S1130DD020934E0220910401309105012115310523
S1130DE041F42DB73EB74091080150910901241BED
S1130DF0350BE0914E02F0914F02E217F307A0F495
S1130E002E1B3F0B2817390778F0AC014E5F5F4F5C
S1130E102417350748F04E0F5F1F50934F0240933D
S1130E204E028193919302C0E0E0F0E0CF01DF91A4
S1130E30CF911F910F910895CF93DF93009709F4F9
S1130E4081C0FC01329713821282A0915002B091AA
S1130E505102109781F420813181820F931F2091D8
S1130E604E0230914F022817390751F5F0934F0283
S1130E70E0934E0267C0ED0120E030E0CE17DF07BB
S1130E8040F44A815B819E0141155105F1F0EA016C
S1130E90F5CFD383C28340815181840F951FC81736
S1130EA0D90759F488819981840F951F02969183FB
S1130EB080838A819B81938382832115310529F460
S1130EC0F0935102E09350023DC0E901FB83EA83B1
S1130ED049915991C40FD51FEC17FD0761F4808126
S1130EE09181840F951F0296E901998388838281F9
S1130EF093819B838A83E0E0F0E012968D919C912C
S1130F001397009719F0FD01DC01F7CF8D919C91A7
S1130F1011979D012E5F3F4F820F931F20914E0228
S1130F2030914F022817390769F4309729F4109249
S1130F3051021092500202C013821282B0934F02E7
S1130F40A0934E02DF91CF910895FC01059061506A
S1130F5070400110D8F7809590958E0F9F1F0895CB
S1130F60DC0101C06D9341505040E0F70895FC014D
S1130F706150704001900110D8F7809590958E0FC4
S1130F809F1F08950F931F93CF93DF93FB0123813A
S1130F9021FD03C08FEF9FEF2CC022FF16C04681B6
S1130FA05781248135814217530744F4A081B181CC
S1130FB09D012F5F3F4F318320838C93268137819E
S1130FC02F5F3F4F3783268314C08B01EC01FB0155
S1130FD00084F185E02D0995892BE1F6D801169658
S1130FE08D919C911797019617969C938E931697C3
S1130FF0CE01DF91CF911F910F910895FA01AA2795
S1131000283051F1203181F1E8946F936E7F6E5F47
S11310107F4F8F4F9F4FAF4FB1E03ED0B4E03CD0F5
S1131020670F781F891F9A1FA11D680F791F8A1FD8
S1131030911DA11D6A0F711D811D911DA11D20D03F
S113104009F468943F912AE0269F11243019305DF9
S11310503193DEF6CF010895462F4770405D4193EA
S1131060B3E00FD0C9F7F6CF462F4F70405D4A3337
S113107018F0495D31FD4052419302D0A9F7EACFFF
S1131080B4E0A6959795879577956795BA95C9F72E
S113109000976105710508959B01AC010A2E069421
S11310A05795479537952795BA95C9F7620F731FDA
S11310B0841F951FA01D0895052E97FB1EF4009410
S11310C00E94730857FD07D00E94C50807FC03D08F
S11310D04EF40C94730850954095309521953F4FEC
S11310E04F4F5F4F089590958095709561957F4F10
S11310F08F4F9F4F08950E94E708A59F900DB49FBE
S1131100900DA49F800D911D11240895B7FF0C9498
S11311107B080E947B08821B930B08952F923F92B9
S11311204F925F926F927F928F929F92AF92BF92F3
S1131130CF92DF92EF92FF920F931F93CF93DF939F
S1131140CDB7DEB7CA1BDB0B0FB6F894DEBF0FBEFC
S1131150CDBF09942A88398848885F846E847D8449
S11311608C849B84AA84B984C884DF80EE80FD804B
S11311700C811B81AA81B981CE0FD11D0FB6F894C1
S1131180DEBF0FBECDBFED010895A1E21A2EAA1B4A
S1131190BB1BFD010DC0AA1FBB1FEE1FFF1FA21723
S11311A0B307E407F50720F0A21BB30BE40BF50B20
S11311B0661F771F881F991F1A9469F760957095A9
S11311C0809590959B01AC01BD01CF010895A29F2C
S11311D0B001B39FC001A39F700D811D1124911D07
S11311E0B29F700D811D1124911D0895F894FFCFB5
S11311F0010000000000520220002D50574D2069CC
S11312006E69742D004368616E6E656C206E6F7438
S113121020666F756E642C2061726720676976653D
S11312206E3A202564005352414D20746573742036
S11312306661696C65640D004E4947455249410039
S11312405374617274696E67205352414D20746502
S113125073742E2E2E0D00577269746520706861A8
S11312607365206572726F723A206578745F72617B
S11312706D5B2534645D203D202530325820287371
S1131280686F756C642062652025303258290D0A18
S11312900052657472696576616C2070686173656B
S11312A0206572726F723A206578745F72616D5B4B
S11312B02534645D203D2025303258202873686F22
S11312C0756C642062652025303258290D0A00535C
S11312D052414D207465737420636F6D706C657436
S11312E065642077697468200D0A2534642065726A
S11312F0726F727320696E207772697465207068EA
S113130061736520616E64200D0A25346420657262
S1131310726F727320696E2072657472696576618A
S11313206C2070686173650D0A0D0A002D584D45D7
S10B13304D20696E69742D0063
S9030000FC
