S00D00006E6F6465322E737265633F
S214080000C0080020FD030800F9030800F9030800EB
S214080010F9030800F9030800F903080000000000C7
S214080020000000000000000000000000F9030800BF
S214080030F903080000000000F9030800D5030800CB
S214080040F9030800F9030800F9030800F903080093
S214080050F9030800F9030800F9030800F903080083
S214080060ED080800F903080000000000F90308007E
S214080070F9030800F9030800F90308000000000067
S21408008000000000F9030800F9030800F903080057
S214080090F9030800F9030800F9030800F903080043
S2140800A0F903080000000000F9030800F903080037
S2140800B0F9030800F9030800F9030800F903080023
S2140800C0F9030800F9030800F9030800F903080013
S2140800D0F9030800F9030800F9030800F903080003
S2140800E0F9030800F9030800F90308006503080087
S2140800F0F903080010B5054C237833B9044B13B13F
S2140801000448AFF300800123237010BD3404002098
S214080110000000005C0B08000C4B43B10C4810B5FF
S2140801200C49AFF300800C48036823B910BD0A4891
S214080130036833B97047094B002BF7D0BDE8104069
S2140801401847064B002BF5D0184700BF00000000E4
S2140801505C0B0800380400205C0B08000000000058
S214080160F0B45718082FD4BF00230123082998BFD6
S214080170082A5CD80D46002B59D12E4A136823F05E
S2140801800103136013692C4B4FF440745C641C6FB6
S21408019024F003041C6703245C605C66A3F5006314
S2140801A0264CC3F80C41D3F8004144F40064C3F865
S2140801B000415061002419E01E4801F110035B015C
S2140801C0C2180026566000EB41124FF00056C2F8DF
S2140801D008624FF08076C650D2F81C3243F400030B
S2140801E0C2F81C3201238B401C430131B942E3DDBF
S2140801F000230DE00F4901EB43124FF00050C2F800
S214080200080203F1100252014FF040708850013383
S214080210AB42EFDB074B5C604FF40061084A516065
S2140802201A6842F001021A600020F0BC70470120EC
S214080230FBE700BF00400B40000E0E402B100010DE
S21408024000E100E008B502220121014B984708BDED
S214080250610108004B0103F1402303F53023D3F86E
S214080260103213F4000F36D003881C4A02EA834281
S21408027042F000524B0103F1402303F53023C3F844
S21408028008228378072B01D907238370827943795C
S2140802901B0443EA0263027943EA0223C278134343
S2140802A0490101F1402101F53021C1F81432827A62
S2140802B0437A1B0443EA0263027A43EA0223C279BA
S2140802C01343C1F8183283781B0443F40003C1F8BB
S2140802D01C32002070470120704700BF0000FC1F3A
S2140802E04B0103F1402303F53023D3F8103213F4FF
S2140802F0000F33D070B44B0103F1402303F53023CD
S214080300D3F81442D3F81822D3F80852C5F38A450E
S2140803100580D3F81052C5F303458570002303E023
S214080320C618F270120A0133AB4205DA032BF7DC63
S214080330C618F470240AF6E7094B01F110025201B8
S2140803404FF08070985003EB4111D1F81C3243F4FB
S2140803500003C1F81C32002070BC704701207047AB
S21408036000400B4010B584B0154B1C6914F0060FFE
S21408037019D014F0020F08D114F0040F0AD0022185
S21408038001A8104B9847002309E0012101A80D4B4E
S2140803909847F8E70C480D4B9847F4E701339DF863
S2140803A006209342FADB14F0010F02D00122044B18
S2140803B09A604FF40062064BC3F8842104B010BD5F
S2140803C000400B40E1020800C40A08003D08080087
S2140803D000E100E0024A136801331360704700BF6B
S2140803E050040020034B1A68024B1B689B1A834272
S2140803F0FAD3704750040020FEE7000008B5114BFA
S214080400114A9A4209D00F4B0F4A03E01168196047
S214080410043304320D498B42F8D30D4B02E0002218
S2140804201A6004330B4A9342F9D30B4B23F060430C
S21408043023F07F03094A9360094B9847094B98476E
S214080440FEE700BF000000205C0B08003404002014
S21408045034040020BC0400200000080000ED00E082
S214080460550908000D0508004FF48063204A1360FC
S21408047002F5007213601F4B1B6A13F0807F07D1CA
S2140804801D4A1C4B1A621B4B9B6E13F0010FFAD0C9
S2140804901A4A184B1A62174B9B6E13F4803FFAD011
S2140804A0144A136B23F0030343F001031363114B41
S2140804B09B6E13F0080FFAD0114A0E4B9A620D4B3A
S2140804C09B6E13F0020FFAD011220A4B1A63094BDF
S2140804D09B6E13F0080FFAD01222064B1A63054BD0
S2140804E09B6E13F0080FFAD0064A074B1A6070473F
S2140804F0000A0E4000060E400908370009083701B2
S214080500013F0D2000BD01050000002000B585B0A4
S214080510184B9847184B1B68184AA2FB03239B09DD
S214080520013BB3F1807F09D2154A5360F021154B81
S21408053083F823100023936007231360124B984711
S214080540124A536843F4004353601148114B9847C6
S214080550114B93E8070004AB03E907000F48104B5C
S2140805609847002101A80F4B98474FF47A700E4B16
S2140805709847F6E76904080000000020D34D62108B
S21408058010E000E000ED00E061080800501A0E4098
S2140805905631140045020800F00A0800FC0A080054
S2140805A03D08080055020800E503080008B5C8B26B
S2140805B0014B984708BD00BFC90808002DE9F0415F
S2140805C007460E46151E02DD0A46002104E04FF0D7
S2140805D020080EE00131013210780028FAD1A9422D
S2140805E001DA6D1A00E0002513F0020F06D14FF06D
S2140805F0200813F001040AD0002410E04FF0300859
S214080600F7E7414638460D4B98470134013D002D23
S214080610F7DC04E03846094B984701340136317850
S2140806200029F7D105E041463846044B984701347F
S214080630013D002DF7DC2046BDE8F081AD05080039
S214080640F0B585B007460C9851B11E460C4613B156
S2140806500A2A12D0002604AD002305F8013D18E04A
S21408066030238DF8043000238DF805300B9B0A9A4A
S21408067001A938461B4CA04729E0002901DB0026C3
S214080680E9E74C420126E6E7303305F8013DB4FBBE
S214080690F2F44CB1B4FBF2F302FB1343092BF3DD7F
S2140806A0A0F13A010B44EFE756B10A9B1BB10B9B2E
S2140806B013F0020F0DD12D2305F8013C013D00264D
S2140806C00B9B0A9A29463846064CA047304405B084
S2140806D0F0BD2D213846044B98470A9B013B0A93E8
S2140806E0EEE700BFBD050800AD050800F0B589B007
S2140806F006460C460592002581E0A21C01238BE0E5
S214080700013443F002032278302AF9D0002206E0AA
S21408071002EB82025000A1F1300202440134217833
S214080720A1F13000C0B20928F2D9732918D064297B
S21408073022D078292FD058293CD0752949D063294A
S2140807405CD10599081D059009788DF81C100021C4
S2140807508DF81D1007A93046344FB84705444DE0BC
S2140807600599081D0590096821B130462F4FB847EE
S214080770054443E02E49F8E70599081D05900968E1
S214080780612002900193009201230A223046294FE5
S214080790B847054432E00599081D059009686120A8
S2140807A0029001930092002310223046214FB8474A
S2140807B0054423E00599081D059009684120029024
S2140807C0019300920023102230461A4FB84705447A
S2140807D014E00599081D05900968612002900193A8
S2140807E0009200230A223046124FB847054405E017
S2140807F0144621783046104B984701350134237843
S21408080063B1252BF5D1621C63783BB1252BEFD05D
S2140808102D2B3FF472AF0023144674E716B13368E5
S21408082000221A70284609B0F0BD00BFBD050800B2
S2140808300C0B080041060800AD0508000FB400B50B
S21408084083B004AA52F8041B01920020034B984771
S21408085003B05DF804EB04B0704700BFED0608006F
S214080860164B00221A705A70154B4FF44071596493
S21408087059601A6F186F024022F440721A67596658
S2140808804FF48072A3F500631A6103F50073AC2178
S214080890196040F2232119624FF40061596040F252
S2140808A00221C3F820114FF0FF31D960E121996089
S2140808B004490A6050221A60704700BF540400209A
S2140808C0000E0E4000E100E0074B5B6913F0020FD4
S2140808D008D0054BD861044B5B6913F4007FFAD047
S2140808E0002070470120704700080E4008B5154BD9
S2140808F05B6913F0E00F03D04FF4A871114A11603A
S21408090013F0010F12D010484278531C594203F0D6
S2140809103F0301F03F0158BF4B4201788B4206D097
S2140809200849886908490A4490704B7008BD07480A
S214080930074B9847044B5978024A92690B449A70B9
S21408094008BD00BF00080E4054040020140B080021
S2140809503D08080070B50F4E0F4D761BB61018BF31
S214080960002405D0013455F8043B9847A642F9D12F
S2140809700A4E0B4D00F0E0F8761BB61018BF0024A0
S21408098006D0013455F8043B9847A642F9D170BD05
S21408099070BD00BF440B0800440B08004C0B080051
S2140809A0440B0800024B13B1024800F005B8704724
S2140809B000000000C5090800002301461A4618462C
S2140809C000F01EB838B50A4C0A4D641BA4100AD0AD
S2140809D004F18043013B05EB8305013C55F80439D7
S2140809E09847002CF9D1BDE8384000F0AFB800BFF2
S2140809F05C0B0800580B0800704700BF704700BF24
S214080A002DE9F8432C4D0646286898460F46914629
S214080A10FFF7F2FF294B1C68D4F84831002B3ED06C
S214080A205A681F2A1CDC02F1010E76B1012103EB7D
S214080A308204C4F88890D3F8880191400843022EAF
S214080A40C3F88801C4F8088123D00232C3F804E04A
S214080A50286843F82270FFF7D1FF0020BDE8F88326
S214080A60174B0BB34FF4C870AFF300800346D8B1EA
S214080A700020D4F848114FF0010E5860196002465D
S214080A80C4F84831C3F88801C3F88C01002EDCD0BE
S214080A90CCE7D3F88C010143C3F88C11D5E704F5ED
S214080AA0A673C4F84831BBE72868FFF7A7FF4FF0DE
S214080AB0FF30BDE8F88300BF30040020340B080080
S214080AC00000000043414E30206D65737361676512
S214080AD0206172726976656420696E206E6F6E2D6D
S214080AE075736564206D61696C626F780A0D000025
S214080AF00E00036E6F646532000000006D61696E5B
S214080B002072756E6E696E6700000000286E756C40
S214080B106C2900004552523A2055415254205258EA
S214080B20206275666665722069732066756C6C0A45
S214080B300D00000008000020F8B500BFF8BC08BC8F
S214080B409E467047A509080019010800F8B500BFB9
S210080B50F8BC08BC9E467047F50008007C
S214080B5C00093D000000000000000000F402002020
S214080B6C5C030020C4030020000000000000000006
S214080B7C000000000000000000000000000000005C
S214080B8C000000000000000000000000000000004C
S214080B9C000000000000000000000000000000003C
S214080BAC000000000000000000000000000000002C
S214080BBC000000000000000000000000000000001C
S214080BCC000000000000000000000000000000000C
S214080BDC00000000000000000000000000000000FC
S214080BEC00000000000000000000000000000000EC
S214080BFC00000000000000000000000000000000DC
S214080C0C01000000000000000E33CDAB34126DE678
S214080C1CECDE05000B0000000000000000000000E1
S214080C2C00000000000000000000000000000000AB
S214080C3C000000000000000000000000000000009B
S214080C4C000000000000000000000000000000008B
S214080C5C000000000000000000000000000000007B
S208080F8C9804002098
S804080000F3
